:020000040800F2
:1000000000000320DD610008216200082162000871
:10001000216200082162000821620008000000003F
:10002000000000000000000000000000A94A0008D5
:100030002162000800000000A94C0008094D0008DA
:100040002162000821620008216200082162000884
:100050002162000821620008216200082162000874
:100060002162000821620008216200082162000864
:100070002162000821620008216200082162000854
:100080002162000821620008216200082162000844
:100090002162000821620008216200082162000834
:1000A0002162000821620008216200082162000824
:1000B0002162000821620008216200082162000814
:1000C0002162000821620008216200082162000804
:1000D00021620008216200082162000821620008F4
:1000E00021620008216200082162000821620008E4
:1000F00021620008216200082162000821620008D4
:1001000021620008216200082162000821620008C3
:1001100021620008216200082162000821620008B3
:1001200021620008216200082162000821620008A3
:100130002162000821620008216200082162000893
:100140002162000821620008216200082162000883
:100150002162000821620008216200082162000873
:100160002162000821620008216200082162000863
:100170002162000821620008216200082162000853
:100180002162000821620008216200082162000843
:100190002162000821620008216200082162000833
:1001A00021620008216200082162000890B484B036
:1001B00000AF03460A46FB711346BB710023FB6088
:1001C000BB7903F003039B000F2202FA03F3FB60E9
:1001D0001649BB799B08DBB21846144ABB799B08C9
:1001E000DBB2023352F82320FB68DB431A40831C46
:1001F00041F823200D48BB799B08DBB21C460B4A13
:10020000BB799B08DBB2023352F82320F979BB7922
:1002100003F003039B0001FA03F31A43A31C40F805
:1002200023201037BD4690BC704700BF0038014006
:1002300080B588B000AF0346FB71FB79002B00D17D
:100240005AE02F4B1B68002B00D155E0FB790F2B98
:1002500003D92C4802F0D8F84EE02B4B1B68002B3A
:1002600003D02A4802F0D0F846E0EFF310833B6158
:100270003B69FB610123FB60FB6883F31088224B21
:100280001B680133204A1360214B1B681B6B002B3A
:1002900028D0FB792133DB101E4AD35C1A46FB7948
:1002A000213303F0070342FA03F303F00103002BA9
:1002B00018D14FF6FF7002F0FFF803467B83FB79FD
:1002C0007B7601F0EDFD78617B69002B0AD07B69BC
:1002D00002221A707B697A8B5A807B697A7E5A7007
:1002E00002F0CCF8084B1B68013B074A1360FB691E
:1002F000BB60BB6883F310882037BD4680BD00BF5C
:1003000000000020106E0008F8000020506E000869
:10031000F40000205800002080B58EB000AFF860D7
:10032000B9607A60414B1B68002B00D17BE07B6891
:10033000002B03DA7B685B427B6301E07B687B63B5
:10034000EFF31083FB61FB693B630123BB61BB6976
:1003500083F31088364B1B680133354A1360354BE5
:100360001A687B681344334A1360304B1B681B6B5D
:10037000002B4ED0304B1B78002B03D12F4B1B781A
:10038000002B46D1FF2002F097F8034687F82F3064
:100390004FF6FF70796B00F0A3F90346BB8501F0BF
:1003A0007FFDB862BB6A002B33D0BB6A97F82F2061
:1003B0005A70BB6A00221A70BB6ABA8D5A8002F06A
:1003C0005DF84FF6FF70B96800F08AF90346FB84C8
:1003D000002387F8253001F063FD38623B6A002B6B
:1003E00017D03B6AFA8C5A803B6A97F825205A70DE
:1003F000FB68DBB20133DAB23B6A1A70FB68DAB22F
:10040000BB6A1A7002F03AF8084B1B68094A126876
:100410001A65074B1B68013B054A13603B6B7B6108
:100420007B6983F310883837BD4680BDF400002017
:10043000F800002048000020440000204600002072
:1004400080B58AB000AFF8600B467A60FB72FB683B
:10045000FE2B03D9414801F0D7FF7BE0FB7A062B46
:1004600003D93F4801F0D0FF74E03E4B1A68FB7A95
:10047000134493F864301A467B689A4203D23A4890
:1004800001F0C2FF66E0394B1B68002B03D03848EF
:1004900001F0BAFF5EE0374B1B78002B00D159E02A
:1004A000EFF31083BB61BB697B6201237B617B69D6
:1004B00083F310882D4B1B6801332C4A1360294BA2
:1004C0001B681B6B002B3BD02B4B1B78002B03D1E5
:1004D0002A4B1B78002B33D17B68DBB2FA7A1046AB
:1004E000194605F033FD0346002B29D1FB68DB08D4
:1004F000234AD35C1A46FB6803F0070342FA03F36E
:1005000003F00103002B1BD14FF6FF7001F0D4FF65
:1005100003467B847B6887F8213001F0C1FCF861D9
:10052000FB69002B0CD0FB697A8C5A80FB68DAB22D
:10053000FB691A70FB6997F821205A7001F09EFF41
:100540000A4B1B68013B094A13607B6A3B613B69AC
:1005500083F310882837BD4680BD00BFC06E0008F9
:10056000F46E0008F4000020386F0008F800002046
:100570007C6F000845000020440000204600002059
:100580006000002080B58AB000AFF8607A603B6000
:100590000B46FB72FB68FE2B03D9474801F034FF82
:1005A00086E0FB7A062B03D9444801F02DFF7FE05B
:1005B000434B1A68FB7A134493F864301A467B68FD
:1005C0009A4203D23F4801F01FFF71E03E4B1B6887
:1005D000002B03D03D4801F017FF69E0EFF31083D3
:1005E000BB61BB697B6201237B617B6983F31088FC
:1005F000354B1B680133344A1360314B1B681B6B4E
:10060000002B4BD0324B1B78002B47D0314B1B7843
:10061000002B03D0304B1B78002B3FD07B68DBB224
:10062000FA7A1046194605F091FC0346002B35D1A5
:10063000FB68DB08294AD35C1A46FB6803F0070312
:1006400042FA03F303F00103002B27D1FF2001F04E
:1006500033FF034687F82330FF20396800F040F865
:10066000034687F822307B6887F8213001F018FCB8
:10067000F861FB69002B11D0FB6997F82320DA7031
:10068000FB68DAB2FB691A70FB6997F821205A708F
:10069000FB6997F822209A7001F0F0FE0A4B1B6864
:1006A000013B094A13607B6A3B613B6983F3108815
:1006B0002837BD4680BD00BFB46F0008EC6F00084E
:1006C000F400002038700008F8000020887000084E
:1006D000450000204600002044000020600000206B
:1006E00080B584B000AF786039607B68FF2B09D09B
:1006F0007B684FF6FF72934204D0174801F084FEE6
:100700003B6825E03A687B689A4201D83B681FE065
:1007100001F0C6FBF860FB68002B16D0FB680122D5
:100720001A707B68DA433B68134003F47F431B0A6B
:10073000DAB2FB685A707B68DA433B6813401B0CE3
:100740009AB2FB685A8001F099FE3A687B681340C0
:1007500018461037BD4680BDC070000880B58AB00D
:1007600000AF786039600023FB847B68FE2B03D9DF
:10077000324801F049FE5DE0314B1B68002B03D08D
:10078000304801F041FE55E0EFF310837B617B6957
:100790003B6201233B613B6983F31088284B1B6854
:1007A0000133274A1360284B1B681B6B002B37D083
:1007B000264B1B78002B33D0254B1B78002B03D006
:1007C000244B1B78002B2BD07B68DB08224AD35CA0
:1007D0001A467B6803F0070342FA03F303F00103B0
:1007E000002B1DD1FF2001F067FE0346FB774FF67B
:1007F000FF703968FFF774FF0346FB8401F050FB7C
:10080000B861BB69002B0BD0BB69FA7F5A707B685B
:10081000DAB2BB691A70BB69FA8C5A8001F02EFEFD
:10082000074B1B68013B064A13603B6AFB60FB6891
:1008300083F310882837BD4680BD00BFFC700008D8
:10084000F800002050710008F4000020450000204E
:1008500046000020440000206000002080B58AB0DF
:1008600000AF0346FB71002387F82730FB790F2B7D
:1008700003D93F4801F0C8FD77E0FB792133DB1055
:100880003C4AD35C1A46FB79213303F0070342FA52
:1008900003F303F00103002B06D0012387F8273070
:1008A000354B01221A7002E0334B00221A70EFF32D
:1008B00010837B617B693B6201233B613B6983F36E
:1008C00010882E4B1B6801332C4A13602C4B1B786D
:1008D000FA799A4202D1012387F82730294B1B6805
:1008E0001B6B002B02D1012387F8273097F92730A3
:1008F000002B30D14FF6FF7001F0DEFD0346FB8385
:100900001F4AFB7913701E4B1B787B7701F0C8FAE6
:10091000B861BB69002B1ED0194B1B780320194608
:1009200000F0A2F90346012B03D1BB6907221A701C
:1009300002E0BB6906221A70BB69FA8B5A80BB6958
:100940007A7F5A700E4B1B7803201946012200F063
:100950004FF901F093FD094B1B68013B074A1360F7
:100960003B6AFB60FB6883F310882837BD4680BD77
:10097000887100085800002046000020F800002080
:1009800045000020F400002090B587B000AF03467A
:100990000A46FB711346BB71BB79062B03D920486D
:1009A00001F032FD39E01F4B1A68BB79134493F80C
:1009B0006430FA799A4203D91B4801F025FD2CE0F6
:1009C000184B1B681B6B002B27D0FB79FB75154B55
:1009D0001C68FA79BB791046194601F085FA03467E
:1009E0008833234404333B613869002101F0BCFCA7
:1009F0000346FB8101F054FAB860BB68002B0CD0B1
:100A0000BB790833DAB2BB681A70BB68FA7D5A70DA
:100A1000BB68FA895A8001F031FD1C37BD4690BD94
:100A2000CC710008F40000201C72000890B585B05D
:100A300000AF03460A46FB711346BB71BB79062B18
:100A400003D92B4801F0E0FC4FE02A4B1A68BB7930
:100A5000134493F86430FA799A4203D9264801F096
:100A6000D3FC42E0234B1B681B6B002B3DD001F0F5
:100A700017FAF860FB68002B37D0BB79032B17D12E
:100A80001C4B1C68FA79BB791046194601F02CFA08
:100A900003461946174B1A68BB79134493F86C3018
:100AA0000B440133234493F88C20FB685A7015E003
:100AB000104B1C68FA79BB791046194601F014FAFC
:100AC000034619460B4B1A68BB79134493F86C30F4
:100AD0000B44234493F88C20FB685A70BB79103385
:100AE000DAB2FB681A7001F0C9FC1437BD4690BD3C
:100AF00068720008F4000020C072000890B583B04E
:100B000000AF0346FB710B46BB7113467B71FB794B
:100B1000062B03D9144801F077FC22E0134B1A6826
:100B2000FB79134493F86430BA799A4203D9104898
:100B300001F06AFC15E00D4B1C68BA79FB79104690
:100B4000194601F0D1F903461946084B1A68FB799A
:100B5000134493F86C300B44013323447A7983F8BF
:100B60008C200C37BD4690BD10730008F4000020A7
:100B70005873000890B583B000AF03460A46FB7176
:100B80001346BB71FB79062B04D9164801F03CFCD7
:100B9000002322E0144B1A68FB79134493F8643065
:100BA000BA799A4204D9114801F02EFC002314E0CE
:100BB0000D4B1C68BA79FB791046194601F094F97F
:100BC00003461946084B1A68FB79134493F86C30B6
:100BD0000B440133234493F88C3018460C37BD4640
:100BE00090BD00BF98730008F4000020F473000863
:100BF00090B583B000AF0346FB710B46BB71134643
:100C00007B71FB79062B03D9144801F0FDFB21E031
:100C1000134B1A68FB79134493F86430BA799A42FB
:100C200003D9104801F0F0FB14E00D4B1C68BA79B1
:100C3000FB791046194601F057F903461946084B4F
:100C40001A68FB79134493F86C300B4423447A7987
:100C500083F88C200C37BD4690BD00BF707400082F
:100C6000F4000020B474000890B583B000AF0346D0
:100C70000A46FB711346BB71FB79062B04D9154854
:100C800001F0C2FB002321E0134B1A68FB791344E7
:100C900093F86430BA799A4204D9104801F0B4FB51
:100CA000002313E00C4B1C68BA79FB7910461946F7
:100CB00001F01AF903461946074B1A68FB791344E9
:100CC00093F86C300B44234493F88C3018460C375F
:100CD000BD4690BDF0740008F40000203475000893
:100CE00090B583B000AF0346FB71104B1B6893F8BF
:100CF0006730FA799A4203D90D4801F085FB11E07B
:100D00000A4B1C68FB791846032101F0EDF80346F5
:100D10001A46064B1B6893F86F3013442344002295
:100D200083F88C200C37BD4690BD00BFF400002036
:100D30007075000880B500AF00F0F2F800F036F9E9
:100D400000F010F80346002B01D0042308E000F067
:100D500023F80120012100F049F800F06FF800238A
:100D6000184680BD80B500AF00F026F803461A464D
:100D700040F611039A4209D0064B1B68002B03D1A1
:100D800000F0E6FB034602E0012300E000231846E2
:100D900080BD00BF0400002080B500AF0320022109
:100DA00000F02EF9022000F009FC0320002100F0E1
:100DB00027F90023184680BD80B582B000AF00231C
:100DC000FB80002000F05EFA0346FB80FB881B02DC
:100DD000FB80012000F056FA03469AB2FB881343C9
:100DE000FB80FB8818460837BD4680BD80B584B0BF
:100DF00000AF03460A46FB711346BB710023FB7329
:100E0000042000F03FFA0346FB73BB79002B07D0A8
:100E1000FB79DB43DAB2FB7B1340DBB2FB7303E00D
:100E2000FA7BFB791343FB73FB7B0420194600F02C
:100E3000E7F8002318461037BD4680BD80B500AFE7
:100E400002200121FFF7D2FF2020492100F0D8F82D
:100E5000022000F0B3FB2120012100F0D1F81E2078
:100E6000002100F035F841209A2100F0C9F84A200D
:100E7000012100F0C5F84B20012100F0C1F84B2002
:100E8000002100F0BDF85620012100F0B9F85820EB
:100E9000012100F0B5F84020032100F0B1F80B204B
:100EA000FF2100F0ADF8094B0022DA80074BDA8809
:100EB000064B9A80054B9A88044B5A80034B5A88FC
:100EC000024B1A800023184680BD00BF8C2E0120E3
:100ED00080B584B000AF03460A46FB711346BB7170
:100EE0000023FB73172000F0CDF90346FB73BB7999
:100EF000002B04D0FA7BFB791343FB7306E0FB79EC
:100F0000DB43DAB2FB7B1340DBB2FB73FB7B1720C6
:100F1000194600F075F8002318461037BD4680BD0D
:100F200080B582B000AF4FF40000012101F0C0FD98
:100F300040F20510012101F09DFD4FF48040012198
:100F400001F0D4FD4FF40000012101F0EDFD4FF45C
:100F50000000002101F0E8FD12480821042203F0FE
:100F600001FB11480921042203F0FCFA4FF48073BD
:100F70003B6002233B7102237B710123BB71002381
:100F8000FB713B460748194603F05EFA4FF40073C5
:100F90003B603B460448194603F056FA0837BD4605
:100FA00080BD00BF000002400008024080B584B050
:100FB00000AF114B1B889BB203F00103002B17D12C
:100FC0000023BB804BF6FF73FB8000233B814FF473
:100FD00080637B814FF48043BB81084B3B603B4681
:100FE0000548194605F058F90348012105F016FA9D
:100FF0001037BD4680BD00BF005C0040A0860100E8
:1010000080B584B000AF03460A46FB711346BB713E
:101010000023FB604C48012105F020FA4B4B4FF4B4
:1010200040521A600AE0494B1B685A1E47490A6041
:10103000002B03D100F08CFA034680E0424844497B
:1010400005F0CAFA0346002BEDD03F48822100226A
:1010500005F044FA3D4B4FF440521A600AE03B4B16
:101060001B685A1E39490A60002B03D100F070FA40
:10107000034664E03448374905F0AEFA0346002BD6
:10108000EDD0314B1B8B314B4FF440521A600AE0CC
:101090002E4B1B685A1E2D490A60002B03D100F00D
:1010A00057FA03464BE028482B4905F095FA0346CA
:1010B000002BEDD0FB792448194605F06FFA234B3D
:1010C0004FF440521A600AE0204B1B685A1E1F4919
:1010D0000A60002B03D100F03BFA03462FE01A48C8
:1010E0001D4905F079FA0346002BEDD0BB7916486F
:1010F000194605F053FA154B4FF440521A600AE0B6
:10110000124B1B685A1E11490A60002B03D100F0D4
:101110001FFA034613E00C480F4905F05DFA034639
:10112000002BEDD008480D4905F056FA0346002B78
:10113000E6D00548012105F0B1F9FB68DBB218469D
:101140001037BD4680BD00BF005C00400400002099
:1011500001000010020000108000001004000010C8
:1011600080B582B000AF03460A46FB711346BB71DF
:101170003E48012105F072F93D4B4FF440521A6090
:101180000AE03B4B1B685A1E39490A60002B03D109
:1011900000F0DEF9034664E03448364905F01CFAF5
:1011A0000346002BEDD0FB7930481946002205F0AC
:1011B00095F92F4B4FF440521A600AE02C4B1B68F4
:1011C0005A1E2B490A60002B03D100F0C1F90346D7
:1011D00047E02648284905F0FFF90346002BEDD0EB
:1011E000224B1B8B224B4FF440521A600AE0204BDB
:1011F0001B685A1E1E490A60002B03D100F0A8F993
:1012000003462EE019481D4905F0E6F90346002B78
:10121000EDD0BB791548194605F0C0F9144B4FF4D1
:1012200040521A600AE0124B1B685A1E10490A60AD
:10123000002B03D100F08CF9034612E00B480F4954
:1012400005F0CAF90346002BEDD008480C4905F01B
:10125000C3F90346002BE6D00448012105F01EF92E
:10126000012318460837BD4680BD00BF005C004022
:101270000400002001000010020000108000001097
:101280000400001080B584B000AF0346FB7100235A
:10129000FB736C48012105F0E1F86B4B4FF44052B1
:1012A0001A600AE0684B1B685A1E67490A60002BE7
:1012B00003D100F04DF90346C0E06248634905F0F0
:1012C0008BF90346002BEDD05E48002105F024F990
:1012D0005C488221002205F001F95B4B4FF440523B
:1012E0001A600AE0584B1B685A1E57490A60002BC7
:1012F00003D100F02DF90346A0E05248544905F00F
:101300006BF90346002BEDD04E4B1B8B4E4B4FF42D
:1013100040521A600AE04C4B1B685A1E4A490A6048
:10132000002B03D100F014F9034687E045484949F2
:1013300005F052F90346002BEDD0FB7941481946E0
:1013400005F02CF9404B4FF440521A600AE03E4B36
:101350001B685A1E3C490A60002B03D100F0F8F8C4
:1013600003466BE037483B4905F036F90346002B4E
:10137000EDD03448384905F02FF90346002BE6D06C
:101380003048012105F06AF82F4B4FF440521A60A3
:101390000AE02D4B1B685A1E2B490A60002B03D113
:1013A00000F0D6F8034649E02648284905F014F92C
:1013B0000346002BEDD023488221012205F08EF850
:1013C000214B4FF440521A600AE01F4B1B685A1E13
:1013D0001D490A60002B03D100F0BAF803462DE046
:1013E00018481B4905F0F8F80346002BEDD0154BC3
:1013F0001B8B154B4FF440521A600AE0124B1B68CE
:101400005A1E11490A60002B03D100F0A1F80346CF
:1014100014E00C48114905F0DFF80346002BEDD02D
:101420000848012105F03AF8064805F0C7F80346D8
:10143000FB730448012105F06FF8FB7B1846103759
:10144000BD4680BD005C004004000020010000108B
:101450000200001080000010040000104000001086
:1014600080B584B000AF0346FB710023FB733348A3
:10147000012104F0F3FF324B4FF440521A600AE0AE
:101480002F4B1B685A1E2E490A60002B03D100F017
:101490005FF803464EE029482A4905F09DF80346C7
:1014A000002BEDD02548002105F036F8FB792348C4
:1014B0001946012205F012F8214B4FF440521A60F0
:1014C0000AE01F4B1B685A1E1D490A60002B03D1FE
:1014D00000F03EF803462DE018481B4905F07CF863
:1014E0000346002BEDD0154B1B8B154B4FF4405290
:1014F0001A600AE0124B1B685A1E11490A60002B41
:1015000003D100F025F8034614E00C480F4905F01C
:1015100063F80346002BEDD00848012104F0BEFF1C
:10152000064805F04BF80346FB730448012104F01C
:10153000F3FFFB7B18461037BD4680BD005C0040C2
:101540000400002001000010020000104000001004
:1015500080B584B000AF1748012104F09FFF154803
:10156000012104F0F9FF1348002104F0F5FFFFF713
:10157000D7FC104804F056FE0023BB804BF6FF73E7
:10158000FB8000233B814FF480637B814FF48043D9
:10159000BB81094B3B600748012104F03FFF3B46FC
:1015A0000448194604F078FE002318461037BD465B
:1015B00080BD00BF005C0040A086010080B485B003
:1015C00000AF78600023FB607B68084A02FB03F3EE
:1015D000FB6002E0FB68013BFB60FB68002BF9D17C
:1015E0001437BD465DF8047B704700BFA08601003C
:1015F0002DE9B0438CB000AF786002F0E7F8034605
:10160000BB610C23013B7B620C23DAB24FF0000379
:101610004FEA431949EAD2694FEA42180C23DAB279
:101620004FF000035D0145EAD26554010C239B0095
:1016300003330733DB08DB00ADEB030D6B460333ED
:101640009B089B003B620023FB850023BB85002396
:10165000FB8134E03B7CC3F30403DBB21A46012375
:1016600093409AB2FB8D13439BB2FB853B7C03F006
:101670002003DBB2002B0BD03B7CC3F30403DBB2B3
:101680001A46012393409AB2BB8D1343BB850DE0EC
:101690003B7CC3F30403DBB21A46012393409BB2A5
:1016A00083F0FF039AB2BB8D1340BB853B7CC3F331
:1016B0000403DBB219467A693B6A43F821203A4BAE
:1016C0001A6807F11003104619460022002303F0A0
:1016D00089FF0346002BBDD1344B1B6818460021FF
:1016E0004FF0FF32002303F07DFF07F10E03184691
:1016F00000F05EF82D4B1B681846002100220023E5
:1017000003F016FD002387F82B303FE097F82B30CD
:10171000012202FA03F39AB2FB8D1340FB83FB8B89
:10172000002B2ED097F82B3003F01F03DAB23B7B4F
:1017300062F304033B73BA8D97F82B3042FA03F33C
:10174000DBB203F00103DAB23B7B62F345133B7378
:10175000FB891A4697F82B3042FA03F33A7BC2F31F
:101760004012D2B293420CD197F82B203B6A53F827
:10177000222007F10C03104619460022012303F032
:10178000D7FC97F82B30013387F82B300C2297F8D1
:101790002B309342BAD3FA231A4607F1180318469E
:1017A000114601F077FE54E7A02E0120942E01206F
:1017B00080B582B000AF78607320FFF751FE03461A
:1017C0009BB21B029AB27B681A807120FFF748FE19
:1017D000034619467B681A888BB213439AB27B681A
:1017E0001A800837BD4680BD80B58AB000AF7860EA
:1017F000684B1B683B62002387F827300023FB738C
:10180000002387F826300CE097F8263007F12802ED
:101810001344032203F8102C97F82630013387F87D
:10182000263097F82630022BEED9002387F8273090
:10183000A9E0012000F0B6F8002303F01F03DAB29C
:101840003B7F62F304033B773B7F43F020033B770E
:10185000514B1A6807F11C03104619464FF0FF322E
:10186000012303F065FC012303F01F03DAB23B7F81
:1018700062F304033B77484B1A6807F11C031046D8
:1018800019464FF0FF32012303F052FC3B7D6FF30A
:1018900045133B753B7C6FF345133B743D4B1A6816
:1018A00007F11403104619464FF0FF32002303F0EE
:1018B00099FE384B1A6807F11003104619460022AA
:1018C000002303F08FFE3B7DC3F34013DBB2DAB29B
:1018D0003B7CC3F34013DBB25B00DBB21343DBB2F0
:1018E000DBB2FB73FB7B07F12802134413F8103CB7
:1018F000002B48D0FB7B07F128021A4412F8102C69
:10190000013AD2B207F128010B4403F8102C02234C
:1019100003F01F03DAB23B7F62F304033B773B7FA4
:1019200043F020033B771C4B1A6807F11C03104659
:1019300019464FF0FF32012303F0FAFB154B1B68E9
:10194000184600214FF0FF32002303F04BFE002029
:1019500000F028F8114B1A6807F10F0310461946DA
:101960004FF0FF32012303F0E3FB0D4B1B681846D9
:1019700000214FF0FF32002303F034FE97F82730A8
:10198000013387F8273097F82730092B7FF451AFC0
:1019900036E700BFA82E0120A02E0120982E01209E
:1019A000B42E012080B584B000AF0346FB7105233F
:1019B00003F01F03DAB23B7B62F304033B73FB7952
:1019C00003F00103DAB23B7B62F345133B73074B31
:1019D0001A6807F10C03104619464FF0FF32012335
:1019E00003F0A6FB1037BD4680BD00BFA42E01202A
:1019F00080B584B004AF002004F0FAFF012004F0A9
:101A0000F7FF0020002105F051F8FFF793F972204D
:101A10000021FFF7A5FB0346002B09D06F4B0122E5
:101A20001A70002005F012F8012005F027F808E0F0
:101A30006A4B00221A70002005F020F8012005F002
:101A400005F8674B00221A80664B00221A8002F0CC
:101A50004BFF02F04FFF052318460821002203F038
:101A60003DFA0246604B1A605F4B1B68002B01D1A8
:101A70000123B0E0052318460121002203F02EFACD
:101A800002465A4B1A60594B1B68002B01D10123A7
:101A9000A1E001200121002203F020FA0246544B6C
:101AA0001A60534B1B68002B01D1012393E00120E6
:101AB0000121002203F012FA02464E4B1A604D4BF0
:101AC0001B68002B01D1012385E0012001210022A8
:101AD00003F004FA0246484B1A60474B1B68002B80
:101AE00001D1012377E002200121002203F0F6F961
:101AF0000246424B1A60414B1B68002B01D1012367
:101B000069E001200121002203F0E8F902463C4B84
:101B10001A603B4B1B68002B01D101235BE00120C5
:101B20000121002203F0DAF90246364B1A60354BE8
:101B30001B68002B01D101234DE0012003F062FA64
:101B40000246314B1A60304B1B68002B01D1012338
:101B500041E02823009300230193002302930023F4
:101B600003932A482A498022002301F089FB32236B
:101B7000009300230193002302930023039325483D
:101B800025498022002301F07BFB1E2300930023C4
:101B900001930023029300230393204820498022CD
:101BA000002301F06DFB1423009300230193002315
:101BB0000293002303931B481B498022002301F05A
:101BC0005FFB1A4802F008FF03461A46184B1A80BA
:101BD00001F006FDFEE71846BD4680BD540000201A
:101BE000520000204E000020A02E0120A42E012033
:101BF000AC2E01209C2E0120B02E0120A82E012009
:101C0000982E0120B42E0120942E0120F1150008F9
:101C1000CC7500089D310008DC750008BD60000827
:101C2000F0750008E9170008047600081876000827
:101C3000B82E012080B500AF7D4B1A687D4B1B6824
:101C400013447D4A13607D4B7D4A1A607B4B1B68B1
:101C5000002B03D17B4800F0D7FBE8E0774B1B68F3
:101C6000002B03D1784800F0CFFBE0E0734B1B68FA
:101C70001846002144F2C06204F0FCFF6F4B1B6861
:101C800000221A706D4B1B6801225A706B4B1B6847
:101C900002229A70694B1B680322DA70674B1B683B
:101CA00070221A71654B1B6871225A71634B1B6855
:101CB00072229A71614B1B687322DA715F4B1B6849
:101CC000F0221A725D4B1B68F1225A725B4B1B6843
:101CD000F2229A72594B1B68F322DA72574B1B6837
:101CE00041F6A1229A81554B1B6804229A73534BEB
:101CF0001B680022DA73514B1B6844F2C0621A6100
:101D00004E4B1B684FF47A629A614C4B1B684FF044
:101D1000F0325A65494B1B6800229A6503F0E6FFD2
:101D2000464B1B684FF0F132C3F82424434B1B6829
:101D30004FF44872C3F82824404B1B680122C3F8B3
:101D40002C243E4B1B6803F5FA634FF07E521A6059
:101D50003A4B1B684FF0F232C3F8D827374B1B6859
:101D600003F2DC7318463949502205F01DF8334B55
:101D70001B684FF0F332C3F82C28304B1B6803F577
:101D80008D4334330A221A702C4B1B6803F58D43A4
:101D900035330B221A70294B1B6803F58D433633FC
:101DA0000C221A70254B1B6803F58D4337330D2227
:101DB0001A70224B1B6803F58D43383371221A7059
:101DC0001E4B1B6803F58D43393372221A701B4B6F
:101DD0001B6803F58D433A3373221A70174B1B6847
:101DE00003F58D433B3374221A70144B1B6803F5C3
:101DF0008D433C33F1221A70104B1B6803F58D4361
:101E00003D33F2221A700D4B1B6803F58D433E33B0
:101E1000F3221A70094B1B6803F58D433F33F422FC
:101E20001A7004F005F800F013F804F07BFC80BD94
:101E3000041000E0780200207C750120F4000020EE
:101E4000BC2E01201C7600085C7600088476000811
:101E500080B582B000AF104B1B683B603B681B78BD
:101E6000002B13D100237B600CE03A687B6813449D
:101E700039687A680A4412780132D2B21A707B68E3
:101E800001337B607B680B2BEFD902E0034800F045
:101E9000BBFA0837BD4680BDF400002098760008E4
:101EA00080B500AF0E4B1B681B6B002B01D10023CC
:101EB00013E00B4B1B68DB69B3F57A6F04D3094859
:101EC00000F0A2FA002308E0054B1A68044B1B68D7
:101ED000DB699B0003F503631344184680BD00BF14
:101EE000F4000020C476000880B582B000AF03463D
:101EF0000A46FB711346BB71BB79062B04D92248F5
:101F000000F082FA00233AE0FB79002B08D01F4B47
:101F10001A68BB79134493F86430FA799A4204D969
:101F20001B4800F071FA002329E0BB79062B22D868
:101F3000FB79002B1FD0154B1A68BB79134493F81B
:101F40006430FA799A4216D8104B1A68BB793C3340
:101F50005B0013449A880D4B1968BB790B4493F8C6
:101F6000743099B2FB79013B9BB211FB03F39BB236
:101F700013449BB203E0074800F046FA00231846DA
:101F80000837BD4680BD00BFEC760008F400002095
:101F90002C7700086C77000880B584B000AF03464A
:101FA000FB71FB79062B04D9934800F02DFA00232E
:101FB0001EE1FB79914A32F813301A46904B1A60B1
:101FC0008F4B1B688D4A134493F83830002B14D183
:101FD0008B4B1A688A4B1B68D9B2FB79874804334C
:101FE0005B000344DB88DBB2CB1ADBB20133D9B22E
:101FF000824B13440A4683F83820814B1B687F4A82
:10200000134493F83830FB73FB797C4A32F8132081
:10201000FB797A490C335B000B449B889A420AD9BE
:10202000FB79184603F052FF0346184600F0ECF91E
:102030000023FB73DBE0FB79704A32F81320013296
:1020400091B26E4A22F81310FB796C4A32F81330C1
:102050001946FB79694A04335B001344DB88CB1AC9
:10206000BB60FB79654A14335B0013445B881A46F6
:10207000BB689A4209DAFB79BA68D2B291B25F4A78
:1020800014335B0013440A465A80FB79062B00F296
:10209000AE8001A252F823F0B5200008EB20000822
:1020A0001F21000853210008EF21000887210008A4
:1020B000BB210008FB7BDB08DBB21946FB7BDB089E
:1020C000DBB21A464F4B9B5CD8B2FB7B03F0070395
:1020D000012202FA03F3DBB2DB43DBB20246134018
:1020E000DBB2DAB2474B5A5480E0FB7B0B33DB1098
:1020F000FA7B0B32D21043498A5CD0B2FA7B0B32A6
:1021000002F00702012101FA02F2D2B2D243D2B2A6
:1021100001460A40D2B2D1B23A4AD15466E0FB7BC2
:102120001633DB10FA7B1632D21036498A5CD0B2F5
:10213000FA7B163202F00702012101FA02F2D2B252
:10214000D243D2B201460A40D2B2D1B22D4AD154C2
:102150004CE0FB7B2133DB10FA7B2132D210294982
:102160008A5CD0B2FA7B213202F00702012101FA27
:1021700002F2D2B2D243D2B201460A40D2B2D1B2B6
:10218000204AD15432E0FB7B3133DB10FA7B313211
:10219000D2101C498A5CD0B2FA7B313202F00702BD
:1021A000012101FA02F2D2B2D243D2B201460A4070
:1021B000D2B2D1B2134AD15418E0FB7B3433DB10D6
:1021C000FA7B3432D2100F498A5CD0B2FA7B3432B7
:1021D00002F00702012101FA02F2D2B2D243D2B2D6
:1021E00001460A40D2B2D1B2064AD15400BFFB7BAD
:1021F00018461037BD4680BDAC770008840000202B
:10220000000100205800002080B584B000AF0346D4
:102210000A46FB711346BB71FB79062B03D91E4896
:1022200000F0F2F834E0BB79002B08D01B4B1A68A1
:10223000FB79134493F86430BA799A4203D9184869
:1022400000F0E2F824E0FB79164A32F813305A1E07
:10225000FB79144904335B000B44DB889A4203DAB0
:10226000114800F0D1F813E0FB790E4A32F8132040
:10227000013A91B20B4A22F81310FB79094A32F85D
:102280001330FB60074AFB6813443833BA791A707D
:102290001037BD4680BD00BFF0770008F400002075
:1022A00034780008840000207478000880B582B07B
:1022B00000AF03463A60FB710B46BB713B68002BD5
:1022C00003D1234800F0A0F83FE0FB79062B03D9A7
:1022D000204800F099F838E0BB79002B03D11E4864
:1022E00000F092F831E01D4B1A68FB79134493F823
:1022F0006430BA799A4208D9FB79184603F0E6FDB2
:102300000346184600F080F81FE0BA79FB791046C2
:102310001946FFF7E9FD03461A46114B1A80114B87
:102320001B68002B11D10D4B1A680D4B1B8888338D
:102330001344191D094B1A68FB79134493F86C3048
:10234000084639681A4604F02FFD0837BD4680BD9F
:10235000A4780008D478000800790008F400002070
:1023600004010020FC00002080B588B000AF786038
:102370000B467B800023FB720023BB727B68002B23
:1023800004D11F4800F040F8002335E007F10A02AD
:1023900007F10B03786811461A4600F07BFAEFF359
:1023A00010837B617B69BB6101233B613B6983F3E4
:1023B0001088144B1B680133124A1360B97AFA7AF9
:1023C0007B88786800F02CF90346FB83FB8B002B9D
:1023D00007D1B97AFA7A7B88786800F09DF90346CC
:1023E000FB83084B1B68013B064A1360BB69FB601B
:1023F000FB6883F31088FB8B18462037BD4680BDF1
:102400002C790008F800002080B582B000AF786019
:102410007B68002B03D11548FFF7F6FF22E0144B31
:102420001B68002B03D11348FFF7EEFF1AE0104B97
:102430001B6800221A63104B1B68002B12D10E4A36
:102440007B6813600A4B1B6803F2DC720A4B1B6843
:1024500010461946502204F0A7FC054B1B680122C8
:10246000C3F8D4270837BD4680BD00BF5C7900089B
:10247000F400002084790008FC00002080B500AF43
:102480000C4B1B681B6B002B00D111E0094B1B6828
:102490005A6901325A61074B1B68DA690132DA6105
:1024A000044B1B68DB69B3F57A6F01D302F082FA43
:1024B00080BD00BFF400002090B587B000AF034698
:1024C000FB8000237B6100233B610023FB60FB88D2
:1024D000FF2B09D0FB884FF6FF72934204D04C4883
:1024E000FFF792FF00238FE007F10C03184604F07A
:1024F00057F9FA68474B1B68D31A3B61FB68454A9A
:102500001360454B1B685B6A002B43D0424B1B6832
:102510005A6A3B699A421DD23F4B1B683E4A126879
:10252000D16A3D4A1268526A3869B0FBF2F20A4435
:10253000DA62394B1968384B1B68986A364B1B684E
:102540005A6A3B69B3FBF2F402FB04F29B1A0344A0
:102550008B6207E0304B1B682F4A1268916A3A6918
:102560000A449A622C4B1B689A6A2B4B1B685B6A65
:102570009A4213D3284B1B68DA6A0132DA62264B7F
:102580001B68254A1268916A234A1268526A8A1A9D
:102590009A6203E0204B1B68FA689A62FA883B69EA
:1025A0009A422CD2FFF77CFC78617B69002B26D005
:1025B000FB884FF6FF7293420BD17B69A9221A70F8
:1025C0003B691B0C9AB27B695A807B6900225A7066
:1025D00013E0FB88FF2B0DD17B69A8221A703B69A1
:1025E0001B0A9AB27B695A803B691B0EDAB27B697F
:1025F0005A7002E00948FFF707FFFFF73FFF3B690A
:102600009AB2FB8813409BB218461C37BD4690BD5A
:10261000107A000808010020F4000020507A000819
:1026200080B584B000AF7860084611461A4603466C
:10263000FB700B46BB7013463B80344B1B68FA782B
:1026400002F56A7233F81230FB817B68002B04D1EB
:102650002F48FFF7D9FE002354E0BB78002B04D1AC
:102660002C48FFF7D1FE00234CE047E0274B1A68C7
:10267000FB890233134493F830341A463B88DBB2AB
:102680009A4228D1214B1A68FB890333134493F8EB
:1026900030349AB23B881B0A9BB29A421BD11B4B27
:1026A0001A68FB89191DBB780B44134493F8303426
:1026B000002B10D1154B1A68FB89043303F5866390
:1026C0001A44BB78104679681A4604F021FB034689
:1026D000002B00D115E00D4B1A68FB89134493F8C9
:1026E00030349AB2094B1968FB8901330B4493F8D3
:1026F00030349BB21B029BB21344FB81FB89002B3D
:10270000B4D1FB8918461037BD4680BDF4000020C7
:10271000747A0008B07A000880B584B000AF7860A1
:10272000084611461A460346FB700B46BB7013461B
:102730003B800023FB817B68002B04D15148FFF7CD
:1027400063FE00239AE0BB78002B04D14E48FFF7CC
:102750005BFE002392E04D4B1B68D3F82C24BB7822
:1027600013440433B3F5487F05D34948FFF74CFEC3
:102770000023FB8181E0454B1A68444B1B68D3F86A
:102780002C3442490968F87800F56A7031F8101065
:10279000C9B213440A4683F830243C4B1A683B4BB9
:1027A0001B68D3F82C34013338490968F87800F5F0
:1027B0006A7031F81010090A89B2C9B213440A4686
:1027C00083F83024314B1A68304B1B68D3F82C3413
:1027D00002333988C9B213440A4683F830242B4B9C
:1027E0001A682A4B1B68D3F82C3403333988090A3A
:1027F00089B2C9B213440A4683F83024234B1A68BD
:10280000224B1B68D3F82C34043303F586631A4437
:10281000BB78104679681A4604F0C6FA1B4B1A6852
:102820001A4B1B68D3F82C14BB780B4404331344A5
:10283000002283F83024154B1B68FA781349096885
:10284000D1F82C1489B202F56A7223F812100F4BDA
:102850001B680E4A1268D2F82C14BA780A44053262
:10286000C3F82C24094B1B68D3F82C349AB2BB78DC
:102870009BB2D31A9BB2053BFB81FB8918461037EC
:10288000BD4680BDE87A0008247B0008F4000020E3
:102890005C7B000880B588B000AFF860B9607A60F2
:1028A0000123FB610023BB61FB68002B03D11948A6
:1028B000FFF7AAFD2BE0BB68002B03D11648FFF7FA
:1028C000A3FD24E07B68002B03D11448FFF79CFD97
:1028D0001DE0FB68002B0FD006E0FB7DBA691344B6
:1028E000BB61FB690133FB61FB685A1CFA601B7812
:1028F000FB75FB7D002BF0D1BB69DBB203F03F031E
:10290000DAB2BB681A70FB69DAB27B681A702037DA
:10291000BD4680BD9C7B0008D07B0008007C000881
:1029200080B489B000AF78600023BB6100237B6175
:102930000023FB6102233B610023FB600223BB6099
:10294000484B9B6803F00C03BB61BB69042B07D0A9
:10295000082B09D0002B3FD17B68434A1A603FE027
:102960007B68424A1A603BE03E4B5B6803F480039D
:102970009B0DFB603B4B5B6803F03F03BB60FB6858
:10298000002B0DD0394ABB68B2FBF3F2354B5968C6
:1029900047F6C0730B409B0903FB02F3FB610CE09D
:1029A000314ABB68B2FBF3F22E4B596847F6C0734D
:1029B0000B409B0903FB02F3FB612A4B5B6803F4AA
:1029C00040331B0C01335B003B61FA693B69B2FB8E
:1029D000F3F27B681A6003E07B68234A1A6000BF49
:1029E000204B9B6803F0F003BB61BB691B09BB6113
:1029F0001F4ABB6913441B78DBB27B617B681A6892
:102A00007B69DA407B685A60164B9B6803F4E0539D
:102A1000BB61BB699B0ABB61154ABB6913441B7848
:102A2000DBB27B617B685A687B69DA407B689A60BD
:102A30000C4B9B6803F46043BB61BB695B0BBB61E0
:102A40000B4ABB6913441B78DBB27B617B685A6815
:102A50007B69DA407B68DA602437BD465DF8047B29
:102A6000704700BF003802400024F40000127A00D2
:102A70000800002080B483B000AF78600B46FB7084
:102A8000FB78002B06D00949084B1A6B7B6813436F
:102A90000B6306E00549054B1A6B7B68DB4313406B
:102AA0000B630C37BD465DF8047B7047003802406D
:102AB00080B483B000AF78600B46FB70FB78002BCE
:102AC00006D00949084B1A6C7B6813430B6406E077
:102AD0000549054B1A6C7B68DB4313400B640C37CC
:102AE000BD465DF8047B70470038024080B483B077
:102AF00000AF78600B46FB70FB78002B06D00949CD
:102B0000084B5A6C7B6813434B6406E00549054B40
:102B10005A6C7B68DB4313404B640C37BD465DF851
:102B2000047B70470038024080B483B000AF786007
:102B30000B46FB70FB78002B06D00949084B1A6A3C
:102B40007B6813430B6206E00549054B1A6A7B68F4
:102B5000DB4313400B620C37BD465DF8047B7047C6
:102B60000038024080B586B004AF00237B6000F0DF
:102B7000CFFA134B1B68002B0FD002230093114B8D
:102B8000019300230293002303930F480F494FF44E
:102B90008272002300F074FB78607B68002B09D1FF
:102BA0004FF0500383F31188BFF36F8FBFF34F8F44
:102BB0003B60FEE77B6818460837BD4680BD00BF16
:102BC0003C01002040010020752D0008347C0008E5
:102BD00080B588B000AFF860B9607A603B600023D0
:102BE000FB61434B1B68002B7DD0BB683B617B685E
:102BF0007B61FB68BB61BB68052B1CDC01F0A2FAA2
:102C00000346022B0BD13A4B1A6807F1100310460A
:102C10001946BA6A002302F08BFAF86116E0344BC9
:102C20001A6807F11003104619460022002302F02B
:102C30007FFAF8610AE02E4B1A6807F1100310467C
:102C400019463A68002302F0F5FBF861BB68002BD7
:102C500049DDBB68042B0FD1FB69012B01D1B422E4
:102C600000E0BD22FB689B6ADBB2104605211A46D4
:102C70007B68FDF787FC36E0BB68052B20D1FB693C
:102C8000012B1DD1FB689B6ADBB2B52005211A46DA
:102C9000FDF7D6FBFB689B6ADBB218460521FDF702
:102CA00073FEFB689B6ADBB218460521FDF7BEFE8A
:102CB000FB689B6ADBB205201946FFF7A5FA12E014
:102CC000BB6803F1B002FB69012B01D1002300E0D6
:102CD000092313441A46FB689B6ADBB210460521A0
:102CE0001A46FDF7ADFBFB6918462037BD4680BD8F
:102CF0003C01002080B588B002AF786039601C4B81
:102D00001B68DB68DB687B617B690433184601F074
:102D1000F9FC7B69DB69012B22D17B699A697B68AD
:102D20001344786919463A687B6800F0B9F803469D
:102D3000012B15D100230093786900217A680023C4
:102D4000FFF746FF38613B69002B09D14FF0500374
:102D500083F31188BFF36F8FBFF34F8FFB60FEE7E4
:102D60007B695B6A786998471837BD4680BD00BFAC
:102D70003401002080B584B000AF786007F108030B
:102D8000184600F049F8F860BB68F868194600F08A
:102D900003F800F0C7F8F1E780B584B000AF7860C1
:102DA000396000F069FC07F10803184600F058F894
:102DB000F860BB68002B25D13B68002B0AD17A68EC
:102DC000FB689A4206D800F065FC7868F968FFF75E
:102DD00091FF19E00E4B19687A68FB68D31A084610
:102DE00019463A6802F024FF00F054FC0346002B19
:102DF0000AD1084B4FF080521A60BFF34F8FBFF3D8
:102E00006F8F01E000F046FC1037BD4680BD00BF6B
:102E10003C01002004ED00E080B485B000AF786094
:102E20000E4B1B681B68002B0CBF01230023DBB279
:102E30001A467B681A607B681B68002B05D1074B1C
:102E40001B68DB681B68FB6001E00023FB60FB681C
:102E500018461437BD465DF8047B704734010020E6
:102E600080B584B000AF786000F0B0FCF8600B4B28
:102E70001B68FA689A4205D200F0EAF87B680122E2
:102E80001A6002E07B6800221A60044AFB68136043
:102E9000FB6818461037BD4680BD00BF44010020C6
:102EA00080B586B000AFF860B9607A603B600023FF
:102EB0007B61FB68BA685A60FB68FA681A61BA6895
:102EC0007B689A4212D87A683B68D21AFB689B6981
:102ED0009A4202D301237B611BE0104B1A68FB6806
:102EE00004331046194601F0D5FB12E07A683B68BE
:102EF0009A4206D2BA683B689A4202D301237B61A8
:102F000007E0074B1A68FB6804331046194601F0C6
:102F1000C1FB7B6918461837BD4680BD38010020CB
:102F20003401002080B58CB002AF7DE0BB68002B7F
:102F30007ADB3B697B627B6A5B69002B04D07B6A2E
:102F40000433184601F0DEFB3B1D1846FFF788FFEF
:102F50003862BB68092B66D801A252F823F000BF83
:102F6000892F0008892F0008892F000829300008C0
:102F7000E72F00081F300008892F0008892F00085C
:102F800029300008E72F0008FA687B6A9B691A4419
:102F9000FB68786A11463A6AFFF782FF0346012B05
:102FA00020D17B6A5B6A786A98477B6ADB69012B70
:102FB00018D1FA687B6A9B691A4400230093786AE7
:102FC00000210023FFF704FEF861FB69002B09D103
:102FD0004FF0500383F31188BFF36F8FBFF34F8F10
:102FE000BB61FEE720E0FA687B6A9A617B6A9B69B5
:102FF000002B09D14FF0500383F31188BFF36F8F7B
:10300000BFF34F8F7B61FEE77B6A9A693B6A13448B
:10301000786A19463A6A3B6AFFF742FF04E0786A29
:1030200003F0D0FC00E000BF084B1A6807F108036A
:10303000104619460022002302F0D4FA0346002B62
:103040007FF474AF2837BD4680BD00BF3C0100202F
:1030500080B588B002AF44E02B4B1B68DB681B686F
:103060007B61294B1B68DB68DB683B613B69043390
:10307000184601F047FB3B695B6A386998473B6932
:10308000DB69012B2DD13B699A697B691344FB6095
:10309000FA687B699A420ED93B69FA685A603B69C3
:1030A0003A691A61184B1A683B690433104619468D
:1030B00001F0F0FA15E000230093386900217A69E5
:1030C0000023FFF785FDB860BB68002B09D14FF0E6
:1030D000500383F31188BFF36F8FBFF34F8F3B60B3
:1030E000FEE7094B1B681B68002BB5D1064B1B681C
:1030F0007B60064B1B68044A1360044A7B681360BC
:103100001837BD4680BD00BF3401002038010020C3
:1031100080B582B000AF01F073FD1A4B1B68002B25
:103120002BD1194801F066FA184801F063FA184BE0
:10313000154A1A60174B154A1A600A200C21002202
:1031400001F0CCFE02460F4B1A600E4B1B68002BA1
:1031500009D14FF0500383F31188BFF36F8FBFF392
:103160004F8F7B60FEE7074B1B68002B05D0054B9C
:103170001B681846084902F023FD01F06FFD08376F
:10318000BD4680BD3C0100200C0100202001002034
:1031900034010020380100203C7C000880B586B056
:1031A00000AF786000F012FB03463B610023FB8117
:1031B0000023FB8221E03B7B03F02003DBB2002BEA
:1031C0000CD03B7BC3F30403DBB21A4601239340CC
:1031D0009AB2FB8913439BB2FB810EE03B7BC3F3A6
:1031E0000403DBB21A46012393409BB283F0FF0332
:1031F0009AB2FB8913409BB2FB81164B1A6807F108
:103200000C03104619460022002302F0EBF9034696
:10321000002BD0D1104B1B68184600214FF0FF3215
:10322000002302F0DFF907F10E03184600F016F84C
:10323000094B1B68184600210022002301F078FF8B
:1032400064231A4607F110031846114600F022F9CC
:10325000B0E700BFA42E0120942E012080B582B0DB
:1032600000AF78607B681B88DBB274201946FDF7DD
:1032700077FF76200021FDF773FF0837BD4680BD3C
:1032800080B58CB002AFF860B9603B601346FB803C
:10329000FB68002B09D14FF0500383F31188BFF373
:1032A0006F8FBFF34F8FBB61FEE73B6B042B09D9D8
:1032B0004FF0500383F31188BFF36F8FBFF34F8F2D
:1032C0007B61FEE7FB881846B96B00F0BFFE3862F1
:1032D0003B6A002B00F0AE803B6A1A6BFB8803F15F
:1032E0008043013B9B001344FB61FB6923F0070310
:1032F000FB61FB6903F00703002B09D04FF050037B
:1033000083F31188BFF36F8FBFF34F8F3B61FEE7ED
:10331000FB880093386AB9683A6BFB6B00F096FD46
:10332000F869F9683A6801F06FFB02463B6A1A6077
:103330007B6B002B02D07B6B3A6A1A6001F060FC59
:103340004D4B1B6801334C4A13604C4B1B68002BE0
:1033500009D14A4A3B6A1360474B1B68012B0FD1C6
:1033600000F0C6FD0CE0464B1B68002B08D1434B18
:103370001B68DA6A3B6B9A4202D8404A3B6A136088
:10338000404B1B6801333F4A13603E4B1A683B6A4F
:103390001A643B6A002B28D00320FEF7FDFD03468C
:1033A0001A463B6A5A64386A02F08AFC03461A4697
:1033B0003B6A3433032011461A46FEF777FF386A1A
:1033C00002F07EFC03461A463B6ADB6ADBB203204E
:1033D00011461A46FDF792FB386A02F071FC03466B
:1033E0001B2003211A46FDF72BF8386A02F068FC0F
:1033F00003461846FCF71CFF3B6ADB6A1A460123AA
:1034000003FA02F2204B1B6813431F4A13603B6A06
:10341000DA6A13469B0013449B001C4A1A443B6A19
:1034200004331046194601F011F901237B6201F0C3
:1034300015FC07E04FF0FF337B624320032100229D
:10344000FCF7FEFF7B6A012B11D10D4B1B68002B93
:103450000DD00A4B1B68DA6A3B6B9A4207D20C4BC1
:103460004FF080521A60BFF34F8FBFF36F8F7B6AAC
:1034700018462837BD4680BD2002002048010020A4
:103480002C0200203C020020280200204C010020D9
:1034900004ED00E080B58AB000AF786039600023A9
:1034A0007B627B68002B09D14FF0500383F31188B6
:1034B000BFF36F8FBFF34F8F7B61FEE73B68002B3D
:1034C00009D14FF0500383F31188BFF36F8FBFF31F
:1034D0004F8F3B61FEE73D4B1B68002B09D04FF03F
:1034E000500383F31188BFF36F8FBFF34F8FFB60DF
:1034F000FEE700F0C1F8364B1B683B627B681A6838
:103500003B681344FB617B681A683B6A9A420BD99B
:103510007B681A68FB699A4211D9FA693B6A9A4238
:103520000DD901237B620AE07B681A68FB699A4225
:1035300003D8FA693B6A9A4201D901237B627B680E
:10354000FA691A607B6A002B2ED08820F969FDF792
:1035500005F9204B1B68184602F0B2FB03461846DB
:10356000FDF7BEFB02F0BAFB0346184602F0A8FBCB
:1035700003461846FDF7B4FB164B1B680433184688
:1035800001F0C0F80346002B0BD1124B1B68DB6A1D
:103590001A4601239340DA430F4B1B6813400E4A2F
:1035A0001360F86900F01CFD00F074F8B861BB69A5
:1035B000002B07D1094B4FF080521A60BFF34F8F99
:1035C000BFF36F8F2837BD4680BD00BF4402002087
:1035D00024020020480100202802002004ED00E021
:1035E00080B588B004AF002300930023019300232B
:1035F0000293002303931B481B4982220023FFF7F9
:103600003FFEF860FB68012B02D1FFF7ABFAF860D0
:10361000FB68012B15D14FF0500383F31188BFF3E2
:103620006F8FBFF34F8FBB60104B4FF0FF321A60AC
:103630000F4B01221A600F4B00221A6001F054FA5E
:103640000CE0FB68002B09D14FF0500383F3118885
:10365000BFF36F8FBFF34F8F7B60FEE71037BD4620
:1036600080BD00BF1D3E0008447C000840020020D1
:103670002C0200202402002080B400AF044B1B6801
:103680000133034A1360BD465DF8047B704700BFF9
:103690004402002080B584B000AF0023FB60424BA1
:1036A0001B68002B09D14FF0500383F31188BFF33F
:1036B0006F8FBFF34F8F7B60FEE701F0A1FA3A4BAB
:1036C0001B68013B384A1360374B1B68002B64D1E1
:1036D000364B1B68002B60D037E0354BDB68DB686E
:1036E000BB60BB681833184601F00CF8BB680433A4
:1036F000184601F007F8B86802F0E2FA03461846E7
:10370000FCF796FDBB68DB6A1A46012303FA02F256
:10371000284B1B681343274A1360BB68DA6A1346B9
:103720009B0013449B00244A1A44BB680433104690
:10373000194600F08BFFBB68DA6A204B1B68DB6A16
:103740009A4202D31E4B01221A60194B1B68002BB0
:10375000C3D11C4B1B68002B11D00CE000F046F8C5
:103760000346002B02D0164B01221A60154B1B6832
:10377000013B144A1360134B1B68002BEED1104B16
:103780001B68012B09D10123FB600F4B4FF08052C6
:103790001A60BFF34F8FBFF36F8F01F05FFAFB68C2
:1037A00018461037BD4680BD44020020200200208C
:1037B000E0010020280200204C01002048010020E8
:1037C000340200203002002004ED00E080B483B019
:1037D00000AF054B1B687B607B6818460C37BD4605
:1037E0005DF8047B704700BF2402002080B586B0DE
:1037F00000AF00237B615E4B1B68012B03D05D4B48
:103800001B68002B07D15C4B1B6801335A4A1360BD
:10381000002002F0C5FF564B1B68554B1B68002B60
:1038200040F09680554B1B680133544A1360534B4C
:103830001B683B613B69002B1FD1514B1B681B6808
:10384000002B09D04FF0500383F31188BFF36F8F23
:10385000BFF34F8F3B60FEE7494B1B68FB60494B52
:103860001B68474A1360474AFB681360464B1B6856
:103870000133454A136000F031FC444B1B683A6940
:103880009A4256D33E4B1B681B68002B01D1012383
:1038900000E00023002B04D03C4B4FF0FF321A60B5
:1038A00047E0374B1B68DB68DB68BB60BB685B6865
:1038B0007B603A697B689A4203D2344A7B68136022
:1038C00037E0BB680433184600F01CFFBB689B6AF6
:1038D000002B04D0BB681833184600F013FFB868FB
:1038E00002F0EEF903461846FCF7A2FCBB68DB6A5F
:1038F0001A46012303FA02F2254B1B681343244A9C
:103900001360BB68DA6A13469B0013449B00214A8C
:103910001A44BB6804331046194600F097FEBB6892
:10392000DA6A1D4B1B68DB6A9A4201D301237B6173
:10393000A8E7194B1B68DA6A164913469B00134423
:103940009B000B441B68012B07D901237B6104E01A
:10395000084B1B680133074A1360104B1B68002B90
:1039600001D001237B617B6918461837BD4680BDB5
:1039700044020020300200207402002024020020B3
:10398000D8010020DC010020380200204002002085
:10399000280200204C0100204801002034020020B1
:1039A00080B586B000AF2A4B1B68002B03D0294B93
:1039B00001221A6048E0274B00221A60264B1B6840
:1039C000FB60FB68B3FA83F3FB72FB7AC3F11F035E
:1039D0007B6122497A6913469B0013449B000B4488
:1039E0001B68002B09D14FF0500383F31188BFF3FC
:1039F0006F8FBFF34F8F7B60FEE77A6913469B00A2
:103A000013449B00154A13443B613B695B685A6849
:103A10003B695A603B695A683B6908339A4204D152
:103A20003B695B685A683B695A603B695B68DB6865
:103A30000B4A136002F052F90346184602F040F9AF
:103A400003461846FCF70AFF1837BD4680BD00BF85
:103A50004402002034020020280200204C010020F3
:103A60004801002080B584B000AF786039607B6881
:103A7000002B09D14FF0500383F31188BFF36F8FF0
:103A8000BFF34F8FBB60FEE7194B1B681833786894
:103A9000194600F0FFFD164B1B680433184600F072
:103AA00031FE0346002B0BD1114B1B68DB6A1A4613
:103AB00001239340DA430F4B1B6813400D4A1360F8
:103AC0003B68B3F1FF3F07D1094B1B6804330A4839
:103AD000194600F0BBFD07E0084B1A683B68134429
:103AE000FB60F86800F07CFA1037BD4680BD00BF6F
:103AF00048010020280200200C020020240200209F
:103B000080B586B000AFF860B9607A60FB68002BC2
:103B100009D14FF0500383F31188BFF36F8FBFF3C8
:103B20004F8F3B61FEE7334B1B681833F86819462B
:103B300000F08CFD2F4B1B680433184600F0E2FDAB
:103B40000346002B0BD12B4B1B68DB6A1A46012363
:103B50009340DA43284B1B681340274A13607B6865
:103B6000012B25D1234B1B68184602F0A9F8034608
:103B70008A2003211A46FCF763FC1E4B1B6818467B
:103B800002F09EF803461846FDF7AAF802F0A6F8E0
:103B90000346184602F094F803461846FDF7A0F8CD
:103BA000144B1B6804331548194600F04FFD1EE006
:103BB000134B1A68BB6813447B6188207969FCF752
:103BC000CDFD0C4B1B68184602F07AF803461846E8
:103BD000FDF786F802F082F80346184602F070F806
:103BE00003461846FDF77CF8786900F0F9F91837B4
:103BF000BD4680BD48010020280200200C020020A4
:103C00002402002080B586B000AF78607B68DB6856
:103C1000DB683B613B69002B09D14FF0500383F314
:103C20001188BFF36F8FBFF34F8FFB60FEE73B69D7
:103C30001833184600F066FD214B1B68002B25D178
:103C40003B690433184600F05DFD386902F038F82E
:103C500003461846FCF7ECFA3B69DB6A1A46012377
:103C600003FA02F2174B1B681343164A13603B69B1
:103C7000DA6A13469B0013449B00134A1A443B69BB
:103C800004331046194600F0E1FC05E03B691833A7
:103C90000E48194600F0DAFC3B69DA6A0C4B1B68E7
:103CA000DB6A9A4205D901237B610A4B01221A6023
:103CB00001E000237B617B6918461837BD4680BD53
:103CC00044020020280200204C010020E0010020D6
:103CD000480100203402002080B485B000AF786035
:103CE0007B68002B09D14FF0500383F31188BFF399
:103CF0006F8FBFF34F8FFB60FEE7064B1A687B6840
:103D00001A60054B1A687B685A601437BD465DF827
:103D1000047B7047380200202402002080B586B062
:103D200000AF786039607B68002B09D14FF05003F9
:103D300083F31188BFF36F8FBFF34F8FFB60FEE7F4
:103D40003B68002B09D14FF0500383F31188BFF378
:103D50006F8FBFF34F8FBB60FEE700F051FF1C4B2E
:103D60001B683B613B681B68B3F1FF3F02D1002336
:103D70007B6126E07B681A68164B1B689A4207D065
:103D80007B685A683B699A4202D801237B6118E03C
:103D90007B685B683A69D21A3B681B689A420ED20C
:103DA0003B681A687B6859683B69CB1A1A443B68C0
:103DB0001A607868FFF790FF00237B6101E0012320
:103DC0007B6100F04BFF7B6918461837BD4680BD0C
:103DD000240200203802002080B400AF034B0122EF
:103DE0001A60BD465DF8047B704700BF34020020B6
:103DF00080B485B000AF78607B68002B05D07B680D
:103E0000BB60BB685B6CFB6001E00023FB60FB6890
:103E100018461437BD465DF8047B704780B582B004
:103E200000AF786000F0A2F8064B1B68012B07D9A1
:103E3000054B4FF080521A60BFF34F8FBFF36F8F67
:103E4000F0E700BF4C01002004ED00E080B586B033
:103E500000AFF860B9607A603B6000237B6113E0DB
:103E6000BA687B6913441978FA687B691344303364
:103E70000A461A71BA687B6913441B78002B00D17B
:103E800005E07B6901337B617B69092BE8D9FB681D
:103E9000002283F83D207B68042B01D904237B603A
:103EA000FB687A68DA62FB687A689A64FB680022C9
:103EB000DA64FB680433184600F0BCFBFB68183377
:103EC000184600F0B7FBFB68FA681A617B68C3F11B
:103ED0000502FB689A61FB68FA685A62FB68002277
:103EE0001A65FB68002283F854201837BD4680BD50
:103EF00080B582B000AF00237B600CE07A68134687
:103F00009B0013449B00114A1344184600F072FBB7
:103F10007B6801337B607B68042BEFD90C4800F091
:103F200069FB0C4800F066FB0B4800F063FB0B4894
:103F300000F060FB0A4800F05DFB0A4B044A1A607F
:103F4000094B044A1A600837BD4680BD4C01002069
:103F5000B0010020C4010020E0010020F401002095
:103F60000C020020D8010020DC01002080B582B0C6
:103F700000AF28E0FFF780FB164B1B68002B0CBF3F
:103F800001230023DBB27B60FFF784FB7B68002BFF
:103F900019D100F035FE0F4BDB68DB683B603B68F6
:103FA0000433184600F0AEFB0B4B1B68013B0A4A7A
:103FB00013600A4B1B68013B084A136000F04EFE79
:103FC000386800F07BF8054B1B68002BD2D108370E
:103FD000BD4680BDF4010020200200200802002020
:103FE00080B582B000AF7860134B1B687A685A6066
:103FF000124B1B687A689A4209D2114B1A680E4B11
:104000001B6804331046194600F044FB10E00D4BCA
:104010001A68094B1B6804331046194600F03AFB36
:10402000094B1B687A689A4202D2074A7B68136080
:104030000837BD4680BD00BF480100202402002093
:10404000DC010020D80100204002002080B584B0AF
:1040500000AF03463960FB803B68002B06D1FB882C
:104060009B00184602F05EFC034600E03B68BB6024
:10407000BB68002B0ED0582002F054FCF860FB689F
:10408000002B03D0FB68BA681A6305E0B86802F039
:1040900099FC01E00023FB60FB68002B08D0FB6863
:1040A0001A6BFB889B001046A5211A4602F0E2FD20
:1040B000FB6818461037BD4680BD00BF80B582B092
:1040C00000AF78607B681B6B184602F07BFC786859
:1040D00002F078FC0837BD4680BD00BF80B483B0D5
:1040E00000AF0E4B1B681B68002B01D1012300E0C1
:1040F0000023002B04D00A4B4FF0FF321A6008E077
:10410000064B1B68DB68DB687B607B685B68044A86
:1041100013600C37BD465DF8047B7047D801002062
:104120004002002080B483B000AF054B1B687B6069
:104130007B6818460C37BD465DF8047B704700BFAE
:104140004801002080B483B000AF0B4B1B68002BEC
:1041500002D101237B6008E0084B1B68002B02D1D1
:1041600002237B6001E000237B607B6818460C37EC
:10417000BD465DF8047B70472C02002044020020FD
:1041800090B585B000AF78607B68FB607B68002BE2
:1041900000F08E80FB68DA6A474B1B68DB6A9A4244
:1041A00080F08680FB689B69002B06DB424B1B6816
:1041B000DB6AC3F10502FB689A61FB685969FB6819
:1041C000DA6A13469B0013449B003C4A134499420D
:1041D00001D1012300E00023002B43D0FB6804330E
:1041E000184600F08FFA0346002B15D1FB68DA6AF7
:1041F000324913469B0013449B000B441B68002B61
:104200000AD1FB68DB6A1A4601239340DA432C4B40
:104210001B6813402A4A1360274B1B68DA6AFB6845
:10422000DA62F86801F04CFD03461846FCF700F826
:10423000FB68DB6A1A46012303FA02F2204B1B6873
:1042400013431F4A1360FB68DA6A13469B0013444A
:104250009B001A4A1A44FB6804331046194600F0C2
:10426000F5F904E0144B1B68DA6AFB68DA62F86857
:1042700001F026FD03461C46F86801F021FD0346C7
:1042800003201946FCF776FC03468E2003212246C4
:10429000FCF778F9F86801F013FD03461A46064B5F
:1042A0001B68DB6ADBB2032011461A46FCF726FCCA
:1042B0001437BD4690BD00BF480100204C010020CE
:1042C0002802002090B587B000AF78607B683B6122
:1042D00000237B617B68002B00F096804D4B1B68B0
:1042E0003A699A4209D04FF0500383F31188BFF323
:1042F0006F8FBFF34F8FFB60FEE73B69DB6C002BDA
:1043000009D14FF0500383F31188BFF36F8FBFF3D0
:104310004F8FBB60FEE73B69DB6C5A1E3B69DA647A
:104320003B69DA6A3B699B6C9A426DD03B69DB6CF6
:10433000002B69D13B690433184600F0E3F90346CA
:10434000002B15D13B69DA6A334913469B001344AD
:104350009B000B441B68002B0AD13B69DB6A1A46A1
:1043600001239340DA432D4B1B6813402B4A136003
:10437000386901F0A5FC03461C46386901F0A0FC31
:10438000034603201946FCF7F5FB03468F20032163
:104390002246FCF7F7F8386901F092FC03461A460A
:1043A0003B699B6CDBB2032011461A46FCF7A6FB67
:1043B0003B699A6C3B69DA623B69DB6AC3F10502CF
:1043C0003B699A61386901F07BFC03461846FBF7AC
:1043D0002FFF3B69DB6A1A46012303FA02F20F4BF7
:1043E0001B6813430D4A13603B69DA6A13469B004E
:1043F00013449B00084A1A443B690433104619468B
:1044000000F024F901237B617B6918461C37BD4607
:1044100090BD00BF480100204C0100202802002070
:1044200080B400AF074B1B68002B04D0054B1B6802
:10443000DA6C0132DA64034B1B681846BD465DF83E
:10444000047B70474801002080B487B000AF7860DB
:10445000396000237B6100233B610023FB60002364
:104460007B6176E07B69012202FA03F33B613B68E2
:104470001A683B691340FB60FA683B699A4265D150
:104480007B681A687B695B00194603238B40DB431A
:104490001A407B681A607B681A683B681B7919466A
:1044A0007B695B0001FA03F31A437B681A603B687F
:1044B0001B79012B03D03B681B79022B2ED17B6823
:1044C0009A687B695B00194603238B40DB431A40E3
:1044D0007B689A607B689A683B685B7919467B6960
:1044E0005B0001FA03F31A437B689A607B685A68A1
:1044F0007B699BB2194601238B40DB431A407B68E2
:104500005A607B685B683A68927911467A6992B220
:1045100001FA02F292B21A437B685A607B68DA6849
:104520007B699BB25B00032101FA03F3DB431A4072
:104530007B68DA607B68DA683B68DB7919467B69FF
:104540005B0001FA03F31A437B68DA607B6901338D
:104550007B617B690F2B85D91C37BD465DF8047BD9
:10456000704700BF80B485B000AF78600B467B8099
:1045700013467B700023FB600023BB607B787A8846
:1045800002F0070292009340FB607B88DB089BB23D
:1045900018467B88DB089BB21A467B68083253F8C2
:1045A00022207B8803F007039B0019460F238B40D2
:1045B000DB4302EA03017B6800F1080243F82210A2
:1045C0007B88DB089BB21A467B68083253F82220AE
:1045D000FB681343BB607B88DB089BB21A467B6891
:1045E0000832B96843F822101437BD465DF8047BE1
:1045F000704700BF80B483B000AF78607B6803F180
:1046000008027B685A607B684FF0FF329A607B68D3
:1046100003F108027B68DA607B6803F108027B68BB
:104620001A617B6800221A600C37BD465DF8047B76
:10463000704700BF80B483B000AF78607B68002211
:104640001A610C37BD465DF8047B704780B485B0B5
:1046500000AF786039607B685B68FB603B68FA6834
:104660005A60FB689A683B689A60FB689B683A6886
:104670005A60FB683A689A603B687A681A617B689E
:104680001B685A1C7B681A601437BD465DF8047BB2
:10469000704700BF80B485B000AF786039603B6878
:1046A0001B68BB60BB68B3F1FF3F03D17B681B692C
:1046B000FB600CE07B680833FB6002E0FB685B6832
:1046C000FB60FB685B681A68BB689A42F6D9FB68B6
:1046D0005A683B685A603B685B683A689A603B6816
:1046E000FA689A60FB683A685A603B687A681A61AF
:1046F0007B681B685A1C7B681A601437BD465DF8DE
:10470000047B704780B485B000AF78607B681B691C
:10471000FB607B685B687A6892689A607B689B68DC
:104720007A6852685A60FB685A687B689A4203D17B
:104730007B689A68FB685A607B6800221A61FB6894
:104740001B685A1EFB681A60FB681B681846143702
:10475000BD465DF8047B704780B500AF154A154B28
:10476000D3F8883043F47003C2F88830124A124BF1
:104770001B6843F0010313600F4B00229A600E4A3E
:104780000D4B1B6823F0847323F4803313600A4BB2
:104790000A4A5A60084A084B1B6823F480231360B6
:1047A000054B0022DA6000F00BF8024B4FF000627C
:1047B0009A6080BD00ED00E0003802401030002417
:1047C00080B483B000AF00237B6000233B60424A8B
:1047D000414B1B6843F4803313603F4B1B6803F469
:1047E00000333B607B6801337B603B68002B03D167
:1047F0007B68B3F5A04FF0D1374B1B6803F400334F
:10480000002B02D001233B6001E000233B603B68AA
:10481000012B02D1304B314A5A602F4A2E4B1B6C70
:1048200043F0805313642E4A2D4B1B6843F44043DE
:104830001360294A284B9B689360274A264B9B6844
:1048400043F400439360244A234B9B6843F4A053F2
:104850009360214A204B1B6843F08073136000BFB4
:104860001D4B1B6803F00073002BF9D01C4A1C4B36
:104870001B6843F48033136000BF194B5B6803F47B
:104880008033002BF9D0164A154B1B6843F40033D4
:10489000136000BF124B5B6803F40033002BF9D0A8
:1048A000104B40F205721A600B4A0B4B9B6823F0C9
:1048B00003039360084A084B9B6843F0020393602C
:1048C00000BF054B9B6803F00C03082BF9D10C3794
:1048D000BD465DF8047B704700380240085A400727
:1048E00000700040003C024080B500AFFDF7A2F927
:1048F00080BD00BF80B586B000AF0023FB75284B9C
:104900001B68002B04D12748FDF77EFD002343E000
:10491000254B1B68002B3CD1EFF31083FB60FB6839
:104920003B610123BB60BB6883F310881F4B1B688E
:1049300001331E4A13601A4B1B6801221A6301F0EF
:10494000CDF90346184601F0BBF90346FB75FB7D24
:10495000002B10D10320FDF71FFB0346FB75FB7DE9
:1049600003201946124AFDF7A1FCFB7D03201946DE
:104970000022FCF7C3F8FB7D1846FBF76FFF0B4BDB
:104980001B68013B094A13603B697B607B6883F3CA
:104990001088034B1B681B6B18461837BD4680BD3B
:1049A000F40000204C7C0008FC000020F8000020EF
:1049B000987C000880B500AF054B1B6800221A6385
:1049C000044B1B68002B02D0024B1B68984780BD2C
:1049D000F40000204802002080B582B000AF78606B
:1049E0007B68002B04D10748FDF70EFD002304E08F
:1049F00078680021FDF7B8FC034618460837BD4625
:104A000080BD00BFD07F000880B485B000AFF860E3
:104A1000B9607A60FB68043BFB60FB684FF0807212
:104A20001A60FB68043BFB60BA68FB681A60FB68AD
:104A3000043BFB600C4AFB681A60FB68143BFB609C
:104A40007A68FB681A60FB68043BFB60FB686FF0E8
:104A500002021A60FB68203BFB60FB6818461437B3
:104A6000BD465DF8047B70476D4A000880B483B092
:104A700000AF0C4B1B68B3F1FF3F09D04FF0500360
:104A800083F31188BFF36F8FBFF34F8F7B60FEE717
:104A90004FF0500383F31188BFF36F8FBFF34F8F35
:104AA0003B60FEE72C000020064B19680868B0E860
:104AB000F04F80F30988BFF36F8F4FF0000080F351
:104AC000118870474801002006480068006880F39C
:104AD000088862B661B6BFF34F8FBFF36F8F00DFF8
:104AE00000BF000008ED00E080B586B000AF3B4B92
:104AF0001B683B4A934209D14FF0500383F311885E
:104B0000BFF36F8FBFF34F8F3B61FEE7334B1B68E3
:104B1000344A934209D14FF0500383F31188BFF315
:104B20006F8FBFF34F8FFB60FEE72F4B7B617B697D
:104B30001B78DBB2BB607B69FF221A707B691B7834
:104B4000DBB2FB71FB79DBB203F05003DAB2274B27
:104B50001A70274B07221A6009E0254B1B68013B9E
:104B6000234A1360FB79DBB25B00DBB2FB71FB799C
:104B7000DBB2DBB25BB2002BEFDB1D4B1B681B0211
:104B80001B4A13601A4B1B6803F4E063184A136056
:104B9000BB68DAB27B691A70164A164B1B6843F47D
:104BA00070031360134A134B1B6843F07043136088
:104BB00000F0CCF8104B00221A6000F0E1F80F4A28
:104BC0000E4B1B6843F040431360FFF77DFFFFF778
:104BD0004DFF002318461837BD4680BD00ED00E0AC
:104BE00071C20F4170C20F4100E400E06402002076
:104BF0006802002020ED00E02C00002034EF00E0EF
:104C000080B483B000AF4FF0500383F31188BFF33B
:104C10006F8FBFF34F8F7B600E4B1B6801330D4AC4
:104C200013600C4B1B68012B0ED10B4B1B68DBB2C6
:104C3000002B09D04FF0500383F31188BFF36F8F1F
:104C4000BFF34F8F3B60FEE70C37BD465DF8047B3A
:104C5000704700BF2C00002004ED00E080B483B05A
:104C600000AF104B1B68002B09D14FF0500383F3AA
:104C70001188BFF36F8FBFF34F8F7B60FEE7094B47
:104C80001B68013B074A1360064B1B68002B04D1CD
:104C900000233B603B6883F311880C37BD465DF809
:104CA000047B70472C000020EFF30980BFF36F8F67
:104CB000144B1A681EF0100F08BF20ED108A20E96F
:104CC000F04F10604DF8043D4FF0500080F3118814
:104CD000BFF34F8FBFF36F8FFEF762FE4FF0000000
:104CE00080F3118808BC19680868B0E8F04F1EF01E
:104CF000100F08BFB0EC108A80F30988BFF36F8FE4
:104D0000704700BF4801002080B584B000AFEFF3CA
:104D100011824FF0500383F31188BFF36F8FBFF3FD
:104D20004F8FFA60BB60FEF761FD0346002B03D096
:104D3000054B4FF080521A6000237B607B6883F341
:104D400011881037BD4680BD04ED00E080B400AF8F
:104D5000074A084B1B680849A1FB03139B09013B49
:104D60001360064B07221A60BD465DF8047B70474E
:104D700014E000E018000020D34D621010E000E0C5
:104D8000DFF80C00016841F4700101607047000019
:104D900088ED00E080B485B000AFEFF30583FB60E1
:104DA000FB680F2B13D9154AFB6813441B78FB7261
:104DB000134B1B78FA7A9A4209D24FF0500383F3CF
:104DC0001188BFF36F8FBFF34F8F7B60FEE70D4BF2
:104DD0001B6803F4E0620C4B1B689A4209D94FF040
:104DE000500383F31188BFF36F8FBFF34F8F3B6086
:104DF000FEE71437BD465DF8047B7047F0E300E042
:104E0000640200200CED00E06802002080B584B050
:104E100000AF786039607B68FB60FB68002B09D1CC
:104E20004FF0500383F31188BFF36F8FBFF34F8FA1
:104E3000BB60FEE7FFF7E4FEFB681A68FB68DB6B0C
:104E4000F968096C01FB03F31A44FB685A60FB68BC
:104E500000229A63FB681A68FB689A60FB681A680C
:104E6000FB68DB6B013BF968096C01FB03F31A4437
:104E7000FB68DA60FB684FF0FF325A64FB684FF062
:104E8000FF329A643B68002B14D1FB681B69002B2E
:104E90001AD0FB6810331846FEF7B4FE0346012B08
:104EA00012D10D4B4FF080521A60BFF34F8FBFF3FA
:104EB0006F8F09E0FB6810331846FFF79BFBFB6818
:104EC00024331846FFF796FBFFF7C8FE0123184668
:104ED0001037BD4680BD00BF04ED00E0B0B58AB01C
:104EE00000AFF860B9601346FB7100233B62FB68BA
:104EF000002B09D14FF0500383F31188BFF36F8F5C
:104F0000BFF34F8FBB61FEE7BB68002B02D10023CC
:104F10007B6205E0FB68BA6802FB03F301337B6246
:104F20007B6A5433184601F0FDFCF861FB69002BE5
:104F300053D0BB68002B03D1FB69FA691A6004E007
:104F4000FB6903F15402FB691A60FB69FA68DA63D2
:104F5000FB69BA681A64F8690121FFF757FFFB691A
:104F6000FA7983F85020F86900F09EFE03461A464D
:104F7000234B9B5C1846FDF70FF803461A46FB6966
:104F8000DA64F86900F090FE03461A461C4B9B5CFD
:104F90001833DBB21D46F86900F086FE03461A4658
:104FA000174B9C5CF86900F071FE034628462146C9
:104FB0001A46FBF745FAF86900F076FE03461A46F2
:104FC0000F4B9C5CF86900F061FE034620461946D1
:104FD0000022FBF70DFEFB693B623B6A002B09D107
:104FE0004FF0500383F31188BFF36F8FBFF34F8FE0
:104FF0007B61FEE73B6A18462837BD46B0BD00BF5F
:1050000030000020B0B584B000AF0346FB715420DF
:1050100001F088FCF860FB68002B69D0FB68002277
:105020005A60FB6800221A60FB6800229A60FB68E5
:105030000022DA60FB6800229A63FB680122DA63CF
:10504000FB6800221A64FB684FF0FF325A64FB6869
:105050004FF0FF329A64FB68FA7983F85020FB68BE
:1050600010331846FFF7C6FAFB6824331846FFF7DB
:10507000C1FAF86800F018FE03461A462B4B9B5CF9
:105080001846FCF789FF03461A46FB68DA64F8689D
:1050900000F00AFE03461A46244B9B5C1833DBB231
:1050A0001D46F86800F000FE03461A461F4B9C5C44
:1050B000F86800F0EBFD0346284621461A46FBF748
:1050C000BFF9F86800F0F0FD03461A46174B9C5CE8
:1050D000F86800F0DBFD0346204619460022FBF786
:1050E00087FDF86800210022002300F021F80BE082
:1050F0000E4B5B784033DBB21A460C4B5B781046A4
:1051000019460022FBF79CF9FB68002B09D14FF0F0
:10511000500383F31188BFF36F8FBFF34F8FBB60D2
:10512000FEE7FB6818461037BD46B0BD30000020D2
:10513000B0B58EB000AFF860B9607A603B60002314
:105140007B63FB683B633B6B002B09D14FF0500343
:1051500083F31188BFF36F8FBFF34F8FBB62FEE7FE
:10516000BB68002B03D13B6B1B6C002B01D10123CF
:1051700000E00023002B09D14FF0500383F3118886
:10518000BFF36F8FBFF34F8F7B62FEE73B68022B4D
:1051900003D13B6BDB6B012B01D1012300E000232A
:1051A000002B09D14FF0500383F31188BFF36F8FA9
:1051B000BFF34F8F3B62FEE7FEF7C4FF0346002BB1
:1051C00002D17B68002B01D1012300E00023002BDA
:1051D00009D14FF0500383F31188BFF36F8FBFF3F2
:1051E0004F8FFB61FEE7FFF70BFD3B6B9A6B3B6B51
:1051F000DB6B9A4202D33B68022B64D1386B00F020
:1052000053FD03461A46894B9B5C2033DBB21D4697
:10521000386B00F049FD03461A46844B9C5C386BA2
:1052200000F034FD0346284621461A46FBF708F9EC
:10523000386B00F039FD03461A467C4B9C5C386B9A
:1052400000F024FD03461D46386B00F02DFD03469B
:105250001A46764B9B5C022B05D03B6B9B6BDBB2FB
:105260000133DBB200E00023204629461A46FBF753
:10527000BFFC386BB9683A6800F094FBF8623B6B8E
:105280005B6A002B10D03B6B24331846FEF7BAFC48
:105290000346012B13D1664B4FF080521A60BFF3C7
:1052A0004F8FBFF36F8F0AE0FB6A002B07D0604B74
:1052B0004FF080521A60BFF34F8FBFF36F8FFFF72D
:1052C000CDFC0123ADE07B68002B1DD1FFF7C6FCB0
:1052D000386B00F0E9FC03461A46544B9B5C48339C
:1052E000DBB21D46386B00F0DFFC03461A464F4B1D
:1052F0009C5C386B00F0CAFC0346284621461A46DF
:10530000FBF79EF800238CE07B6B002B06D107F1A6
:1053100014031846FEF7E0FC01237B63FFF79EFCB5
:10532000FEF7AAF9FFF76CFC3B6B5B6CB3F1FF3F38
:1053300002D13B6B00225A643B6B9B6CB3F1FF3F85
:1053400002D13B6B00229A64FFF788FC07F114023C
:105350003B1D10461946FEF7E1FC0346002B3ED1EB
:10536000386B00F015FC0346002B32D0386B00F090
:105370009BFC03461A462D4B9B5C7033DBB21D46EB
:10538000386B00F091FC03461A46284B9C5C386B46
:1053900000F07CFC0346284621461A46FBF750F8ED
:1053A0003B6B03F110027B6810461946FEF75AFB6F
:1053B000386B00F08BFBFEF76DF90346002B2FD105
:1053C0001B4B4FF080521A60BFF34F8FBFF36F8FAC
:1053D00026E0386B00F07AFBFEF75CF903E7386BE8
:1053E00000F074FBFEF756F9386B00F05DFC0346E5
:1053F0001A460E4B9B5C4833DBB21D46386B00F0FF
:1054000053FC03461A46094B9C5C386B00F03EFC8B
:105410000346284621461A46FBF712F8002300E00F
:10542000E1E618463837BD46B0BD00BF3000002069
:1054300004ED00E0B0B58EB000AFF860B9607A60FE
:105440003B60FB683B633B6B002B09D14FF0500383
:1054500083F31188BFF36F8FBFF34F8FBB62FEE7FB
:10546000BB68002B03D13B6B1B6C002B01D10123CC
:1054700000E00023002B09D14FF0500383F3118883
:10548000BFF36F8FBFF34F8F7B62FEE73B68022B4A
:1054900003D13B6BDB6B012B01D1012300E0002327
:1054A000002B09D14FF0500383F31188BFF36F8FA6
:1054B000BFF34F8F3B62FEE7FFF76CFCEFF3118207
:1054C0004FF0500383F31188BFF36F8FBFF34F8FFB
:1054D000FA61BB61FB69FB623B6B9A6B3B6BDB6BFD
:1054E0009A4202D33B68022B54D1386B00F0DCFBAC
:1054F00003461A463A4B9B5C3033DBB21D46386B91
:1055000000F0D2FB03461A46354B9C5C386B00F02A
:10551000BDFB0346284621461A46FAF791FF386B31
:1055200000F0C2FB03461A462D4B9C5C386B00F022
:10553000ADFB03461A463B6B9B6BDBB20133DBB220
:10554000204611461A46FBF753FB386BB9683A6898
:1055500000F028FA3B6B9B6CB3F1FF3F12D13B6B21
:105560005B6A002B13D03B6B24331846FEF74AFBD3
:105570000346002B0BD07B68002B08D07B680122F0
:105580001A6004E03B6B9B6C5A1C3B6B9A640123D2
:105590007B631BE0386B00F087FB03461A46104B19
:1055A0009B5C5833DBB21D46386B00F07DFB034635
:1055B0001A460B4B9C5C386B00F068FB0346284690
:1055C00021461A46FAF73CFF00237B63FB6A7B61A6
:1055D0007B6983F311887B6B18463837BD46B0BDB5
:1055E00030000020B0B58CB000AFF860B9607A60D0
:1055F0003B600023FB62FB68BB62BB6A002B09D1E6
:105600004FF0500383F31188BFF36F8FBFF34F8FB9
:105610003B62FEE7BB68002B03D1BB6A1B6C002B0F
:1056200001D1012300E00023002B09D14FF05003EA
:1056300083F31188BFF36F8FBFF34F8FFB61FEE7DA
:10564000FEF780FD0346002B02D17B68002B01D1C1
:10565000012300E00023002B09D14FF0500383F316
:105660001188BFF36F8FBFF34F8FBB61FEE7FFF76A
:10567000C7FABB6A9B6B002B00F0A380BB6ADB6898
:105680007B62B86AB96800F0FBF93B68002B63D114
:10569000B86A00F009FB03461A46B34B9B5C2833FB
:1056A000DBB21D46B86A00F0FFFA03461A46AE4B5D
:1056B0009C5CB86A00F0EAFA0346284621461A467E
:1056C000FAF7BEFEB86A00F0EFFA03461A46A64B98
:1056D0009C5CB86A00F0DAFA03461D46B86A00F02E
:1056E000E3FA03461A46A04B9B5C022B07D100F05D
:1056F000F5FA0346184600F0E3FA034604E0BB6AF5
:105700009B6BDBB2013BDBB2204629461A46FBF716
:105710006FFABB6A9B6B5A1EBB6A9A63BB6A1B68B3
:10572000002B04D1FEF77CFE0246BB6A5A60BB6ABE
:105730001B69002B41D0BB6A10331846FEF762FA92
:105740000346012B39D1894B4FF080521A60BFF3C9
:105750004F8FBFF36F8F30E0B86A00F0A5FA0346B1
:105760001A46814B9B5C7833DBB21D46B86A00F069
:105770009BFA03461A467C4B9C5CB86A00F086FA9A
:105780000346284621461A46FAF75AFEBB6A7A6A49
:10579000DA60BB6A5B6A002B0FD0BB6A2433184601
:1057A000FEF730FA0346002B07D0704B4FF08052C3
:1057B0001A60BFF34F8FBFF36F8FFFF74FFA0123CC
:1057C000CDE07B68002B1DD1FFF748FAB86A00F0E6
:1057D0006BFA03461A46644B9B5C5033DBB21D46A2
:1057E000B86A00F061FA03461A465F4B9C5CB86ADF
:1057F00000F04CFA0346284621461A46FAF720FEE6
:105800000023ACE0FB6A002B06D107F11003184619
:10581000FEF762FA0123FB62FFF720FAFDF72CFF87
:10582000FFF7EEF9BB6A5B6CB3F1FF3F02D1BB6AD5
:1058300000225A64BB6A9B6CB3F1FF3F02D1BB6A82
:1058400000229A64FFF70AFA07F110023B1D104686
:105850001946FEF763FA0346002B5ED1B86A00F0E2
:1058600081F90346002B52D0B86A00F01DFA0346B6
:105870001A463D4B9B5C6833DBB21D46B86A00F0AC
:1058800013FA03461A46384B9C5CB86A00F0FEF9DE
:105890000346284621461A46FAF7D2FDB86A00F0B8
:1058A00003FA03461A46304B9B5C022B09D000F0EA
:1058B00015FA0346184600F003FA03461846FBF7AC
:1058C0000FFABB6A1B68002B08D1FFF799F9BB6A76
:1058D0005B681846FEF754FCFFF7C0F9BB6A03F19A
:1058E00024027B6810461946FEF7BCF8B86A00F03F
:1058F000EDF8FDF7CFFE0346002B2FD11B4B4FF0E9
:1059000080521A60BFF34F8FBFF36F8F26E0B86AE3
:1059100000F0DCF8FDF7BEFEA9E6B86A00F0D6F8A4
:10592000FDF7B8FEB86A00F0BFF903461A460E4B01
:105930009B5C5033DBB21D46B86A00F0B5F90346F4
:105940001A46094B9C5CB86A00F0A0F90346284649
:1059500021461A46FAF774FD002300E087E6184650
:105960003037BD46B0BD00BF3000002004ED00E080
:1059700080B483B000AF78607B68DB6C18460C376E
:10598000BD465DF8047B704780B483B000AF78609B
:105990007B6893F8503018460C37BD465DF8047BA1
:1059A000704700BF80B586B000AFF860B9607A601C
:1059B00000237B61FB681B6C002B0DD1FB681B680F
:1059C000002B52D1FB685B681846FEF77BFC7861C0
:1059D000FB6800225A6048E07B68002B1AD1FB6804
:1059E0009A68FB681B6C1046B9681A4601F0A8F863
:1059F000FB689A68FB681B6C1A44FB689A60FB683A
:105A00009A68FB685B689A422FD3FB681A68FB6848
:105A10009A602AE0FB68DA68FB681B6C1046B9687C
:105A20001A4601F08DF8FB68DA68FB681B6C5B4274
:105A30001A44FB68DA60FB68DA68FB681B689A4204
:105A400007D2FB685A68FB681B6C5B421A44FB6810
:105A5000DA607B68022B08D1FB689B6B002B04D0BB
:105A6000FB689B6B5A1EFB689A63FB689B6B5A1C16
:105A7000FB689A637B6918461837BD4680BD00BF36
:105A800080B582B000AF786039607B681B6C002BFA
:105A900019D07B68DA687B681B6C1A447B68DA6013
:105AA0007B68DA687B685B689A4203D37B681A6814
:105AB0007B68DA607B68DA687B681B6C3868114643
:105AC0001A4601F03DF80837BD4680BD80B582B06A
:105AD00000AF7860FFF794F814E07B685B6A002BF6
