:020000040800F2
:1000000000000320E1600008256100082561000868
:100010002561000825610008256100080000000036
:10002000000000000000000000000000B94A0008C5
:100030002561000800000000C14C0008254D0008A3
:100040002561000825610008256100082561000878
:100050002561000825610008256100082561000868
:100060002561000825610008256100082561000858
:100070002561000825610008256100082561000848
:100080002561000825610008256100082561000838
:100090002561000825610008256100082561000828
:1000A0002561000825610008256100082561000818
:1000B0002561000825610008256100082561000808
:1000C00025610008256100082561000825610008F8
:1000D00025610008256100082561000825610008E8
:1000E00025610008256100082561000825610008D8
:1000F00025610008256100082561000825610008C8
:1001000025610008256100082561000825610008B7
:1001100025610008256100082561000825610008A7
:100120002561000825610008256100082561000897
:100130002561000825610008256100082561000887
:100140002561000825610008256100082561000877
:100150002561000825610008256100082561000867
:100160002561000825610008256100082561000857
:100170002561000825610008256100082561000847
:100180002561000825610008256100082561000837
:100190002561000825610008256100082561000827
:1001A00025610008256100082561000890B484B02D
:1001B00000AF03460A46FB711346BB710023FB6088
:1001C000BB7903F003039B000F2202FA03F3FB60E9
:1001D0001649BB799B08DBB21846144ABB799B08C9
:1001E000DBB2023352F82320FB68DB431A40831C46
:1001F00041F823200D48BB799B08DBB21C460B4A13
:10020000BB799B08DBB2023352F82320F979BB7922
:1002100003F003039B0001FA03F31A43A31C40F805
:10022000232000BF1037BD4690BC70470038014006
:1002300080B588B000AF0346FB71FB79002B5AD024
:10024000304B1B68002B58D0FB790F2B03D92E485D
:1002500002F0BEF852E02D4B1B68002B03D02C4857
:1002600002F0B6F84AE0EFF310837B617B69BB6173
:100270000123BB60BB6883F31088244B1B680133E8
:10028000224A1360234B1B681B6B002B28D0FB7981
:100290002133DB10204AD35C1A46FB79213303F06B
:1002A000070342FA03F303F00103002B18D14FF6C2
:1002B000FF7002F0E3F803467B82FB797B7401F068
:1002C000D3FDF860FB68002B0AD0FB6802221A708D
:1002D000FB687A8A5A80FB687A7C5A7002F0B0F820
:1002E0000A4B1B68013B094A1360BB69FB61FB6950
:1002F00083F3108802E000BF00E000BF2037BD4656
:1003000080BD00BF00000020286D0008F80000201C
:10031000686D0008F40000205800002080B58EB001
:1003200000AFF860B9607A60414B1B68002B7AD04F
:100330007B68002B03DA7B685B427B6301E07B68B0
:100340007B63EFF31083BB62BB6AFB6201237B61BB
:100350007B6983F31088374B1B680133354A136080
:10036000354B1A687B681344334A1360304B1B6863
:100370001B6B002B4CD0314B1B78002B03D1304B27
:100380001B78002B44D1FF2002F078F8034687F851
:100390002730796B4FF6FF7000F09CF90346BB8461
:1003A00001F062FD38623B6A002B31D03B6A97F85E
:1003B00027205A703B6A00221A703B6ABA8C5A8016
:1003C00002F03EF8B9684FF6FF7000F083F903467B
:1003D000FB8300237B7701F047FDB861BB69002BED
:1003E00016D0BB69FA8B5A80BB697A7F5A70FB685A
:1003F000DBB20133DAB2BB691A70FB68DAB23B6A6E
:100400001A7002F01DF80A4B1B680B4A12681A6535
:10041000084B1B68013B074A1360FB6A3B633B6B5D
:1004200083F3108800E000BF3837BD4680BD00BFB1
:10043000F4000020F80000204800002044000020C4
:100440004600002080B58AB000AFF8600B467A60A5
:10045000FB72FB68FE2B03D9404801F0B9FF7AE03C
:10046000FB7A062B03D93E4801F0B2FF73E03D4B07
:100470001A68FB7A134493F864301A467B689A42F0
:1004800003D2394801F0A4FF65E0384B1B68002B0C
:1004900003D0374801F09CFF5DE0364B1B78002B02
:1004A00058D0EFF31083FB61FB693B6201233B6192
:1004B0003B6983F310882D4B1B6801332B4A136073
:1004C000284B1B681B6B002B39D02B4B1B78002B48
:1004D00003D12A4B1B78002B31D17B68DAB2FB7A2F
:1004E0001146184605F044FD0346002B27D1FB6852
:1004F000DB08234AD35C1A46FB6803F0070342FA81
:1005000003F303F00103002B19D14FF6FF7001F044
:10051000B5FF03467B837B687B7601F0A5FC7861A1
:100520007B69002B0BD07B697A8B5A80FB68DAB22F
:100530007B691A707B697A7E5A7001F081FF0B4BE0
:100540001B68013B094A13603B6A7B627B6A83F349
:10055000108800E000BF2837BD4680BDD86D000878
:100560000C6E0008F4000020506E0008F800002017
:10057000946E000845000020440000204600002042
:100580006000002080B58AB000AFF8607A603B6000
:100590000B46FB72FB68FE2B03D9444801F018FFA1
:1005A00080E0FB7A062B03D9414801F011FF79E086
:1005B000404B1A68FB7A134493F864301A467B6800
:1005C0009A4203D23C4801F003FF6BE03B4B1B68AF
:1005D000002B03D03A4801F0FBFE63E0EFF31083F9
:1005E000FB61FB693B6201233B613B6983F310883C
:1005F000324B1B680133314A13602E4B1B681B6B57
:10060000002B45D02F4B1B78002B41D02E4B1B7855
:10061000002B03D02D4B1B78002B39D07B68DAB22E
:10062000FB7A1146184605F0A3FC0346002B2FD198
:10063000FB68DB08264AD35C1A46FB6803F0070315
:1006400042FA03F303F00103002B21D1FF2001F054
:1006500015FF0346FB763968FF2000F03BF80346A0
:10066000BB767B687B7601F0FFFB78617B69002BB2
:100670000ED07B69FA7EDA70FB68DAB27B691A7099
:100680007B697A7E5A707B69BA7E9A7001F0D8FED7
:100690000A4B1B68013B094A13603B6A7B627B6A19
:1006A00083F310882837BD4680BD00BFCC6E00089C
:1006B000046F0008F4000020506F0008F8000020CC
:1006C000A06F0008450000204600002044000020E4
:1006D0006000002080B584B000AF786039607B682E
:1006E000FF2B09D07B684FF6FF72934204D0164867
:1006F00001F06EFE3B6823E03A687B689A4201D8BD
:100700003B681DE001F0B0FBF860FB68002B14D0E3
:10071000FB6801221A707B68DA433B6813401B0AAE
:10072000DAB2FB685A707B68DA433B6813401B0CF3
:100730009AB2FB685A8001F083FE3A687B681340E6
:1007400018461037BD4680BDD86F000880B58AB006
:1007500000AF786039600023FB847B68FE2B03D9EF
:10076000324801F035FE5DE0314B1B68002B03D0B1
:10077000304801F02DFE55E0EFF31083BB61BB69FB
:10078000FB610123FB60FB6883F31088284B1B6827
:100790000133274A1360284B1B681B6B002B37D093
:1007A000264B1B78002B33D0254B1B78002B03D016
:1007B000244B1B78002B2BD07B68DB08224AD35CB0
:1007C0001A467B6803F0070342FA03F303F00103C0
:1007D000002B1DD1FF2001F051FE0346FB75396847
:1007E0004FF6FF70FFF776FF0346FB8401F03CFBFA
:1007F00038613B69002B0BD03B69FA7D5A707B68EE
:10080000DAB23B691A703B69FA8C5A8001F018FE23
:10081000074B1B68013B064A1360FB693B623B6A5E
:1008200083F310882837BD4680BD00BF14700008D0
:10083000F800002068700008F40000204500002047
:1008400046000020440000206000002080B58AB0EF
:1008500000AF0346FB71002387F82730FB790F2B8D
:1008600003D93F4801F0B4FD77E0FB792133DB1079
:100870003C4AD35C1A46FB79213303F0070342FA62
:1008800003F303F00103002B06D0012387F8273080
:10089000354B01221A7002E0334B00221A70EFF33D
:1008A0001083BB61BB69FB610123FB60FB6883F3C1
:1008B00010882E4B1B6801332C4A13602C4B1B787D
:1008C000FA799A4202D1012387F82730294B1B6815
:1008D0001B6B002B02D1012387F8273097F92730B3
:1008E000002B30D14FF6FF7001F0C8FD0346FB82AC
:1008F0001F4AFB7913701E4B1B787B7501F0B4FA0D
:1009000038613B69002B1ED0194B1B781946032018
:1009100000F0A2F90346012B03D13B6907221A70AC
:1009200002E03B6906221A703B69FA8A5A803B69E9
:100930007A7D5A700E4B1B7801221946032000F075
:100940004FF901F07DFD094B1B68013B074A13601D
:10095000FB693B623B6A83F310882837BD4680BD44
:10096000A07000085800002046000020F800002079
:1009700045000020F400002090B587B000AF03468A
:100980000A46FB711346BB71BB79062B03D920487D
:1009900001F01EFD39E01F4B1A68BB79134493F830
:1009A0006430FA799A4203D91B4801F011FD2CE01A
:1009B000184B1B681B6B002B27D0FB79FB75154B65
:1009C0001C68BA79FB791146184601F071FA0346A2
:1009D0008833234404333B610021386901F0A8FCCB
:1009E0000346FB8101F040FAB860BB68002B0CD0D5
:1009F000BB790833DAB2BB681A70BB68FA7D5A70EB
:100A0000BB68FA895A8001F01BFD1C37BD4690BDBA
:100A1000E4700008F40000203471000890B585B03F
:100A200000AF03460A46FB711346BB71BB79062B28
:100A300003D92B4801F0CCFC4FE02A4B1A68BB7954
:100A4000134493F86430FA799A4203D9264801F0A6
:100A5000BFFC42E0234B1B681B6B002B3DD001F019
:100A600003FAF860FB68002B37D0BB79032B17D152
:100A70001C4B1C68BA79FB791146184601F018FA2C
:100A800003461946174B1A68BB79134493F86C3028
:100A90000B440133234493F88C20FB685A7015E013
:100AA000104B1C68BA79FB791146184601F000FA20
:100AB000034619460B4B1A68BB79134493F86C3004
:100AC0000B44234493F88C20FB685A70BB79103395
:100AD000DAB2FB681A7001F0B3FC1437BD4690BD62
:100AE00080710008F4000020D871000890B583B030
:100AF00000AF0346FB710B46BB7113467B71FB795C
:100B0000062B03D9144801F063FC22E0134B1A684A
:100B1000FB79134493F86430BA799A4203D91048A8
:100B200001F056FC15E00D4B1C68FA79BB791146B3
:100B3000184601F0BDF903461946084B1A68FB79BF
:100B4000134493F86C300B44013323447A7983F8CF
:100B50008C200C37BD4690BD28720008F4000020A0
:100B60007072000890B583B000AF03460A46FB716F
:100B70001346BB71FB79062B04D9164801F028FCFB
:100B8000002322E0144B1A68FB79134493F8643075
:100B9000BA799A4204D9114801F01AFC002314E0F2
:100BA0000D4B1C68FA79BB791146184601F080F9A3
:100BB00003461946084B1A68FB79134493F86C30C6
:100BC0000B440133234493F88C3018460C37BD4650
:100BD00090BD00BFB0720008F40000200C73000844
:100BE00090B583B000AF0346FB710B46BB71134653
:100BF0007B71FB79062B03D9144801F0E9FB21E056
:100C0000134B1A68FB79134493F86430BA799A420B
:100C100003D9104801F0DCFB14E00D4B1C68FA7995
:100C2000BB791146184601F043F903461946084BB3
:100C30001A68FB79134493F86C300B4423447A7997
:100C400083F88C200C37BD4690BD00BF8873000828
:100C5000F4000020CC73000890B583B000AF0346C9
:100C60000A46FB711346BB71FB79062B04D9154864
:100C700001F0AEFB002321E0134B1A68FB7913440B
:100C800093F86430BA799A4204D9104801F0A0FB75
:100C9000002313E00C4B1C68FA79BB791146184607
:100CA00001F006F903461946074B1A68FB7913440D
:100CB00093F86C300B44234493F88C3018460C376F
:100CC000BD4690BD08740008F40000204C74000874
:100CD00090B583B000AF0346FB71104B1B6893F8CF
:100CE0006730FA799A4203D90D4801F071FB11E09F
:100CF0000A4B1C68FB790321184601F0D9F803461A
:100D00001A46064B1B6893F86F30134423440022A5
:100D100083F88C200C37BD4690BD00BFF400002046
:100D20008874000880B500AF00F0F2F800F036F9E2
:100D300000F010F80346002B01D0042308E000F077
:100D400023F80121012000F049F800F06FF800239A
:100D5000184680BD80B500AF00F026F803461A465D
:100D600040F611039A4209D0064B1B68002B03D1B1
:100D700000F0E6FB034602E0012300E000231846F2
:100D800080BD00BF0400002080B500AF0221032019
:100D900000F02EF9022000F009FC0021032000F0F1
:100DA00027F90023184680BD80B582B000AF00232C
:100DB000FB80002000F05EFA0346FB80FB881B02EC
:100DC000FB80012000F056FA03469AB2FB881343D9
:100DD000FB80FB8818460837BD4680BD80B584B0CF
:100DE00000AF03460A46FB711346BB710023FB7339
:100DF000042000F03FFA0346FB73BB79002B07D0B9
:100E0000FB79DB43DAB2FB7B1340DBB2FB7303E01D
:100E1000FA7BFB791343FB73FB7B1946042000F03C
:100E2000E7F8002318461037BD4680BD80B500AFF7
:100E300001210220FFF7D2FF4921202000F0D8F83D
:100E4000022000F0B3FB0121212000F0D1F80021A5
:100E50001E2000F035F89A21412000F0C9F8012148
:100E60004A2000F0C5F801214B2000F0C1F8002114
:100E70004B2000F0BDF80121562000F0B9F8012107
:100E8000582000F0B5F80321402000F0B1F8FF2110
:100E90000B2000F0ADF8094B0022DA80074BDA880E
:100EA000064B9A80054B9A88044B5A80034B5A880C
:100EB000024B1A800023184680BD00BFA02E0120DF
:100EC00080B584B000AF03460A46FB711346BB7180
:100ED0000023FB73172000F0CDF90346FB73BB79A9
:100EE000002B04D0FA7BFB791343FB7306E0FB79FC
:100EF000DB43DAB2FB7B1340DBB2FB73FB7B1946AF
:100F0000172000F075F8002318461037BD4680BD45
:100F100080B582B000AF01214FF4000001F0AEFDBA
:100F2000012140F2051001F089FD01214FF48040BC
:100F300001F0C4FD01214FF4000001F0DFFD0021AC
:100F40004FF4000001F0DAFD04220821114803F0FB
:100F500005FB04220921104803F000FB4FF48073C5
:100F60003B6002233B7102237B710123BB71002391
:100F7000FB713B461946074803F062FA4FF40073D1
:100F80003B603B461946044803F05AFA00BF083755
:100F9000BD4680BD000002400008024080B584B01C
:100FA00000AF114B1B889BB203F00103002B17D13C
:100FB0000023BB804BF6FF73FB8000233B814FF483
:100FC00080637B814FF48043BB81084B3B603B4691
:100FD0001946054805F0E2F80121034805F0A0F99B
:100FE00000BF1037BD4680BD005C0040A0860100F8
:100FF00080B584B000AF03460A46FB711346BB714F
:101000000023FB6001214C4805F0AAF94B4B4FF43B
:1010100040521A600AE0494B1B685A1E47490A6051
:10102000002B03D100F08CFA034680E0444942488B
:1010300005F054FA0346002BEDD0002282213E48F1
:1010400005F0CEF93D4B4FF440521A600AE03B4B9D
:101050001B685A1E39490A60002B03D100F070FA50
:10106000034664E03749344805F038FA0346002B5C
:10107000EDD0314B1B8B314B4FF440521A600AE0DC
:101080002E4B1B685A1E2D490A60002B03D100F01D
:1010900057FA03464BE02C49274805F01FFA034650
:1010A000002BEDD0FB791946234805F0F9F9234BC5
:1010B0004FF440521A600AE0204B1B685A1E1F4929
:1010C0000A60002B03D100F03BFA03462FE01E49D3
:1010D000194805F003FA0346002BEDD0BB791946F9
:1010E000154805F0DDF9154B4FF440521A600AE03F
:1010F000124B1B685A1E11490A60002B03D100F0E5
:101100001FFA034613E010490B4805F0E7F90346C0
:10111000002BEDD00D49084805F0E0F90346002BFF
:10112000E6D00121044805F03BF9FB68DBB2184624
:101130001037BD4680BD00BF005C004004000020A9
:1011400001000010020000108000001004000010D8
:1011500080B582B000AF03460A46FB711346BB71EF
:1011600001213E4805F0FCF83D4B4FF440521A6017
:101170000AE03B4B1B685A1E39490A60002B03D119
:1011800000F0DEF9034664E03649344805F0A6F97C
:101190000346002BEDD0FB79002219462F4805F0BD
:1011A0001FF92F4B4FF440521A600AE02C4B1B687A
:1011B0005A1E2B490A60002B03D100F0C1F90346E7
:1011C00047E02949254805F089F90346002BEDD071
:1011D000224B1B8B224B4FF440521A600AE0204BEB
:1011E0001B685A1E1E490A60002B03D100F0A8F9A3
:1011F00003462EE01D49194805F070F90346002BFF
:10120000EDD0BB791946154805F04AF9144B4FF457
:1012100040521A600AE0124B1B685A1E10490A60BD
:10122000002B03D100F08CF9034612E00F490B4864
:1012300005F054F90346002BEDD00D49074805F0A1
:101240004DF90346002BE6D00121044805F0A8F82B
:10125000012318460837BD4680BD00BF005C004032
:1012600004000020010000100200001080000010A7
:101270000400001080B584B000AF0346FB7100236A
:10128000FB7301216B4805F06BF86B4B4FF4405238
:101290001A600AE0684B1B685A1E67490A60002BF7
:1012A00003D100F04DF90346C0E06449614805F000
:1012B00015F90346002BEDD000215E4805F0AEF88D
:1012C000002282215B4805F08BF85B4B4FF44052C3
:1012D0001A600AE0584B1B685A1E57490A60002BD7
:1012E00003D100F02DF90346A0E05549514805F01F
:1012F000F5F80346002BEDD04E4B1B8B4E4B4FF4B5
:1013000040521A600AE04C4B1B685A1E4A490A6058
:10131000002B03D100F014F9034687E04949454802
:1013200005F0DCF80346002BEDD0FB791946414867
:1013300005F0B6F8404B4FF440521A600AE03E4BBD
:101340001B685A1E3C490A60002B03D100F0F8F8D4
:1013500003466BE03B49374805F0C0F80346002BD5
:10136000EDD03949334805F0B9F80346002BE6D0F3
:101370000121304804F0F4FF2F4B4FF440521A6023
:101380000AE02D4B1B685A1E2B490A60002B03D123
:1013900000F0D6F8034649E02849264805F09EF8B3
:1013A0000346002BEDD001228221224805F018F8D7
:1013B000214B4FF440521A600AE01F4B1B685A1E23
:1013C0001D490A60002B03D100F0BAF803462DE056
:1013D0001B49184805F082F80346002BEDD0154B49
:1013E0001B8B154B4FF440521A600AE0124B1B68DE
:1013F0005A1E11490A60002B03D100F0A1F80346E0
:1014000014E012490B4805F069F80346002BEDD0B3
:101410000121084804F0C4FF064805F051F80346CE
:10142000FB730121034804F0F9FFFB7B18461037DA
:10143000BD4680BD005C004004000020010000109B
:101440000200001080000010040000104000001096
:1014500080B584B000AF0346FB710023FB7301210C
:10146000324804F07DFF324B4FF440521A600AE0DC
:101470002F4B1B685A1E2E490A60002B03D100F027
:101480005FF803464EE02B49284805F027F803464D
:10149000002BEDD00021254804F0C0FFFB7901228C
:1014A0001946224804F09CFF214B4FF440521A6029
:1014B0000AE01F4B1B685A1E1D490A60002B03D10E
:1014C00000F03EF803462DE01B49184805F006F8E9
:1014D0000346002BEDD0154B1B8B154B4FF44052A0
:1014E0001A600AE0124B1B685A1E11490A60002B51
:1014F00003D100F025F8034614E010490B4804F02E
:10150000EDFF0346002BEDD00121084804F048FF11
:10151000064804F0D5FF0346FB730121034804F09D
:101520007DFFFB7B18461037BD4680BD005C004048
:101530000400002001000010020000104000001014
:1015400080B584B000AF0121164804F029FF0121C5
:10155000144804F083FF0021124804F07FFFFFF7D6
:10156000D7FC104804F0E0FD0023BB804BF6FF736E
:10157000FB8000233B814FF480637B814FF48043E9
:10158000BB81094B3B600121064804F0C9FE3B4684
:101590001946044804F002FE002318461037BD46E1
:1015A00080BD00BF005C0040A086010080B485B013
:1015B00000AF78600023FB607B68084A02FB03F3FE
:1015C000FB6002E0FB68013BFB60FB68002BF9D18C
:1015D00000BF1437BD465DF8047B7047A08601004C
:1015E00080B594B000AF786002F0ECF803467B64FD
:1015F0000023A7F84E300023A7F84C3000237B814E
:10160000012005F0A9F940E097F83C30C3F304034A
:10161000DBB21A46012393409AB2B7F84E30134317
:101620009BB2A7F84E3097F83C3003F02003DBB2B2
:10163000002B0ED097F83C30C3F30403DBB21A46FC
:10164000012393409AB2B7F84C301343A7F84C30BB
:101650000FE097F83C30C3F30403DBB21A460123D2
:1016600093409BB2DB439AB2B7F84C301340A7F8D3
:101670004C3097F83C30C3F30403DBB23A6C9B0068
:1016800007F150010B4443F8442C444B186807F110
:101690003C010023002203F0B7FF0346002BB3D127
:1016A0003F4B186800234FF0FF32002103F0ACFFDE
:1016B00007F10A03184600F075F8394B1868002343
:1016C0000022002103F048FD002387F84B3054E04E
:1016D00097F84B30012202FA03F39AB2B7F84E3072
:1016E0001340A7F84830B7F84830002B40D097F89F
:1016F0004B3003F01F03DAB23B7A62F304033B7210
:10170000B7F84C2097F84B3042FA03F3DBB203F002
:101710000103DAB23B7A62F345133B727B891A46C6
:1017200097F84B3042FA03F303F001033A7AC2F31D
:101730004012D2B293421BD197F84B309B0007F175
:101740005002134453F8440C07F1080101234FF0F1
:10175000FF3203F001FD97F84B30012202FA03F348
:101760009BB2DB439AB2B7F84E301340A7F84E3025
:1017700097F84B30013387F84B3097F84B300B2BF1
:10178000A6D9012005F000F932231A4607F14403D7
:101790001146184601F07CFE32E700BFB82E01204A
:1017A000A82E012080B582B000AF78607520FFF7C9
:1017B0004FFE03469BB21B029AB27B681A807120CF
:1017C000FFF746FE034619467B681A888BB213431F
:1017D0009AB27B681A8000BF0837BD4680BD00BF43
:1017E00080B58AB000AF78605F4B1B683B62002316
:1017F00087F827300023FB73002005F0ADF80023A5
:1018000087F826300CE097F8263007F128021344B9
:10181000032203F8102C97F82630013387F826307E
:1018200097F82630022BEED9002387F8273095E071
:10183000012000F0A1F83B7F6FF304033B773B7F6F
:1018400043F020033B77494B186807F11C01012343
:101850004FF0FF3203F080FC3B7F012262F3040370
:101860003B77424B186807F11C0101234FF0FF3210
:1018700003F072FC3B7D6FF345133B753B7C6FF3CC
:1018800045133B74384B186807F1140100234FF0DF
:10189000FF3203F0B9FE344B186807F11001002342
:1018A000002203F0B1FE3B7DC3F34013DBB2DAB29A
:1018B0003B7CC3F34013DBB25B00DBB21343DBB210
:1018C000DBB2013BDBB2FB73FB7B07F12802134465
:1018D00013F8103C002B41D0FB7B07F128021A447F
:1018E00012F8102C013AD2B207F128010B4403F888
:1018F000102C3B7F022262F304033B773B7F43F0D3
:1019000020033B77194B186807F11C0101234FF0A6
:10191000FF3203F021FC144B186800234FF0FF3214
:10192000002103F071FE002005F02EF8002000F0E9
:1019300023F80F4B186807F10F0101234FF0FF3216
:1019400003F00AFC0B4B186800230022002103F06F
:101950005BFE97F82730013387F8273097F8273058
:10196000092B7FF465AF47E7C02E0120B82E012078
:10197000B02E0120CC2E012080B584B000AF0346EC
:10198000FB713B7B6FF304033B73FB7903F00103B3
:10199000DAB23B7B62F345133B73064B186807F1E1
:1019A0000C0101234FF0FF3203F0D6FB00BF1037CC
:1019B000BD4680BDBC2E012080B584B004AF0020A0
:1019C00004F09CFF012004F099FF0021002004F0A6
:1019D000F3FFFFF7A7F900217220FFF7B9FB0346D9
:1019E000002B09D06F4B01221A70002004F0B4FFC5
:1019F000012004F0C9FF08E06A4B00221A700020A1
:101A000004F0C2FF012004F0A7FF674B00221A80F8
:101A1000664B00221A8002F06DFF02F071FF052371
:101A200000220821184603F06DFA0246604B1A6046
:101A30005F4B1B68002B01D10123B0E0052300227E
:101A40000121184603F05EFA02465A4B1A60594BC0
:101A50001B68002B01D10123A1E0002201210120FC
:101A600003F050FA0246544B1A60534B1B68002B8C
:101A700001D1012393E000220121012003F042FA69
:101A800002464E4B1A604D4B1B68002B01D10123BF
:101A900085E000220121012003F034FA0246484B80
:101AA0001A60474B1B68002B01D1012377E000220D
:101AB0000121022003F026FA0246424B1A60414BF4
:101AC0001B68002B01D1012369E0002201210120C4
:101AD00003F018FA02463C4B1A603B4B1B68002B84
:101AE00001D101235BE000220121012003F00AFA69
:101AF0000246364B1A60354B1B68002B01D101237F
:101B00004DE000220121012003F0FCF90246304B98
:101B10001A602F4B1B68002B01D101233FE00120ED
:101B200003F084FA02462B4B1A602A4B1B68002BE9
:101B300001D1012333E00023039300230293002308
:101B4000019304230093002380222349234801F0BA
:101B500099FB0023039300230293002301930523A1
:101B60000093002380221E491E4801F08BFB0023B6
:101B70000393002302930023019301230093002386
:101B800080221949194801F07DFB194802F02CFF09
:101B900003461A46174B1A8001F020FDFEE718464F
:101BA000BD4680BD54000020520000204E000020A1
:101BB000B82E0120BC2E0120C42E0120B42E0120FD
:101BC000C82E0120C02E0120B02E0120CC2E0120D5
:101BD000AC2E0120A82E0120D8740008E1150008C1
:101BE000E874000861310008FC740008E11700087F
:101BF00010750008D02E012080B500AF7D4B1A680B
:101C00007D4B1B6813447D4A13607D4B7D4A1A60EF
:101C10007B4B1B68002B03D17B4800F0D9FBE8E02D
:101C2000774B1B68002B03D1784800F0D1FBE0E034
:101C3000734B1B6844F2C0620021184604F0A2FFF7
:101C40006F4B1B6800221A706D4B1B6801225A7083
:101C50006B4B1B6802229A70694B1B680322DA7077
:101C6000674B1B6870221A71654B1B6871225A7191
:101C7000634B1B6872229A71614B1B687322DA7185
:101C80005F4B1B68F0221A725D4B1B68F1225A727F
:101C90005B4B1B68F2229A72594B1B68F322DA7273
:101CA000574B1B6841F6A1229A81554B1B680422B1
:101CB0009A73534B1B680022DA73514B1B6844F232
:101CC000C0621A614E4B1B684FF47A629A614C4BAA
:101CD0001B684FF0F0325A65494B1B6800229A6529
:101CE00004F012F8464B1B684FF0F132C3F824247D
:101CF000434B1B684FF44872C3F82824404B1B68C1
:101D00000122C3F82C243E4B1B6803F5FA634FF005
:101D10007E521A603A4B1B684FF0F232C3F8D82754
:101D2000374B1B6803F2DC7350223949184604F024
:101D3000C7FF334B1B684FF0F332C3F82C28304BEE
:101D40001B6803F58D4334330A221A702C4B1B6831
:101D500003F58D4335330B221A70294B1B6803F5AD
:101D60008D4336330C221A70254B1B6803F58D43C7
:101D700037330D221A70224B1B6803F58D4338331D
:101D800071221A701E4B1B6803F58D433933722282
:101D90001A701B4B1B6803F58D433A3373221A707C
:101DA000174B1B6803F58D433B3374221A70144B99
:101DB0001B6803F58D433C33F1221A70104B1B68EE
:101DC00003F58D433D33F2221A700D4B1B6803F56A
:101DD0008D433E33F3221A70094B1B6803F58D4384
:101DE0003F33F4221A7004F033F800F013F804F0D3
:101DF0001BFC80BD041000E08C02002094750120C3
:101E0000F4000020D42E0120147500085475000839
:101E10007C75000880B582B000AF114B1B683B6039
:101E20003B681B78002B13D100237B600CE03A68E1
:101E30007B68134439687A680A4412780132D2B256
:101E40001A707B6801337B607B680B2BEFD902E053
:101E5000044800F0BDFA00BF0837BD4680BD00BF92
:101E6000F40000209075000880B500AF0E4B1B6891
:101E70001B6B002B01D1002313E00B4B1B68DB69AC
:101E8000B3F57A6F04D3094800F0A2FA002308E002
:101E9000054B1A68044B1B68DB699B0003F5036361
:101EA0001344184680BD00BFF4000020BC75000834
:101EB00080B582B000AF03460A46FB711346BB7182
:101EC000BB79062B04D9224800F082FA00233AE0BD
:101ED000FB79002B08D01F4B1A68BB79134493F889
:101EE0006430FA799A4204D91B4800F071FA002351
:101EF00029E0BB79062B22D8FB79002B1FD0154B8C
:101F00001A68BB79134493F86430FA799A4216D868
:101F1000104B1A68BB793C335B0013449A880D4B15
:101F20001968BB790B4493F8743099B2FB79013B83
:101F30009BB211FB03F39BB213449BB203E007482F
:101F400000F046FA002318460837BD4680BD00BFA2
:101F5000E4750008F4000020247600086476000888
:101F600080B584B000AF0346FB71FB79062B04D922
:101F7000934800F02DFA00231EE1FB79914A32F8D4
:101F800013301A46904B1A608F4B1B688D4A1344CE
:101F900093F83830002B14D18B4B1A688A4B1B688E
:101FA000D9B2FB79874804335B000344DB88DBB29A
:101FB000CB1ADBB20133D9B2824B13440A4683F801
:101FC0003820814B1B687F4A134493F83830FB73E9
:101FD000FB797C4A32F81320FB797A490C335B0099
:101FE0000B449B889A420AD9FB79184603F080FF7C
:101FF0000346184600F0ECF90023FB73DBE0FB79A5
:10200000704A32F81320013291B26E4A22F813104E
:10201000FB796C4A32F813301946FB79694A04336C
:102020005B001344DB88CB1ABB60FB79654A143331
:102030005B0013445B881A46BB689A4209DAFB7955
:10204000BA68D2B291B25F4A14335B0013440A46B5
:102050005A80FB79062B00F2AE8001A252F823F0E1
:102060007D200008B3200008E72000081B2100089D
:10207000B72100084F21000883210008FB7BDB0803
:10208000DBB21946FB7BDB08DBB21A464F4B9B5C8D
:10209000D8B2FB7B03F00703012202FA03F3DBB2A1
:1020A000DB43DBB202461340DBB2DAB2474B5A5491
:1020B00080E0FB7B0B33DB10FA7B0B32D210434901
:1020C0008A5CD0B2FA7B0B3202F00702012101FADE
:1020D00002F2D2B2D243D2B201460A40D2B2D1B257
:1020E0003A4AD15466E0FB7B1633DB10FA7B16329A
:1020F000D21036498A5CD0B2FA7B163202F007025F
:10210000012101FA02F2D2B2D243D2B201460A4010
:10211000D2B2D1B22D4AD1544CE0FB7B2133DB103B
:10212000FA7B2132D21029498A5CD0B2FA7B213263
:1021300002F00702012101FA02F2D2B2D243D2B276
:1021400001460A40D2B2D1B2204AD15432E0FB7BE0
:102150003133DB10FA7B3132D2101C498A5CD0B2A9
:10216000FA7B313202F00702012101FA02F2D2B207
:10217000D243D2B201460A40D2B2D1B2134AD154AC
:1021800018E0FB7B3433DB10FA7B3432D2100F497A
:102190008A5CD0B2FA7B343202F00702012101FAE4
:1021A00002F2D2B2D243D2B201460A40D2B2D1B286
:1021B000064AD15400BFFB7B18461037BD4680BD90
:1021C000A4760008840000200001002058000020B0
:1021D00080B584B000AF03460A46FB711346BB715D
:1021E000FB79062B03D91E4800F0F2F834E0BB79E6
:1021F000002B08D01B4B1A68FB79134493F864300A
:10220000BA799A4203D9184800F0E2F824E0FB7941
:10221000164A32F813305A1EFB79144904335B0016
:102220000B44DB889A4203DA114800F0D1F813E03E
:10223000FB790E4A32F81320013A91B20B4A22F888
:102240001310FB79094A32F81330FB60074AFB6828
:1022500013443833BA791A701037BD4680BD00BFB9
:10226000E8760008F40000202C77000884000020A5
:102270006C77000880B582B000AF03463A60FB710E
:102280000B46BB713B68002B03D1234800F0A0F83C
:102290003EE0FB79062B03D9204800F099F837E09F
:1022A000BB79002B03D11E4800F092F830E01D4BA3
:1022B0001A68FB79134493F86430BA799A4208D9C2
:1022C000FB79184603F014FE0346184600F080F828
:1022D0001EE0FA79BB7911461846FFF7E9FD03467F
:1022E0001A46114B1A80114B1B68002B10D10D4B55
:1022F0001A680D4B1B8888331344181D094B1A6844
:10230000FB79134493F86C301A46396804F0D8FC12
:102310000837BD4680BD00BF9C770008CC77000819
:10232000F8770008F400002004010020FC000020E1
:1023300080B588B000AF78600B467B800023FB72CD
:102340000023BB727B68002B04D11F4800F040F8CB
:10235000002334E007F10B0207F10A0319467868FD
:1023600000F07CFAEFF310833B613B697B61012352
:10237000FB60FB6883F31088144B1B680133134A1E
:102380001360B97AFA7A7B88786800F02DF90346F1
:10239000FB83FB8B002B07D1B97AFA7A7B887868AC
:1023A00000F09EF90346FB83084B1B68013B074A7C
:1023B00013607B69BB61BB6983F31088FB8B184694
:1023C0002037BD4680BD00BF24780008F8000020FB
:1023D00080B582B000AF78607B68002B03D11448D1
:1023E000FFF7F6FF21E0134B1B68002B03D11248C7
:1023F000FFF7EEFF19E00F4B1B6800221A630F4B2B
:102400001B68002B11D10D4A7B681360094B1B68B8
:1024100003F2DC70094B1B685022194604F050FC93
:10242000044B1B680122C3F8D4270837BD4680BD82
:1024300054780008F40000207C780008FC0000209C
:1024400080B500AF0C4B1B681B6B002B12D00A4BE6
:102450001B685A6901325A61074B1B68DA690132FD
:10246000DA61054B1B68DB69B3F57A6F03D302F0C1
:10247000A7FA00E000BF80BDF400002090B587B04F
:1024800000AF0346FB8000237B6100233B610023F8
:10249000FB60FB88FF2B09D0FB884FF6FF7293424D
:1024A00004D04D48FFF794FF002390E007F10C03A0
:1024B000184604F0F7F8FA68484B1B68D31A3B61DA
:1024C000FB68464A1360464B1B685B6A002B43D08F
:1024D000434B1B685A6A3B699A421DD2404B1B68AA
:1024E0003F4A1268D16A3E4A1268526A3869B0FBA4
:1024F000F2F20A44DA623A4B1968394B1B68986A5F
:10250000374B1B685A6A3B69B3FBF2F402FB04F2D7
:102510009B1A03448B6207E0314B1B68304A1268F8
:10252000916A3A690A449A622D4B1B689A6A2C4B4D
:102530001B685B6A9A4213D3294B1B68DA6A013223
:10254000DA62274B1B68264A1268916A244A12688D
:10255000526A8A1A9A6203E0214B1B68FA689A62EF
:10256000FA883B699A422CD2FFF77EFC78617B693E
:10257000002B26D0FB884FF6FF7293420BD17B696C
:10258000A9221A703B691B0C9AB27B695A807B693D
:1025900000225A7013E0FB88FF2B0DD17B69A82223
:1025A0001A703B691B0A9AB27B695A803B691B0E01
:1025B000DAB27B695A7002E00A48FFF709FFFFF7B9
:1025C0003FFF3B699AB2FB8813409BB29BB218460F
:1025D0001C37BD4690BD00BF0879000808010020E7
:1025E000F40000204879000880B584B000AF78601E
:1025F000084611461A460346FB700B46BB7013464D
:102600003B80344B1B68FA7802F56A7233F812305B
:10261000FB817B68002B04D12F48FFF7D9FE0023F4
:1026200053E0BB78002B4AD12C48FFF7D1FE0023A2
:102630004BE0284B1A68FB890233134493F830347B
:102640001A463B88DBB29A4226D1224B1A68FB8994
:102650000333134493F830349AB23B881B0A9BB27D
:102660009A4219D11B4B1A68FB89191DBB780B4480
:10267000134493F83034002B0ED1164B1A68FB89A3
:10268000043303F586631344BA787968184604F076
:10269000C7FA0346002B16D00E4B1A68FB89134469
:1026A00093F830349AB20B4B1968FB8901330B4411
:1026B00093F830349BB21B029BB21344FB81FB891D
:1026C000002BB6D100E000BFFB8918461037BD468D
:1026D00080BD00BFF40000206C790008A8790008D4
:1026E00080B584B000AF7860084611461A460346AC
:1026F000FB700B46BB7013463B800023FB817B685D
:10270000002B04D15148FFF763FE002399E0BB780A
:10271000002B04D14E48FFF75BFE002391E04D4BA8
:102720001B68D3F82C24BB7813440433B3F5487FDB
:1027300005D34948FFF74CFE0023FB8180E0454B61
:102740001A68444B1B68D3F82C3442490968F8785E
:1027500000F56A7031F81010C9B213440A4683F8C4
:1027600030243C4B1A683B4B1B68D3F82C340133A4
:1027700038490968F87800F56A7031F81010090ACC
:1027800089B2C9B213440A4683F83024314B1A681F
:10279000304B1B68D3F82C3402333988C9B2134448
:1027A0000A4683F830242B4B1A682A4B1B68D3F84F
:1027B0002C3403333988090A89B2C9B213440A4652
:1027C00083F83024234B1A68224B1B68D3F82C342F
:1027D000043303F586631344BA787968184604F025
:1027E0006FFA1C4B1A681B4B1B68D3F82C14BB7870
:1027F0000B4404331344002283F83024154B1B6828
:10280000FA7814490968D1F82C1489B202F56A7271
:1028100023F812100F4B1B680E4A1268D2F82C14C2
:10282000BA780A440532C3F82C240A4B1B68D3F843
:102830002C349AB2BB789BB2D31A9BB2053BFB8176
:10284000FB8918461037BD4680BD00BFE0790008FF
:102850001C7A0008F4000020547A000880B588B083
:1028600000AFF860B9607A600123FB610023BB61AF
:10287000FB68002B03D11948FFF7AAFD2BE0BB68CA
:10288000002B03D11648FFF7A3FD24E07B68002B43
:1028900003D11448FFF79CFD1DE0FB68002B0FD00F
:1028A00006E0FB7DBA691344BB61FB690133FB6140
:1028B000FB685A1CFA601B78FB75FB7D002BF0D17E
:1028C000BB69DBB203F03F03DAB2BB681A70FB6985
:1028D000DAB27B681A702037BD4680BD947A000852
:1028E000C87A0008F87A000880B489B000AF786030
:1028F0000023BB6100237B610023FB6102233B615A
:102900000023FB600223BB60484B9B6803F00C0371
:10291000BB61BB69042B07D0082B09D0002B3FD12A
:102920007B68434A1A603FE07B68424A1A603BE09A
:102930003E4B5B6803F480039B0DFB603B4B5B6885
:1029400003F03F03BB60FB68002B0DD0394ABB6826
:10295000B2FBF3F2354B596847F6C0730B409B0945
:1029600003FB02F3FB610CE0314ABB68B2FBF3F2FC
:102970002E4B596847F6C0730B409B0903FB02F3CB
:10298000FB612A4B5B6803F440331B0C01335B0093
:102990003B61FA693B69B2FBF3F27B681A6003E0C2
:1029A0007B68234A1A6000BF204B9B6803F0F0034A
:1029B000BB61BB691B09BB611F4ABB6913441B7820
:1029C000DBB27B617B681A687B69DA407B685A609E
:1029D000164B9B6803F4E053BB61BB699B0ABB6168
:1029E000154ABB6913441B78DBB27B617B685A686C
:1029F0007B69DA407B689A600C4B9B6803F4604308
:102A0000BB61BB695B0BBB610B4ABB6913441B78A1
:102A1000DBB27B617B685A687B69DA407B68DA608D
:102A200000BF2437BD465DF8047B70470038024084
:102A30000024F40000127A000800002080B483B063
:102A400000AF78600B46FB70FB78002B06D00A497C
:102A5000094B1A6B7B6813430B6306E00649064B70
:102A60001A6B7B68DB4313400B6300BF0C37BD461A
:102A70005DF8047B704700BF0038024080B483B02B
:102A800000AF78600B46FB70FB78002B06D00A493C
:102A9000094B1A6C7B6813430B6406E00649064B2E
:102AA0001A6C7B68DB4313400B6400BF0C37BD46D8
:102AB0005DF8047B704700BF0038024080B483B0EB
:102AC00000AF78600B46FB70FB78002B06D00A49FC
:102AD000094B5A6C7B6813434B6406E00649064B6E
:102AE0005A6C7B68DB4313404B6400BF0C37BD4618
:102AF0005DF8047B704700BF0038024080B483B0AB
:102B000000AF78600B46FB70FB78002B06D00A49BB
:102B1000094B1A6A7B6813430B6206E00649064BB1
:102B20001A6A7B68DB4313400B6200BF0C37BD465B
:102B30005DF8047B704700BF0038024080B586B066
:102B400004AF00237B6000F0C3FA134B1B68002B1B
:102B50000FD00023039300230293104B0193022311
:102B6000009300234FF482720D490E4800F08AFB57
:102B700078607B68002B09D14FF0500383F31188F4
:102B8000BFF36F8FBFF34F8F3B60FEE77B68184644
:102B90000837BD4680BD00BF3C0100204001002039
:102BA0002C7B00083D2D000880B588B000AFF86090
:102BB000B9607A603B600023FB613F4B1B68002BD0
:102BC00074D0BB683B617B687B61FB68BB61BB68A1
:102BD000052B18DC01F0B8FA0346022B09D1364B5D
:102BE000186807F110010023BA6A02F0B5FAF8611B
:102BF00012E0314B186807F110010023002202F0A7
:102C0000ABFAF86108E02C4B186807F110010023BB
:102C10003A6802F021FCF861BB68002B46DDBB6816
:102C2000042B0DD1FB69012B01D1B42000E0BD20A4
:102C3000FB689B6ADAB27B680521FDF7A3FC35E0EF
:102C4000BB68052B20D1FB69012B1DD1FB689B6A5A
:102C5000DBB21A460521B520FDF7F4FBFB689B6A41
:102C6000DBB205211846FDF787FEFB689B6ADBB2E5
:102C700005211846FDF7D2FEFB689B6ADBB21946B8
:102C80000520FFF7A5FA11E0BB6803F1B002FB696C
:102C9000012B01D1002300E0092313441846FB68EF
:102CA0009B6ADBB21A460521FDF7CCFBFB6918468F
:102CB0002037BD4680BD00BF3C01002080B588B0F4
:102CC00002AF786039601C4B1B68DB68DB687B6196
:102CD0007B690433184601F017FD7B69DB69012B22
:102CE00021D17B699A697B68D1187B683A687869D9
:102CF00000F0BAF80346012B15D1002300930023FE
:102D00007A6800217869FFF74FFF38613B69002B33
:102D100009D14FF0500383F31188BFF36F8FBFF3D6
:102D20004F8FFB60FEE77B695B6A7869984700BF5D
:102D30001837BD4680BD00BF3401002080B584B087
:102D400000AF786007F10803184600F049F8F86012
:102D5000BB681946F86800F003F800F0C7F8F1E71F
:102D600080B584B000AF7860396000F083FC07F173
:102D70000803184600F058F8F860BB68002B24D10F
:102D80003B68002B0AD17A68FB689A4206D800F0AB
:102D90007FFCF9687868FFF791FF18E00E4B186820
:102DA0007A68FB68D31A3A68194602F04FFF00F0C0
:102DB0006FFC0346002B0AD1084B4FF080521A607B
:102DC000BFF34F8FBFF36F8F01E000F061FC00BFD6
:102DD0001037BD4680BD00BF3C01002004ED00E07F
:102DE00080B485B000AF78600E4B1B681B68002B69
:102DF0000CBF01230023DBB21A467B681A607B6894
:102E00001B68002B05D1074B1B68DB681B68FB6048
:102E100001E00023FB60FB6818461437BD465DF8EF
:102E2000047B70473401002080B584B000AF786027
:102E300000F0C8FCF8600B4B1B68FA689A4205D298
:102E400000F0E6F87B6801221A6002E07B6800224D
:102E50001A60044AFB681360FB6818461037BD46C9
:102E600080BD00BF4401002080B586B000AFF8608F
:102E7000B9607A603B6000237B61FB68BA685A6086
:102E8000FB68FA681A61BA687B689A4212D87A6855
:102E90003B68D21AFB689B699A4202D301237B618B
:102EA0001BE0104B1A68FB6804331946104601F00A
:102EB000F1FB12E07A683B689A4206D2BA683B6836
:102EC0009A4202D301237B6107E0074B1A68FB6833
:102ED00004331946104601F0DDFB7B6918461837AC
:102EE000BD4680BD380100203401002080B58CB083
:102EF00002AF7AE0BB68002B77DB3B697B627B6AC1
:102F00005B69002B04D07B6A0433184601F0FCFB9C
:102F10003B1D1846FFF788FF3862BB68092B63D852
:102F200001A252F823F000BF512F0008512F0008D2
:102F3000512F0008EB2F0008AB2F0008E12F0008ED
:102F4000512F0008512F0008EB2F0008AB2F00086D
:102F5000FA687B6A9B69D118FB683A6A786AFFF75E
:102F600083FF0346012B40D17B6A5B6A786A9847EE
:102F70007B6ADB69012B38D1FA687B6A9B691A444A
:102F80000023009300230021786AFFF70DFEF8610B
:102F9000FB69002B29D14FF0500383F31188BFF355
:102FA0006F8FBFF34F8F7B61FEE7FA687B6A9A6190
:102FB0007B6A9B69002B09D14FF0500383F3118882
:102FC000BFF36F8FBFF34F8FBB61FEE77B6A9A69D8
:102FD0003B6AD1183B6A3A6A786AFFF745FF04E01A
:102FE000786A03F073FC00E000BF084B186807F133
:102FF00008010023002202F007FB0346002B7FF4A8
:1030000079AF00BF2837BD4680BD00BF3C0100201E
:1030100080B588B002AF44E02B4B1B68DB681B68AF
:103020007B61294B1B68DB68DB683B613B690433D0
:10303000184601F069FB3B695B6A386998473B6950
:10304000DB69012B2DD13B699A697B691344FB60D5
:10305000FA687B699A420ED93B69FA685A603B6903
:103060003A691A61184B1A683B69043319461046CD
:1030700001F010FB15E00023009300237A69002182
:103080003869FFF791FDB860BB68002B09D14FF09C
:10309000500383F31188BFF36F8FBFF34F8F3B60F3
:1030A000FEE7094B1B681B68002BB5D1064B1B685C
:1030B0007B60064B1B68044A1360044A7B681360FC
:1030C00000BF1837BD4680BD340100203801002004
:1030D00080B582B000AF01F09DFD1B4B1B68002B3B
:1030E0002BD11A4801F084FA194801F081FA194BE2
:1030F000164A1A60184B164A1A6000220C210A2040
:1031000001F000FF0246104B1A600F4B1B68002BAA
:1031100009D14FF0500383F31188BFF36F8FBFF3D2
:103120004F8F7B60FEE7084B1B68002B05D0064BDA
:103130001B680A49184602F051FD01F099FD00BFD5
:103140000837BD4680BD00BF3C0100200C010020B7
:10315000200100203401002038010020347B0008C9
:1031600080B584B000AF786000F02CFBF8600023DD
:10317000BB720023FB723A4B186807F10801002369
:103180004FF0FF3202F040FA3B7A03F02003DBB24B
:10319000002B0ED03B7AC3F30403DBB21A460123A3
:1031A0009340DAB2BB7ADBB21343DBB2DBB2BB7261
:1031B00035E03B7AC3F30403DBB21A4601239340A4
:1031C000DBB2DB43DAB2BB7ADBB21340DBB2DBB299
:1031D000BB7224E03B7A03F02003DBB2002B0ED05D
:1031E0003B7AC3F30403DBB21A4601239340DAB2FD
:1031F000BB7ADBB21343DBB2DBB2BB720FE03B7ACC
:10320000C3F30403DBB21A4601239340DBB2DB4372
:10321000DAB2BB7ADBB21340DBB2DBB2BB72104B6B
:10322000186807F108010023002202F0EDF90346B7
:10323000002BCFD10B4B186800234FF0FF32002139
:1032400002F0E2F907F10A03184600F00DF8054B09
:10325000186800230022002101F07EFF8BE700BFE9
:10326000BC2E0120A82E012080B582B000AF78606E
:103270007B681B7819467220FDF76AFF00BF08378C
:10328000BD4680BD80B58CB002AFF860B9603B60D0
:103290001346FB80FB68002B09D14FF0500383F3EA
:1032A0001188BFF36F8FBFF34F8F3B61FEE73B6B1E
:1032B000052B09D94FF0500383F31188BFF36F8FAB
:1032C000BFF34F8F7B61FEE7FB88B96B184600F0B8
:1032D000BFFE38623B6A002B00F0AA803B6A1A6B83
:1032E000FB8803F18043013B9B001344FB61FB69B6
:1032F00023F00703FB61FB6903F00703002B09D0F0
:103300004FF0500383F31188BFF36F8FBFF34F8FDC
:10331000BB61FEE7FB880093FB6B3A6BB968386AC8
:1033200000F090FD3A68F968F86901F075FB024613
:103330003B6A1A607B6B002B02D07B6B3A6A1A6087
:1033400001F068FC4B4B1B6801334A4A13604A4B3F
:103350001B68002B09D1484A3B6A1360454B1B6828
:10336000012B0FD100F0C2FD0CE0444B1B68002B79
:1033700008D1414B1B68DA6A3B6B9A4202D83E4A3D
:103380003B6A13603E4B1B6801333D4A13603C4B64
:103390001A683B6A1A643B6A002B26D00320FEF7AA
:1033A000DFFD03461A463B6A5A64386A02F096FC0F
:1033B000034619463B6A34331A460320FEF75AFF88
:1033C000386A02F08BFC034619463B6ADB6ADBB2C3
:1033D0001A460320FDF78AFB386A02F07FFC034699
:1033E0001A4603211B20FDF72DF8386A02F076FCFF
:1033F00003461846FCF71CFF3B6ADB6A01229A4031
:10340000204B1B6813431F4A13603B6ADA6A13465A
:103410009B0013449B001C4A1A443B6A0433194620
:10342000104601F013F901237B6201F021FC07E053
:103430004FF0FF337B62002203214320FDF702F8A7
:103440007B6A012B11D10D4B1B68002B0DD00A4B51
:103450001B68DA6A3B6B9A4207D20C4B4FF08052E2
:103460001A60BFF34F8FBFF36F8F7B6A1846283700
:10347000BD4680BD340200204801002040020020EB
:10348000500200203C0200204C01002004ED00E02E
:1034900080B58AB000AF7860396000237B627B68BA
:1034A000002B09D14FF0500383F31188BFF36F8FC6
:1034B000BFF34F8FFB60FEE73B68002B09D14FF055
:1034C000500383F31188BFF36F8FBFF34F8F3B61BE
:1034D000FEE73D4B1B68002B09D04FF0500383F3F0
:1034E0001188BFF36F8FBFF34F8F7B61FEE700F052
:1034F000C1F8364B1B683B627B681A683B68134413
:10350000FB617B681A683B6A9A420BD97B681A6830
:10351000FB699A4211D9FA693B6A9A420DD9012393
:103520007B620AE07B681A68FB699A4203D8FA69F1
:103530003B6A9A4201D901237B627B68FA691A606F
:103540007B6A002B2ED0F9698820FDF7FFF8204B0D
:103550001B68184602F0C2FB03461846FDF7B8FB8D
:1035600002F0CAFB0346184602F0B8FB03461846B1
:10357000FDF7AEFB164B1B680433184601F0C4F888
:103580000346002B0BD1124B1B68DB6A012202FAA7
:1035900003F3DA430F4B1B6813400E4A1360F869BC
:1035A00000F020FD00F074F8B861BB69002B07D172
:1035B000094B4FF080521A60BFF34F8FBFF36F8FEC
:1035C00000BF2837BD4680BD5802002038020020C9
:1035D000480100203C02002004ED00E080B588B0E6
:1035E00004AF0023039300230293002301930023DD
:1035F0000093002382221A491A48FFF743FEF8601D
:10360000FB68012B02D1FFF799FAF860FB68012BE8
:1036100015D14FF0500383F31188BFF36F8FBFF3C1
:103620004F8F7B60104B4FF0FF321A600F4B01221F
:103630001A600F4B00221A6001F060FA0CE0FB6880
:10364000002B09D14FF0500383F31188BFF36F8F24
:10365000BFF34F8FBB60FEE700BF1037BD4680BD94
:103660003C7B0008153E0008540200204002002068
:103670003802002080B400AF044B1B680133034ABA
:10368000136000BFBD465DF8047B70475802002000
:1036900080B584B000AF0023FB60414B1B68002B5A
:1036A00009D14FF0500383F31188BFF36F8FBFF33D
:1036B0004F8F7B60FEE701F0ADFA394B1B68013B91
:1036C000374A1360364B1B68002B62D1354B1B68A1
:1036D000002B5ED035E0344BDB68DB68BB60BB6839
:1036E0001833184601F010F8BB680433184601F08F
:1036F0000BF8B86802F0F2FA03461846FCF798FD9A
:10370000BB68DB6A01229A40284B1B681343274A97
:103710001360BB68DA6A13469B0013449B00244A7B
:103720001A44BB6804331946104600F08FFFBB688B
:10373000DA6A204B1B68DB6A9A4202D31E4B0122D5
:103740001A60194B1B68002BC5D11C4B1B68002B42
:1037500011D00CE000F046F80346002B02D0164BC7
:1037600001221A60154B1B68013B144A1360134B6E
:103770001B68002BEED1104B1B68012B09D10123D4
:10378000FB600F4B4FF080521A60BFF34F8FBFF3B7
:103790006F8F01F06DFAFB6818461037BD4680BD8B
:1037A0005802002034020020F40100203C020020D6
:1037B0004C01002048010020480200204402002063
:1037C00004ED00E080B483B000AF054B1B687B6064
:1037D0007B6818460C37BD465DF8047B704700BF18
:1037E0003802002080B586B000AF00237B615D4BBE
:1037F0001B68012B03D05C4B1B68002B07D15B4B74
:103800001B680133594A1360002002F04BFF554BEF
:103810001B68544B1B68002B40F09480544B1B6872
:103820000133534A1360524B1B683B613B69002BC9
:103830001FD1504B1B681B68002B09D04FF0500361
:1038400083F31188BFF36F8FBFF34F8F3B60FEE7A9
:10385000484B1B68FB60484B1B68464A1360464A4E
:10386000FB681360454B1B680133444A136000F04A
:1038700035FC434B1B683A699A4254D33D4B1B6855
:103880001B68002B01D1012300E00023002B04D092
:103890003B4B4FF0FF321A6045E0364B1B68DB684C
:1038A000DB68BB60BB685B687B603A697B689A4297
:1038B00003D2334A7B68136035E0BB680433184693
:1038C00000F022FFBB689B6A002B04D0BB68183352
:1038D000184600F019FFB86802F000FA03461846CF
:1038E000FCF7A6FCBB68DB6A01229A40254B1B68EB
:1038F0001343244A1360BB68DA6A13469B001344DF
:103900009B00214A1A44BB6804331946104600F054
:103910009DFEBB68DA6A1D4B1B68DB6A9A42ADD319
:1039200001237B61AAE7194B1B68DA6A1649134623
:103930009B0013449B000B441B68012B07D90123F8
:103940007B6104E0084B1B680133074A1360104B8E
:103950001B68002B01D001237B617B691846183757
:10396000BD4680BD5802002044020020880200208D
:1039700038020020EC010020F00100204C02002061
:10398000540200203C0200204C010020480100208D
:103990004802002080B586B000AF2A4B1B68002B80
:1039A00003D0294B01221A6048E0274B00221A60FD
:1039B000264B1B68BB60BB68B3FA83F3FB71FB79D2
:1039C000C3F11F033B6122493A6913469B0013442C
:1039D0009B000B441B68002B09D14FF0500383F36D
:1039E0001188BFF36F8FBFF34F8F7B61FEE73A699A
:1039F00013469B0013449B00154A1344FB60FB686D
:103A00005B685A68FB685A60FB685A68FB68083351
:103A10009A4204D1FB685B685A68FB685A60FB688D
:103A20005B68DB680B4A136002F066F903461846D0
:103A300002F054F903461846FCF708FF00BF183798
:103A4000BD4680BD58020020480200203C020020F4
:103A50004C0100204801002080B584B000AF7860A0
:103A600039607B68002B09D14FF0500383F3118834
:103A7000BFF36F8FBFF34F8FBB60FEE7194B1B681F
:103A800018331946786800F005FE164B1B6804339E
:103A9000184600F039FE0346002B0BD1114B1B6872
:103AA000DB6A012202FA03F3DA430F4B1B6813406F
:103AB0000D4A13603B68B3F1FF3F07D1094B1B6808
:103AC00004331946094800F0C1FD07E0084B1A68A5
:103AD0003B681344FB60F86800F084FA00BF1037BD
:103AE000BD4680BD480100203C020020200200208D
:103AF0003802002080B586B000AFF860B9607A6007
:103B0000FB68002B09D14FF0500383F31188BFF3FA
:103B10006F8FBFF34F8F3B61FEE7344B1B68183349
:103B20001946F86800F092FD304B1B6804331846C4
:103B300000F0EAFD0346002B0BD12C4B1B68DB6A1F
:103B4000012202FA03F3DA43294B1B681340284A87
:103B500013607B68012B25D1244B1B68184602F0AB
:103B6000BDF803461A4603218A20FCF76BFC1F4B65
:103B70001B68184602F0B2F803461846FDF7A8F88D
:103B800002F0BAF80346184602F0A8F803461846B1
:103B9000FDF79EF8154B1B6804331946154800F0D5
:103BA00055FD1EE0144B1A68BB6813447B617969AC
:103BB0008820FCF7CBFD0D4B1B68184602F08EF8F1
:103BC00003461846FDF784F802F096F803461846B7
:103BD00002F084F803461846FDF77AF8786900F099
:103BE00001FA00BF1837BD4680BD00BF4801002064
:103BF0003C020020200200203802002080B586B060
:103C000000AF78607B68DB68DB683B613B69002B59
:103C100009D14FF0500383F31188BFF36F8FBFF3C7
:103C20004F8FFB60FEE73B691833184600F06CFDD0
:103C3000204B1B68002B23D13B690433184600F04E
:103C400063FD386902F04AF803461846FCF7F0FABB
:103C50003B69DB6A01229A40174B1B681343164AE3
:103C600013603B69DA6A13469B0013449B00134AB6
:103C70001A443B6904331946104600F0E7FC05E09E
:103C80003B69183319460E4800F0E0FC3B69DA6ADC
:103C90000C4B1B68DB6A9A4205D901237B610A4BF6
:103CA00001221A6001E000237B617B691846183706
:103CB000BD4680BD580200203C0200204C0100207F
:103CC000F4010020480100204802002080B485B0A3
:103CD00000AF78607B68002B09D14FF0500383F36D
:103CE0001188BFF36F8FBFF34F8FFB60FEE7074B69
:103CF0001A687B681A60064B1A687B685A6000BFB6
:103D00001437BD465DF8047B704700BF4C020020AD
:103D10003802002080B586B000AF786039607B68DB
:103D2000002B09D14FF0500383F31188BFF36F8F3D
:103D3000BFF34F8FBB60FEE73B68002B09D14FF00C
:103D4000500383F31188BFF36F8FBFF34F8FFB6076
:103D5000FEE700F05FFF1C4B1B683B613B681B6884
:103D6000B3F1FF3F02D100237B6126E07B681A6834
:103D7000164B1B689A4207D07B685A683B699A4287
:103D800002D801237B6118E07B685B683A69D21A2C
:103D90003B681B689A420ED23B681A687B68596878
:103DA0003B69CB1A1A443B681A607868FFF78EFFAC
:103DB00000237B6101E001237B6100F059FF7B69F7
:103DC00018461837BD4680BD380200204C0200203E
:103DD00080B400AF034B01221A6000BFBD465DF8FE
:103DE000047B70474802002080B485B000AF786043
:103DF0007B68002B05D07B68BB60BB685B6CFB609D
:103E000001E00023FB60FB6818461437BD465DF8EF
:103E1000047B704780B582B000AF786000F0A6F8F0
:103E2000064B1B68012BF9D9054B4FF080521A60E5
:103E3000BFF34F8FBFF36F8FF0E700BF4C0100203F
:103E400004ED00E080B586B000AFF860B9607A603C
:103E50003B6000237B6112E0BA687B6913441978E8
:103E6000FA687B69134434330A461A70BA687B696E
:103E700013441B78002B06D07B6901337B617B697F
:103E8000092BE9D900E000BFFB68002283F83D2040
:103E90007B68052B01D905237B60FB687A68DA62B1
:103EA000FB687A689A64FB680022DA64FB68043372
:103EB000184600F0BDFBFB681833184600F0B8FB4D
:103EC000FB68FA681A617B68C3F10602FB689A61B5
:103ED000FB68FA685A62FB6800221A65FB680022D8
:103EE00083F8542000BF1837BD4680BD80B582B02E
:103EF00000AF00237B600CE07A6813469B001344FC
:103F00009B00124A1344184600F072FB7B68013391
:103F10007B607B68052BEFD90D4800F069FB0D48ED
:103F200000F066FB0C4800F063FB0C4800F060FBFF
:103F30000B4800F05DFB0B4B054A1A600A4B054A23
:103F40001A6000BF0837BD4680BD00BF4C0100208D
:103F5000C4010020D8010020F40100200802002044
:103F600020020020EC010020F001002080B582B08A
:103F700000AF28E0FFF77EFB174B1B68002B0CBF40
:103F800001230023DBB27B60FFF782FB7B68002B01
:103F900019D100F03FFE104BDB68DB683B603B68EB
:103FA0000433184600F0B0FB0C4B1B68013B0B4A76
:103FB00013600B4B1B68013B094A136000F058FE6D
:103FC000386800F07BF8064B1B68002BD2D100BF8D
:103FD0000837BD4680BD00BF080200203402002023
:103FE0001C02002080B582B000AF7860134B1B68C4
:103FF0007A685A60124B1B687A689A4209D2114B50
:104000001A680E4B1B6804331946104600F042FB39
:1040100010E00D4B1A68094B1B6804331946104613
:1040200000F038FB094B1B687A689A4202D2074AB3
:104030007B68136000BF0837BD4680BD4801002083
:1040400038020020F0010020EC0100205402002082
:1040500080B584B000AF03463960FB803B68002B1D
:1040600006D1FB889B00184602F0E0FB034600E007
:104070003B68BB60BB68002B0ED0582002F0D6FB1B
:10408000F860FB68002B03D0FB68BA681A6305E090
:10409000B86802F01BFC01E00023FB60FB68002B0A
:1040A00007D0FB68186BFB889B001A46A52102F01D
:1040B00069FDFB6818461037BD4680BD80B582B0EB
:1040C00000AF78607B681B6B184602F0FFFB7868D6
:1040D00002F0FCFB00BF0837BD4680BD80B483B052
:1040E00000AF0F4B1B681B68002B01D1012300E0C0
:1040F0000023002B04D00B4B4FF0FF321A6008E076
:10410000074B1B68DB68DB687B607B685B68054A84
:10411000136000BF0C37BD465DF8047B704700BFDD
:10412000EC0100205402002080B483B000AF054BA6
:104130001B687B607B6818460C37BD465DF8047BC6
:10414000704700BF4801002080B483B000AF0B4B24
:104150001B68002B02D101237B6008E0084B1B6821
:10416000002B02D102237B6001E000237B607B688F
:1041700018460C37BD465DF8047B704740020020AE
:104180005802002090B585B000AF78607B68FB6076
:104190007B68002B00F08B80FB68DA6A464B1B685B
:1041A000DB6A9A4280F08380FB689B69002B06DB08
:1041B000414B1B68DB6AC3F10602FB689A61FB682E
:1041C0005969FB68DA6A13469B0013449B003B4A1B
:1041D0001344994201D1012300E00023002B41D078
:1041E000FB680433184600F08FFA0346002B15D104
:1041F000FB68DA6A314913469B0013449B000B4469
:104200001B68002B0AD1FB68DB6A012202FA03F368
:10421000DA432B4B1B681340294A1360264B1B685B
:10422000DA6AFB68DA62F86801F058FD034618465E
:10423000FBF7FEFFFB68DB6A01229A40204B1B68FC
:1042400013431F4A1360FB68DA6A13469B0013444A
:104250009B001A4A1A44FB6804331946104600F0C2
:10426000F5F904E0144B1B68DA6AFB68DA62F86857
:1042700001F034FD03461C46F86801F02FFD0346AB
:1042800019460320FCF76EFC0346224603218E20CC
:10429000FCF778F9F86801F021FD03461946064B52
:1042A0001B68DB6ADBB21A460320FCF71FFC00BF69
:1042B0001437BD4690BD00BF480100204C010020CE
:1042C0003C02002090B587B000AF78607B683B610E
:1042D00000237B617B68002B00F093804B4B1B68B5
:1042E0003A699A4209D04FF0500383F31188BFF323
:1042F0006F8FBFF34F8FBB60FEE73B69DB6C002B1A
:1043000009D14FF0500383F31188BFF36F8FBFF3D0
:104310004F8FFB60FEE73B69DB6C5A1E3B69DA643A
:104320003B69DA6A3B699B6C9A426AD03B69DB6CF9
:10433000002B66D13B690433184600F0E5F90346CB
:10434000002B15D13B69DA6A314913469B001344AF
:104350009B000B441B68002B0AD13B69DB6A0122DE
:1043600002FA03F3DA432B4B1B681340294A13600C
:10437000386901F0B3FC03461C46386901F0AEFC15
:10438000034619460320FCF7EDFB034622460321B2
:104390008F20FCF7F7F8386901F0A0FC03461946B6
:1043A0003B699B6CDBB21A460320FCF79FFB3B6921
:1043B0009A6C3B69DA623B69DB6AC3F106023B69CE
:1043C0009A61386901F08AFC03461846FBF730FF12
:1043D0003B69DB6A01229A400E4B1B6813430D4A6E
:1043E00013603B69DA6A13469B0013449B00084A3A
:1043F0001A443B6904331946104600F027F901239B
:104400007B617B6918461C37BD4690BD4801002082
:104410004C0100203C02002080B400AF074B1B6819
:10442000002B04D0054B1B68DA6C0132DA64034BB5
:104430001B681846BD465DF8047B704748010020A4
:1044400080B487B000AF7860396000237B610023BF
:104450003B610023FB6000237B6176E001227B69E6
:1044600002FA03F33B613B681A683B691340FB6047
:10447000FA683B699A4265D17B681A687B695B0080
:10448000032101FA03F3DB431A407B681A607B685F
:104490001A683B681B7919467B695B0001FA03F3D4
:1044A0001A437B681A603B681B79012B03D03B6879
:1044B0001B79022B2ED17B689A687B695B000321F4
:1044C00001FA03F3DB431A407B689A607B689A68C1
:1044D0003B685B7919467B695B0001FA03F31A4379
:1044E0007B689A607B685A687B699BB2012101FAFC
:1044F00003F3DB431A407B685A607B685A683B6869
:104500009B7919467B699BB201FA03F39BB21A436C
:104510007B685A607B68DA687B699BB25B00032129
:1045200001FA03F3DB431A407B68DA607B68DA68E0
:104530003B68DB7919467B695B0001FA03F31A4398
:104540007B68DA607B6901337B617B690F2B85D9DE
:1045500000BF1C37BD465DF8047B704780B485B052
:1045600000AF78600B467B8013467B700023FB60B6
:104570000023BB607A787B8803F007039B0002FA74
:1045800003F3FB607B88DB089BB218467B88DB0863
:104590009BB21A467B68083253F822207B8803F0CE
:1045A00007039B000F2101FA03F3DB4302EA030137
:1045B0007B6800F1080243F822107B88DB089BB27D
:1045C0001A467B68083253F82220FB681343BB600D
:1045D0007B88DB089BB21A467B680832B96843F8CF
:1045E000221000BF1437BD465DF8047B704700BF42
:1045F00080B483B000AF78607B6803F108027B6809
:104600005A607B684FF0FF329A607B6803F10802C2
:104610007B68DA607B6803F108027B681A617B685B
:1046200000221A6000BF0C37BD465DF8047B70475E
:1046300080B483B000AF78607B6800221A6100BF4D
:104640000C37BD465DF8047B704700BF80B485B071
:1046500000AF786039607B685B68FB603B68FA6834
:104660005A60FB689A683B689A60FB689B683A6886
:104670005A60FB683A689A603B687A681A617B689E
:104680001B685A1C7B681A6000BF1437BD465DF872
:10469000047B704780B485B000AF786039603B68B8
:1046A0001B68BB60BB68B3F1FF3F03D17B681B692C
:1046B000FB600CE07B680833FB6002E0FB685B6832
:1046C000FB60FB685B681A68BB689A42F6D9FB68B6
:1046D0005A683B685A603B685B683A689A603B6816
:1046E000FA689A60FB683A685A603B687A681A61AF
:1046F0007B681B685A1C7B681A6000BF1437BD4674
:104700005DF8047B704700BF80B485B000AF78606F
:104710007B681B69FB607B685B687A6892689A605B
:104720007B689B687A6852685A60FB685A687B6845
:104730009A4203D17B689A68FB685A607B680022C2
:104740001A61FB681B685A1EFB681A60FB681B68CD
:1047500018461437BD465DF8047B704780B500AF3E
:10476000164A164BD3F8883043F47003C2F88830E9
:10477000134A134B1B6843F001031360104B0022D4
:104780009A600F4A0E4B1B6823F0847323F4803326
:1047900013600B4B0B4A5A60094A094B1B6823F400
:1047A00080231360064B0022DA6000F00DF8034B03
:1047B0004FF000629A6000BF80BD00BF00ED00E0D6
:1047C000003802401030002480B483B000AF0023D2
:1047D0007B6000233B60434A424B1B6843F48033B9
:1047E0001360404B1B6803F400333B607B6801336C
:1047F0007B603B68002B03D17B68B3F5A04FF0D101
:10480000384B1B6803F40033002B02D001233B60BC
:1048100001E000233B603B68012B02D1314B324A5F
:104820005A60304A2F4B1B6C43F0805313642F4A5D
:104830002E4B1B6843F4404313602A4A294B9B6864
:104840009360284A274B9B6843F400439360254AB2
:10485000244B9B6843F4A0539360224A214B1B686E
:1048600043F08073136000BF1E4B1B6803F000739E
:10487000002BF9D01D4A1D4B1B6843F48033136095
:1048800000BF1A4B5B6803F48033002BF9D0174A42
:10489000164B1B6843F40033136000BF134B5B6877
:1048A00003F40033002BF9D0114B40F205721A606B
:1048B0000C4A0C4B9B6823F003039360094A094B95
:1048C0009B6843F00203936000BF064B9B6803F0B4
:1048D0000C03082BF9D100BF0C37BD465DF8047BF3
:1048E000704700BF00380240085A4007007000407F
:1048F000003C024080B500AFFDF77EF900BF80BDEF
:1049000080B586B000AF0023FB75284B1B68002BD9
:1049100004D12748FDF75CFD002343E0254B1B68CD
:10492000002B3CD1EFF31083BB60BB68FB6001231D
:104930007B607B6883F310881F4B1B6801331E4A22
:1049400013601A4B1B6801221A6301F0D5F9034664
:10495000184601F0C3F90346FB75FB7D002B10D10F
:104960000320FDF7FDFA0346FB75FB7D134A19464C
:104970000320FDF77FFCFB7D002219460320FCF796
:10498000B5F8FB7D1846FBF761FF0B4B1B68013B3D
:10499000094A1360FB683B613B6983F31088034B52
:1049A0001B681B6B18461837BD4680BDF4000020FD
:1049B000447B0008FC000020F8000020907B0008E9
:1049C00080B500AF064B1B6800221A63054B1B68BD
:1049D000002B02D0034B1B68984700BF80BD00BF6F
:1049E000F40000205C02002080B582B000AF786047
:1049F0007B68002B04D10748FDF7EAFC002304E0A4
:104A000000217868FDF794FC034618460837BD4638
:104A100080BD00BFC87E000880B485B000AFF860DC
:104A2000B9607A60FB68043BFB60FB684FF0807202
:104A30001A60FB68043BFB60BA68FB681A60FB689D
:104A4000043BFB600C4AFB681A60FB68143BFB608C
:104A50007A68FB681A60FB68043BFB60FB686FF0D8
:104A600002021A60FB68203BFB60FB6818461437A3
:104A7000BD465DF8047B70477D4A000880B483B072
:104A800000AF0C4B1B68B3F1FF3F09D04FF0500350
:104A900083F31188BFF36F8FBFF34F8F3B60FEE747
:104AA0004FF0500383F31188BFF36F8FBFF34F8F25
:104AB0007B60FEE72C000020064B19680868B0E810
:104AC000F04F80F30988BFF36F8F4FF0000080F341
:104AD000118870474801002000BF00BF06480068E9
:104AE000006880F3088862B661B6BFF34F8FBFF3EA
:104AF0006F8F00DF00BF00BF08ED00E080B586B01B
:104B000000AF3B4B1B683B4A934209D14FF0500327
:104B100083F31188BFF36F8FBFF34F8FFB60FEE706
:104B2000334B1B68344A934209D14FF0500383F34F
:104B30001188BFF36F8FBFF34F8F3B61FEE72F4BA1
:104B40007B617B691B78DBB2BB607B69FF221A70DB
:104B50007B691B78DBB2FB71FB79DBB203F050039E
:104B6000DAB2274B1A70274B07221A6009E0254B4F
:104B70001B68013B234A1360FB79DBB25B00DBB2AD
:104B8000FB71FB79DBB2DBB25BB2002BEFDB1D4BC1
:104B90001B681B021B4A13601A4B1B6803F4E0637B
:104BA000184A1360BB68DAB27B691A70164A164B52
:104BB0001B6843F470031360134A134B1B6843F0E4
:104BC0007043136000F0D2F8104B00221A6000F01E
:104BD000E9F80F4A0E4B1B6843F040431360FFF7A0
:104BE0007DFFFFF74BFF002318461837BD4680BDF9
:104BF00000ED00E071C20F4170C20F4100E400E01F
:104C0000780200207C02002020ED00E02C00002033
:104C100034EF00E080B483B000AF4FF0500383F373
:104C20001188BFF36F8FBFF34F8F3B600E4B1B6834
:104C300001330D4A13600C4B1B68012B0ED10B4B3B
:104C40001B68DBB2002B09D04FF0500383F31188AF
:104C5000BFF36F8FBFF34F8F7B60FEE700BF0C3752
:104C6000BD465DF8047B70472C00002004ED00E099
:104C700080B483B000AF114B1B68002B09D14FF0FB
:104C8000500383F31188BFF36F8FBFF34F8F3B60E7
:104C9000FEE70A4B1B68013B084A1360074B1B6881
:104CA000002B04D100237B607B6883F3118800BF55
:104CB0000C37BD465DF8047B704700BF2C00002018
:104CC000EFF30980BFF36F8F144B1A681EF0100FBB
:104CD00008BF20ED108A20E9F04F10604DF8043D28
:104CE0004FF0500080F31188BFF34F8FBFF36F8FE9
:104CF000FEF750FE4FF0000080F3118808BC1968E1
:104D00000868B0E8F04F1EF0100F08BFB0EC108A32
:104D100080F30988BFF36F8F704700BF4801002000
:104D200000BF00BF80B584B000AFEFF311824FF039
:104D3000500383F31188BFF36F8FBFF34F8FBA60B7
:104D40007B60FEF74FFD0346002B03D0064B4FF070
:104D500080521A600023FB60FB6883F3118800BF58
:104D60001037BD4680BD00BF04ED00E080B400AF49
:104D7000084A094B1B680949A1FB03139B09013B26
:104D80001360074B07221A6000BFBD465DF8047B25
:104D9000704700BF14E000E018000020D34D6210FF
:104DA00010E000E0DFF80C00016841F470010160E0
:104DB000704700BF88ED00E080B485B000AFEFF32E
:104DC0000583FB60FB680F2B13D9164AFB6813445D
:104DD0001B78FB72144B1B78FA7A9A4209D24FF077
:104DE000500383F31188BFF36F8FBFF34F8F3B6086
:104DF000FEE70E4B1B6803F4E0620D4B1B689A4202
:104E000009D94FF0500383F31188BFF36F8FBFF3BD
:104E10004F8F7B60FEE700BF1437BD465DF8047B13
:104E2000704700BFF0E300E0780200200CED00E0E6
:104E30007C02002080B584B000AF786039607B6868
:104E4000FB60FB68002B09D14FF0500383F31188FE
:104E5000BFF36F8FBFF34F8FBB60FEE7FFF7DAFE44
:104E6000FB681A68FB68DB6BF968096C01FB03F3EC
:104E70001A44FB685A60FB6800229A63FB681A6850
:104E8000FB689A60FB681A68FB68DB6B013BF9689A
:104E9000096C01FB03F31A44FB68DA60FB684FF00E
:104EA000FF325A64FB684FF0FF329A643B68002B74
:104EB00014D1FB681B69002B1AD0FB68103318460D
:104EC000FEF79CFE0346012B12D10D4B4FF0805292
:104ED0001A60BFF34F8FBFF36F8F09E0FB68103389
:104EE0001846FFF785FBFB6824331846FFF780FB65
:104EF000FFF7BEFE012318461037BD4680BD00BF38
:104F000004ED00E0B0B58AB000AFF860B9601346B8
:104F1000FB7100233B62FB68002B09D14FF050036B
:104F200083F31188BFF36F8FBFF34F8F7B61FEE771
:104F3000BB68002B02D100237B6205E0FB68BA68E6
:104F400002FB03F301337B627B6A5433184601F0A2
:104F50006DFCF861FB69002B53D0BB68002B03D1BB
:104F6000FB69FA691A6004E0FB6903F15402FB690A
:104F70001A60FB69FA68DA63FB69BA681A6401218E
:104F8000F869FFF757FFFB69FA7983F85020F86951
:104F900000F098FE03461A46234B9B5C1846FCF72C
:104FA000DFFF03461A46FB69DA64F86900F08AFEFF
:104FB00003461A461C4B9B5C1833DBB21D46F8694E
:104FC00000F080FE03461A46174B9C5CF86900F01F
:104FD0006BFE03461A4621462846FBF733FAF8696A
:104FE00000F070FE03461A460F4B9C5CF86900F017
:104FF0005BFE0346002219462046FBF7F1FDFB69E4
:105000003B623B6A002B09D14FF0500383F31188B8
:10501000BFF36F8FBFF34F8FBB61FEE73B6A18464C
:105020002837BD46B0BD00BF30000020B0B584B009
:1050300000AF0346FB71542001F0F8FBF860FB68F9
:10504000002B69D0FB6800225A60FB6800221A60BE
:10505000FB6800229A60FB680022DA60FB6800228D
:105060009A63FB680122DA63FB6800221A64FB681A
:105070004FF0FF325A64FB684FF0FF329A64FB68CE
:10508000FA7983F85020FB6810331846FFF7B0FA1E
:10509000FB6824331846FFF7ABFAF86800F012FEFD
:1050A00003461A462B4B9B5C1846FCF759FF0346F8
:1050B0001A46FB68DA64F86800F004FE03461A46F4
:1050C000244B9B5C1833DBB21D46F86800F0FAFDF8
:1050D00003461A461F4B9C5CF86800F0E5FD03464A
:1050E0001A4621462846FBF7ADF9F86800F0EAFDBC
:1050F00003461A46174B9C5CF86800F0D5FD034642
:10510000002219462046FBF76BFD002300220021F8
:10511000F86800F021F80AE00E4B5B784033DBB210
:1051200018460C4B5B7800221946FBF78BF9FB689D
:10513000002B09D14FF0500383F31188BFF36F8F19
:10514000BFF34F8FBB60FEE7FB6818461037BD46C4
:10515000B0BD00BF30000020B0B58EB000AFF86029
:10516000B9607A603B6000237B63FB683B633B6B09
:10517000002B09D14FF0500383F31188BFF36F8FD9
:10518000BFF34F8FFB61FEE7BB68002B03D13B6B86
:105190001B6C002B01D1012300E00023002B09D15F
:1051A0004FF0500383F31188BFF36F8FBFF34F8F1E
:1051B0003B62FEE73B68022B03D13B6BDB6B012BB1
:1051C00001D1012300E00023002B09D14FF050034F
:1051D00083F31188BFF36F8FBFF34F8F7B62FEE7BE
:1051E000FEF7B2FF0346002B02D17B68002B01D1F2
:1051F000012300E00023002B09D14FF0500383F37B
:105200001188BFF36F8FBFF34F8FBB62FEE7FFF7CD
:1052100001FD3B6B9A6B3B6BDB6B9A4202D33B68A5
:10522000022B64D1386B00F04DFD03461A46884BC3
:105230009B5C2033DBB21D46386B00F043FD034618
:105240001A46834B9C5C386B00F02EFD03461A46D1
:1052500021462846FBF7F6F8386B00F033FD03468D
:105260001A467B4B9C5C386B00F01EFD03461D46C6
:10527000386B00F027FD03461A46754B9B5C022BEA
:1052800005D03B6B9B6BDBB20133DBB200E000234C
:105290001A4629462046FBF7A3FC3A68B968386BE2
:1052A00000F090FBF8623B6B5B6A002B10D03B6B0D
:1052B00024331846FEF7A2FC0346012B13D1654B9D
:1052C0004FF080521A60BFF34F8FBFF36F8F0AE029
:1052D000FB6A002B07D05F4B4FF080521A60BFF380
:1052E0004F8FBFF36F8FFFF7C3FC0123ABE07B68E9
:1052F000002B1DD1FFF7BCFC386B00F0E3FC03462C
:105300001A46534B9B5C4833DBB21D46386B00F0AA
:10531000D9FC03461A464E4B9C5C386B00F0C4FC2B
:1053200003461A4621462846FBF78CF800238AE0FC
:105330007B6B002B06D107F114031846FEF7C6FC61
:1053400001237B63FFF794FCFEF794F9FFF762FCFF
:105350003B6B5B6CB3F1FF3F02D13B6B00225A64A5
:105360003B6B9B6CB3F1FF3F02D13B6B00229A6415
:10537000FFF77EFC3A1D07F1140311461846FEF7AD
:10538000C9FC0346002B3ED1386B00F00FFC0346EE
:10539000002B32D0386B00F095FC03461A462C4B9C
:1053A0009B5C7033DBB21D46386B00F08BFC034610
:1053B0001A46274B9C5C386B00F076FC03461A4675
:1053C00021462846FBF73EF83B6B10337A681146BE
:1053D0001846FEF741FB386B00F086FBFEF758F9E4
:1053E0000346002B7FF413AF1A4B4FF080521A6024
:1053F000BFF34F8FBFF36F8F09E7386B00F074FB7B
:10540000FEF746F903E7386B00F06EFBFEF740F954
:10541000386B00F057FC03461A460D4B9B5C483333
:10542000DBB21D46386B00F04DFC03461A46084BB4
:105430009C5C386B00F038FC03461A46214628462F
:10544000FBF700F8002318463837BD46B0BD00BF53
:105450003000002004ED00E0B0B58EB000AFF86081
:10546000B9607A603B60FB683B633B6B002B09D102
:105470004FF0500383F31188BFF36F8FBFF34F8F4B
:10548000BB61FEE7BB68002B03D13B6B1B6C002BA1
:1054900001D1012300E00023002B09D14FF050037C
:1054A00083F31188BFF36F8FBFF34F8FFB61FEE76C
:1054B0003B68022B03D13B6BDB6B012B01D101233A
:1054C00000E00023002B09D14FF0500383F3118833
:1054D000BFF36F8FBFF34F8F3B62FEE7FFF76CFCAC
:1054E000EFF311824FF0500383F31188BFF36F8FF6
:1054F000BFF34F8F7A627B617B6ABB623B6B9A6BB7
:105500003B6BDB6B9A4202D33B68022B53D1386B67
:1055100000F0D8FB03461A463A4B9B5C3033DBB2B3
:105520001D46386B00F0CEFB03461A46354B9C5C9B
:10553000386B00F0B9FB03461A4621462846FAF7B5
:1055400081FF386B00F0BEFB03461A462D4B9C5C76
:10555000386B00F0A9FB034619463B6B9B6BDBB233
:105560000133DBB21A462046FBF73AFB3A68B968CA
:10557000386B00F027FA3B6B9B6CB3F1FF3F12D105
:105580003B6B5B6A002B13D03B6B24331846FEF752
:1055900035FB0346002B0BD07B68002B08D07B68C3
:1055A00001221A6004E03B6B9B6C5A1C3B6B9A64B3
:1055B00001237B631BE0386B00F084FB03461A4633
:1055C000104B9B5C5833DBB21D46386B00F07AFB06
:1055D00003461A460B4B9C5C386B00F065FB034698
:1055E0001A4621462846FAF72DFF00237B63BB6A43
:1055F000FB62FB6A83F311887B6B18463837BD4624
:10560000B0BD00BF30000020B0B58CB000AFF86076
:10561000B9607A603B600023FB62FB68BB62BB6AD7
:10562000002B09D14FF0500383F31188BFF36F8F24
:10563000BFF34F8FBB61FEE7BB68002B03D1BB6A92
:105640001B6C002B01D1012300E00023002B09D1AA
:105650004FF0500383F31188BFF36F8FBFF34F8F69
:10566000FB61FEE7FEF770FD0346002B02D17B686D
:10567000002B01D1012300E00023002B09D14FF0C2
:10568000500383F31188BFF36F8FBFF34F8F3B62DB
:10569000FEE7FFF7BFFABB6A9B6B002B00F0A3800D
:1056A000BB6ADB687B62B968B86A00F0F7F93B68EF
:1056B000002B63D1B86A00F005FB03461A46B24BD3
:1056C0009B5C2833DBB21D46B86A00F0FBFA034648
:1056D0001A46AD4B9C5CB86A00F0E6FA03461A46DF
:1056E00021462846FAF7AEFEB86A00F0EBFA034608
:1056F0001A46A54B9C5CB86A00F0D6FA03461D46D4
:10570000B86A00F0DFFA03461A469F4B9B5C022BF7
:1057100007D100F0F1FA0346184600F0DFFA03461D
:1057200004E0BB6A9B6BDBB2013BDBB21A46294645
:105730002046FBF755FABB6A9B6B5A1EBB6A9A63FD
:10574000BB6A1B68002B04D1FEF766FE0246BB6AEB
:105750005A60BB6A1B69002B41D0BB6A10331846E4
:10576000FEF74CFA0346012B39D1884B4FF080529B
:105770001A60BFF34F8FBFF36F8F30E0B86A00F04D
:10578000A1FA03461A46804B9B5C7833DBB21D4678
:10579000B86A00F097FA03461A467B4B9C5CB86ADD
:1057A00000F082FA03461A4621462846FAF74AFED6
:1057B000BB6A7A6ADA60BB6A5B6A002B0FD0BB6A8D
:1057C00024331846FEF71AFA0346002B07D06F4B16
:1057D0004FF080521A60BFF34F8FBFF36F8FFFF708
:1057E00047FA0123CBE07B68002B1DD1FFF740FA7D
:1057F000B86A00F067FA03461A46634B9B5C503365
:10580000DBB21D46B86A00F05DFA03461A465E4BED
:105810009C5CB86A00F048FA03461A4621462846BE
:10582000FAF710FE0023AAE0FB6A002B06D107F16D
:1058300010031846FEF74AFA0123FB62FFF718FA35
:10584000FDF718FFFFF7E6F9BB6A5B6CB3F1FF3FAA
:1058500002D1BB6A00225A64BB6A9B6CB3F1FF3F62
:1058600002D1BB6A00229A64FFF702FA3A1D07F1DF
:10587000100311461846FEF74DFA0346002B5ED181
:10588000B86A00F07DF90346002B52D0B86A00F0E8
:1058900019FA03461A463C4B9B5C6833DBB21D4643
:1058A000B86A00F00FFA03461A46374B9C5CB86A98
:1058B00000F0FAF903461A4621462846FAF7C2FDD7
:1058C000B86A00F0FFF903461A462F4B9B5C022B87
:1058D00009D000F011FA0346184600F0FFF903461C
:1058E0001846FBF7F5F9BB6A1B68002B08D1FFF7D8
:1058F00091F9BB6A5B681846FEF744FCFFF7B8F9FC
:10590000BB6A24337A6811461846FEF7A5F8B86AD0
:1059100000F0EAF8FDF7BCFE0346002B7FF4B9AEB9
:105920001A4B4FF080521A60BFF34F8FBFF36F8F47
:10593000AFE6B86A00F0D8F8FDF7AAFEA9E6B86AA3
:1059400000F0D2F8FDF7A4FEB86A00F0BBF90346F8
:105950001A460D4B9B5C5033DBB21D46B86A00F013
:10596000B1F903461A46084B9C5CB86A00F09CF9F2
:1059700003461A4621462846FAF764FD00231846D6
:105980003037BD46B0BD00BF3000002004ED00E060
:1059900080B483B000AF78607B68DB6C18460C374E
:1059A000BD465DF8047B704780B483B000AF78607B
:1059B0007B6893F8503018460C37BD465DF8047B81
:1059C000704700BF80B586B000AFF860B9607A60FC
:1059D00000237B61FB681B6C002B0DD1FB681B68EF
:1059E000002B50D1FB685B681846FEF76BFC7861B2
:1059F000FB6800225A6046E07B68002B19D1FB68E7
:105A00009868FB681B6C1A46B96801F021F8FB68BE
:105A10009A68FB681B6C1A44FB689A60FB689A687A
:105A2000FB685B689A422ED3FB681A68FB689A6031
:105A300029E0FB68D868FB681B6C1A46B96801F05E
:105A400007F8FB68DA68FB681B6C5B421A44FB686A
:105A5000DA60FB68DA68FB681B689A4207D2FB6869
:105A60005A68FB681B6C5B421A44FB68DA607B680F
:105A7000022B08D1FB689B6B002B04D0FB689B6B4F
:105A80005A1EFB689A63FB689B6B5A1CFB689A63FF
:105A90007B6918461837BD4680BD00BF80B582B00F
:105AA00000AF786039607B681B6C002B18D07B6876
:105AB000DA687B681B6C1A447B68DA607B68DA689A
:105AC0007B685B689A4203D37B681A687B68DA60FC
:105AD0007B68D9687B681B6C1A46386800F0B8FF91
