:020000040800F2
:1000000000000320FD660008416700084167000802
:1000100041670008416700084167000800000000D0
:10002000000000000000000000000000CD4F0008AC
:100030004167000800000000D5510008395200084F
:1000400041670008416700084167000841670008F0
:1000500041670008416700084167000841670008E0
:1000600041670008416700084167000841670008D0
:1000700041670008416700084167000841670008C0
:1000800041670008416700084167000841670008B0
:1000900041670008416700084167000841670008A0
:1000A0004167000841670008416700084167000890
:1000B0004167000841670008416700084167000880
:1000C0004167000841670008416700084167000870
:1000D0004167000841670008416700084167000860
:1000E0004167000841670008416700084167000850
:1000F0004167000841670008416700084167000840
:10010000416700084167000841670008416700082F
:10011000416700084167000841670008416700081F
:10012000416700084167000841670008416700080F
:1001300041670008416700084167000841670008FF
:1001400041670008416700084167000841670008EF
:1001500041670008416700084167000841670008DF
:1001600041670008416700084167000841670008CF
:1001700041670008416700084167000841670008BF
:1001800041670008416700084167000841670008AF
:10019000416700084167000841670008416700089F
:1001A00041670008416700084167000890B484B0C7
:1001B00000AF03460A46FB711346BB710023FB6088
:1001C000BB7903F003039B000F2202FA03F3FB60E9
:1001D0001649BB799B08DBB21846144ABB799B08C9
:1001E000DBB2023352F82320FB68DB431A40831C46
:1001F00041F823200D48BB799B08DBB21C460B4A13
:10020000BB799B08DBB2023352F82320F979BB7922
:1002100003F003039B0001FA03F31A43A31C40F805
:10022000232000BF1037BD4690BC70470038014006
:1002300080B588B000AF0346FB71FB79002B5AD024
:10024000304B1B68002B58D0FB790F2B03D92E485D
:1002500002F0E8F852E02D4B1B68002B03D02C482D
:1002600002F0E0F84AE0EFF310837B617B69BB6149
:100270000123BB60BB6883F31088244B1B680133E8
:10028000224A1360234B1B681B6B002B28D0FB7981
:100290002133DB10204AD35C1A46FB79213303F06B
:1002A000070342FA03F303F00103002B18D14FF6C2
:1002B000FF7002F00DF903467B82FB797B7401F03D
:1002C000FDFDF860FB68002B0AD0FB6802221A7063
:1002D000FB687A8A5A80FB687A7C5A7002F0DAF8F6
:1002E0000A4B1B68013B094A1360BB69FB61FB6950
:1002F00083F3108802E000BF00E000BF2037BD4656
:1003000080BD00BF0000002044730008F8000020FA
:1003100084730008F40000205800002080B58EB0DF
:1003200000AFF860B9607A60414B1B68002B7AD04F
:100330007B68002B03DA7B685B427B6301E07B68B0
:100340007B63EFF31083BB62BB6AFB6201237B61BB
:100350007B6983F31088374B1B680133354A136080
:10036000354B1A687B681344334A1360304B1B6863
:100370001B6B002B4CD0314B1B78002B03D1304B27
:100380001B78002B44D1FF2002F0A2F8034687F827
:100390002730796B4FF6FF7000F09CF90346BB8461
:1003A00001F08CFD38623B6A002B31D03B6A97F834
:1003B00027205A703B6A00221A703B6ABA8C5A8016
:1003C00002F068F8B9684FF6FF7000F083F9034651
:1003D000FB8300237B7701F071FDB861BB69002BC3
:1003E00016D0BB69FA8B5A80BB697A7F5A70FB685A
:1003F000DBB20133DAB2BB691A70FB68DAB23B6A6E
:100400001A7002F047F80A4B1B680B4A12681A650B
:10041000084B1B68013B074A1360FB6A3B633B6B5D
:1004200083F3108800E000BF3837BD4680BD00BFB1
:10043000F4000020F80000204800002044000020C4
:100440004600002080B58AB000AFF8600B467A60A5
:10045000FB72FB68FE2B03D9404801F0E3FF7AE012
:10046000FB7A062B03D93E4801F0DCFF73E03D4BDD
:100470001A68FB7A134493F864301A467B689A42F0
:1004800003D2394801F0CEFF65E0384B1B68002BE2
:1004900003D0374801F0C6FF5DE0364B1B78002BD8
:1004A00058D0EFF31083FB61FB693B6201233B6192
:1004B0003B6983F310882D4B1B6801332B4A136073
:1004C000284B1B681B6B002B39D02B4B1B78002B48
:1004D00003D12A4B1B78002B31D17B68DAB2FB7A2F
:1004E0001146184605F0CEFF0346002B27D1FB68C6
:1004F000DB08234AD35C1A46FB6803F0070342FA81
:1005000003F303F00103002B19D14FF6FF7001F044
:10051000DFFF03467B837B687B7601F0CFFC78614D
:100520007B69002B0BD07B697A8B5A80FB68DAB22F
:100530007B691A707B697A7E5A7001F0ABFF0B4BB6
:100540001B68013B094A13603B6A7B627B6A83F349
:10055000108800E000BF2837BD4680BDF473000856
:1005600028740008F40000206C740008F8000020D3
:10057000B074000845000020440000204600002020
:100580006000002080B58AB000AFF8607A603B6000
:100590000B46FB72FB68FE2B03D9444801F042FF77
:1005A00080E0FB7A062B03D9414801F03BFF79E05C
:1005B000404B1A68FB7A134493F864301A467B6800
:1005C0009A4203D23C4801F02DFF6BE03B4B1B6885
:1005D000002B03D03A4801F025FF63E0EFF31083CE
:1005E000FB61FB693B6201233B613B6983F310883C
:1005F000324B1B680133314A13602E4B1B681B6B57
:10060000002B45D02F4B1B78002B41D02E4B1B7855
:10061000002B03D02D4B1B78002B39D07B68DAB22E
:10062000FB7A1146184605F02DFF0346002B2FD10B
:10063000FB68DB08264AD35C1A46FB6803F0070315
:1006400042FA03F303F00103002B21D1FF2001F054
:100650003FFF0346FB763968FF2000F03BF8034676
:10066000BB767B687B7601F029FC78617B69002B87
:100670000ED07B69FA7EDA70FB68DAB27B691A7099
:100680007B697A7E5A707B69BA7E9A7001F002FFAC
:100690000A4B1B68013B094A13603B6A7B627B6A19
:1006A00083F310882837BD4680BD00BFE87400087A
:1006B00020750008F40000206C750008F800002088
:1006C000BC750008450000204600002044000020C2
:1006D0006000002080B584B000AF786039607B682E
:1006E000FF2B09D07B684FF6FF72934204D0164867
:1006F00001F098FE3B6823E03A687B689A4201D893
:100700003B681DE001F0DAFBF860FB68002B14D0B9
:10071000FB6801221A707B68DA433B6813401B0AAE
:10072000DAB2FB685A707B68DA433B6813401B0CF3
:100730009AB2FB685A8001F0ADFE3A687B681340BC
:1007400018461037BD4680BDF475000880B58AB0E4
:1007500000AF786039600023FB847B68FE2B03D9EF
:10076000324801F05FFE5DE0314B1B68002B03D087
:10077000304801F057FE55E0EFF31083BB61BB69D1
:10078000FB610123FB60FB6883F31088284B1B6827
:100790000133274A1360284B1B681B6B002B37D093
:1007A000264B1B78002B33D0254B1B78002B03D016
:1007B000244B1B78002B2BD07B68DB08224AD35CB0
:1007C0001A467B6803F0070342FA03F303F00103C0
:1007D000002B1DD1FF2001F07BFE0346FB7539681D
:1007E0004FF6FF70FFF776FF0346FB8401F066FBD0
:1007F00038613B69002B0BD03B69FA7D5A707B68EE
:10080000DAB23B691A703B69FA8C5A8001F042FEF9
:10081000074B1B68013B064A1360FB693B623B6A5E
:1008200083F310882837BD4680BD00BF30760008AE
:10083000F800002084760008F40000204500002025
:1008400046000020440000206000002080B58AB0EF
:1008500000AF0346FB71002387F82730FB790F2B8D
:1008600003D93F4801F0DEFD77E0FB792133DB104F
:100870003C4AD35C1A46FB79213303F0070342FA62
:1008800003F303F00103002B06D0012387F8273080
:10089000354B01221A7002E0334B00221A70EFF33D
:1008A0001083BB61BB69FB610123FB60FB6883F3C1
:1008B00010882E4B1B6801332C4A13602C4B1B787D
:1008C000FA799A4202D1012387F82730294B1B6815
:1008D0001B6B002B02D1012387F8273097F92730B3
:1008E000002B30D14FF6FF7001F0F2FD0346FB8282
:1008F0001F4AFB7913701E4B1B787B7501F0DEFAE3
:1009000038613B69002B1ED0194B1B781946032018
:1009100000F0A2F90346012B03D13B6907221A70AC
:1009200002E03B6906221A703B69FA8A5A803B69E9
:100930007A7D5A700E4B1B7801221946032000F075
:100940004FF901F0A7FD094B1B68013B074A1360F3
:10095000FB693B623B6A83F310882837BD4680BD44
:10096000BC7600085800002046000020F800002057
:1009700045000020F400002090B587B000AF03468A
:100980000A46FB711346BB71BB79062B03D920487D
:1009900001F048FD39E01F4B1A68BB79134493F806
:1009A0006430FA799A4203D91B4801F03BFD2CE0F0
:1009B000184B1B681B6B002B27D0FB79FB75154B65
:1009C0001C68BA79FB791146184601F09BFA034678
:1009D0008833234404333B610021386901F0D2FCA1
:1009E0000346FB8101F06AFAB860BB68002B0CD0AB
:1009F000BB790833DAB2BB681A70BB68FA7D5A70EB
:100A0000BB68FA895A8001F045FD1C37BD4690BD90
:100A100000770008F40000205077000890B585B0FA
:100A200000AF03460A46FB711346BB71BB79062B28
:100A300003D92B4801F0F6FC4FE02A4B1A68BB792A
:100A4000134493F86430FA799A4203D9264801F0A6
:100A5000E9FC42E0234B1B681B6B002B3DD001F0EF
:100A60002DFAF860FB68002B37D0BB79032B17D128
:100A70001C4B1C68BA79FB791146184601F042FA02
:100A800003461946174B1A68BB79134493F86C3028
:100A90000B440133234493F88C20FB685A7015E013
:100AA000104B1C68BA79FB791146184601F02AFAF6
:100AB000034619460B4B1A68BB79134493F86C3004
:100AC0000B44234493F88C20FB685A70BB79103395
:100AD000DAB2FB681A7001F0DDFC1437BD4690BD38
:100AE0009C770008F4000020F477000890B583B0EC
:100AF00000AF0346FB710B46BB7113467B71FB795C
:100B0000062B03D9144801F08DFC22E0134B1A6820
:100B1000FB79134493F86430BA799A4203D91048A8
:100B200001F080FC15E00D4B1C68FA79BB79114689
:100B3000184601F0E7F903461946084B1A68FB7995
:100B4000134493F86C300B44013323447A7983F8CF
:100B50008C200C37BD4690BD44780008F40000207E
:100B60008C78000890B583B000AF03460A46FB714D
:100B70001346BB71FB79062B04D9164801F052FCD1
:100B8000002322E0144B1A68FB79134493F8643075
:100B9000BA799A4204D9114801F044FC002314E0C8
:100BA0000D4B1C68FA79BB791146184601F0AAF979
:100BB00003461946084B1A68FB79134493F86C30C6
:100BC0000B440133234493F88C3018460C37BD4650
:100BD00090BD00BFCC780008F40000202879000800
:100BE00090B583B000AF0346FB710B46BB71134653
:100BF0007B71FB79062B03D9144801F013FC21E02B
:100C0000134B1A68FB79134493F86430BA799A420B
:100C100003D9104801F006FC14E00D4B1C68FA796A
:100C2000BB791146184601F06DF903461946084B89
:100C30001A68FB79134493F86C300B4423447A7997
:100C400083F88C200C37BD4690BD00BFA479000806
:100C5000F4000020E879000890B583B000AF0346A7
:100C60000A46FB711346BB71FB79062B04D9154864
:100C700001F0D8FB002321E0134B1A68FB791344E1
:100C800093F86430BA799A4204D9104801F0CAFB4B
:100C9000002313E00C4B1C68FA79BB791146184607
:100CA00001F030F903461946074B1A68FB791344E3
:100CB00093F86C300B44234493F88C3018460C376F
:100CC000BD4690BD247A0008F4000020687A000830
:100CD00090B583B000AF0346FB71104B1B6893F8CF
:100CE0006730FA799A4203D90D4801F09BFB11E075
:100CF0000A4B1C68FB790321184601F003F90346EF
:100D00001A46064B1B6893F86F30134423440022A5
:100D100083F88C200C37BD4690BD00BFF400002046
:100D2000A47A000880B500AF00F0F2F800F036F9C0
:100D300000F010F80346002B01D0042308E000F077
:100D400023F80121012000F049F800F06FF800239A
:100D5000184680BD80B500AF00F026F803461A465D
:100D600040F611039A4209D0064B1B68002B03D1B1
:100D700000F0E6FB034602E0012300E000231846F2
:100D800080BD00BF0400002080B500AF0221032019
:100D900000F02EF9022000F009FC0021032000F0F1
:100DA00027F90023184680BD80B582B000AF00232C
:100DB000FB80002000F05EFA0346FB80FB881B02EC
:100DC000FB80012000F056FA03469AB2FB881343D9
:100DD000FB80FB8818460837BD4680BD80B584B0CF
:100DE00000AF03460A46FB711346BB710023FB7339
:100DF000042000F03FFA0346FB73BB79002B07D0B9
:100E0000FB79DB43DAB2FB7B1340DBB2FB7303E01D
:100E1000FA7BFB791343FB73FB7B1946042000F03C
:100E2000E7F8002318461037BD4680BD80B500AFF7
:100E300001210220FFF7D2FF4921202000F0D8F83D
:100E4000022000F0B3FB0121212000F0D1F80021A5
:100E50001E2000F035F89A21412000F0C9F8012148
:100E60004A2000F0C5F801214B2000F0C1F8002114
:100E70004B2000F0BDF80121562000F0B9F8012107
:100E8000582000F0B5F80321402000F0B1F8FF2110
:100E90000B2000F0ADF8094B0022DA80074BDA880E
:100EA000064B9A80054B9A88044B5A80034B5A880C
:100EB000024B1A800023184680BD00BF902E0120EF
:100EC00080B584B000AF03460A46FB711346BB7180
:100ED0000023FB73172000F0CDF90346FB73BB79A9
:100EE000002B04D0FA7BFB791343FB7306E0FB79FC
:100EF000DB43DAB2FB7B1340DBB2FB73FB7B1946AF
:100F0000172000F075F8002318461037BD4680BD45
:100F100080B582B000AF01214FF4000001F0D8FD90
:100F2000012140F2051001F0B3FD01214FF4804092
:100F300001F0EEFD01214FF4000001F009FE002157
:100F40004FF4000001F004FE04220821114803F0D0
:100F50000DFB04220921104803F008FB4FF48073B5
:100F60003B6002233B7102237B710123BB71002391
:100F7000FB713B461946074803F06AFA4FF40073C9
:100F80003B603B461946044803F062FA00BF08374D
:100F9000BD4680BD000002400008024080B584B01C
:100FA00000AF114B1B889BB203F00103002B17D13C
:100FB0000023BB804BF6FF73FB8000233B814FF483
:100FC00080637B814FF48043BB81084B3B603B4691
:100FD0001946054805F0F0FB0121034805F0AEFC79
:100FE00000BF1037BD4680BD005C0040A0860100F8
:100FF00080B584B000AF03460A46FB711346BB714F
:101000000023FB6001214C4805F0B8FC4B4B4FF42A
:1010100040521A600AE0494B1B685A1E47490A6051
:10102000002B03D100F08CFA034680E0444942488B
:1010300005F062FD0346002BEDD0002282213E48E0
:1010400005F0DCFC3D4B4FF440521A600AE03B4B8C
:101050001B685A1E39490A60002B03D100F070FA50
:10106000034664E03749344805F046FD0346002B4B
:10107000EDD0314B1B8B314B4FF440521A600AE0DC
:101080002E4B1B685A1E2D490A60002B03D100F01D
:1010900057FA03464BE02C49274805F02DFD03463F
:1010A000002BEDD0FB791946234805F007FD234BB3
:1010B0004FF440521A600AE0204B1B685A1E1F4929
:1010C0000A60002B03D100F03BFA03462FE01E49D3
:1010D000194805F011FD0346002BEDD0BB791946E8
:1010E000154805F0EBFC154B4FF440521A600AE02E
:1010F000124B1B685A1E11490A60002B03D100F0E5
:101100001FFA034613E010490B4805F0F5FC0346AF
:10111000002BEDD00D49084805F0EEFC0346002BEE
:10112000E6D00121044805F049FCFB68DBB2184613
:101130001037BD4680BD00BF005C004004000020A9
:1011400001000010020000108000001004000010D8
:1011500080B582B000AF03460A46FB711346BB71EF
:1011600001213E4805F00AFC3D4B4FF440521A6005
:101170000AE03B4B1B685A1E39490A60002B03D119
:1011800000F0DEF9034664E03649344805F0B4FC6B
:101190000346002BEDD0FB79002219462F4805F0BD
:1011A0002DFC2F4B4FF440521A600AE02C4B1B6869
:1011B0005A1E2B490A60002B03D100F0C1F90346E7
:1011C00047E02949254805F097FC0346002BEDD060
:1011D000224B1B8B224B4FF440521A600AE0204BEB
:1011E0001B685A1E1E490A60002B03D100F0A8F9A3
:1011F00003462EE01D49194805F07EFC0346002BEE
:10120000EDD0BB791946154805F058FC144B4FF446
:1012100040521A600AE0124B1B685A1E10490A60BD
:10122000002B03D100F08CF9034612E00F490B4864
:1012300005F062FC0346002BEDD00D49074805F090
:101240005BFC0346002BE6D00121044805F0B6FB09
:10125000012318460837BD4680BD00BF005C004032
:1012600004000020010000100200001080000010A7
:101270000400001080B584B000AF0346FB7100236A
:10128000FB7301216B4805F079FB6B4B4FF4405227
:101290001A600AE0684B1B685A1E67490A60002BF7
:1012A00003D100F04DF90346C0E06449614805F000
:1012B00023FC0346002BEDD000215E4805F0BCFB6B
:1012C000002282215B4805F099FB5B4B4FF44052B2
:1012D0001A600AE0584B1B685A1E57490A60002BD7
:1012E00003D100F02DF90346A0E05549514805F01F
:1012F00003FC0346002BEDD04E4B1B8B4E4B4FF4A3
:1013000040521A600AE04C4B1B685A1E4A490A6058
:10131000002B03D100F014F9034687E04949454802
:1013200005F0EAFB0346002BEDD0FB791946414856
:1013300005F0C4FB404B4FF440521A600AE03E4BAC
:101340001B685A1E3C490A60002B03D100F0F8F8D4
:1013500003466BE03B49374805F0CEFB0346002BC4
:10136000EDD03949334805F0C7FB0346002BE6D0E2
:101370000121304805F002FB2F4B4FF440521A6018
:101380000AE02D4B1B685A1E2B490A60002B03D123
:1013900000F0D6F8034649E02849264805F0ACFBA2
:1013A0000346002BEDD001228221224805F026FBC6
:1013B000214B4FF440521A600AE01F4B1B685A1E23
:1013C0001D490A60002B03D100F0BAF803462DE056
:1013D0001B49184805F090FB0346002BEDD0154B38
:1013E0001B8B154B4FF440521A600AE0124B1B68DE
:1013F0005A1E11490A60002B03D100F0A1F80346E0
:1014000014E012490B4805F077FB0346002BEDD0A2
:101410000121084805F0D2FA064805F05FFB0346B3
:10142000FB730121034805F007FBFB7B18461037CF
:10143000BD4680BD005C004004000020010000109B
:101440000200001080000010040000104000001096
:1014500080B584B000AF0346FB710023FB7301210C
:10146000324805F08BFA324B4FF440521A600AE0D2
:101470002F4B1B685A1E2E490A60002B03D100F027
:101480005FF803464EE02B49284805F035FB03463C
:10149000002BEDD00021254805F0CEFAFB79012282
:1014A0001946224805F0AAFA214B4FF440521A601F
:1014B0000AE01F4B1B685A1E1D490A60002B03D10E
:1014C00000F03EF803462DE01B49184805F014FBD8
:1014D0000346002BEDD0154B1B8B154B4FF44052A0
:1014E0001A600AE0124B1B685A1E11490A60002B51
:1014F00003D100F025F8034614E010490B4805F02D
:10150000FBFA0346002BEDD00121084805F056FAFE
:10151000064805F0E3FA0346FB730121034805F092
:101520008BFAFB7B18461037BD4680BD005C00403F
:101530000400002001000010020000104000001014
:1015400080B584B000AF0121164805F037FA0121BB
:10155000144805F091FA0021124805F08DFAFFF7C2
:10156000D7FC104805F0EEF80023BB804BF6FF7364
:10157000FB8000233B814FF480637B814FF48043E9
:10158000BB81094B3B600121064805F0D7F93B467A
:101590001946044805F010F9002318461037BD46D7
:1015A00080BD00BF005C0040A086010080B485B013
:1015B00000AF78600023FB607B68084A02FB03F3FE
:1015C000FB6002E0FB68013BFB60FB68002BF9D18C
:1015D00000BF1437BD465DF8047B7047A08601004C
:1015E0002DE9B0438CB000AF786002F0F3F8034609
:1015F000BB610C23013B7B620C23DAB24FF000038A
:101600004FEA431949EAD2694FEA42180C23DAB289
:101610004FF000035D0145EAD26554010C239B00A5
:1016200003330733DB08DB00ADEB030D6B460333FD
:101630009B089B003B620023FB850023BB850023A6
:10164000FB8134E03B7CC3F30403DBB21A46012385
:1016500093409AB2FB8D13439BB2FB853B7C03F016
:101660002003DBB2002B0BD03B7CC3F30403DBB2C3
:101670001A46012393409AB2BB8D1343BB850DE0FC
:101680003B7CC3F30403DBB21A46012393409BB2B5
:1016900083F0FF039AB2BB8D1340BB853B7CC3F341
:1016A0000403DBB219467A693B6A43F82120374BC1
:1016B000186807F110010023002204F02FFA0346F6
:1016C000002BBFD1324B186800234FF0FF320021AE
:1016D00004F024FA07F10E03184600F05BF82C4BD7
:1016E000186800230022002103F0C0FF002387F8C0
:1016F0002B303DE097F82B30012202FA03F39AB227
:10170000FB8D1340FB83FB8B002B2CD097F82B30E9
:1017100003F01F03DAB23B7B62F304033B73BA8D21
:1017200097F82B3042FA03F3DBB203F00103DAB28D
:101730003B7B62F345133B73FB891A4697F82B30CA
:1017400042FA03F33A7BC2F34012D2B293420AD177
:1017500097F82B203B6A53F8220007F10C01012374
:10176000002203F083FF97F82B30013387F82B30EA
:101770000C2297F82B309342BCD3FA231A4607F178
:1017800018031146184601F08BFE5AE7A82E0120D7
:10179000982E012080B582B000AF78607320FFF7EB
:1017A00057FE03469BB21B029AB27B681A807120D7
:1017B000FFF74EFE034619467B681A888BB2134327
:1017C0009AB27B681A8000BF0837BD4680BD00BF53
:1017D00080B58AB000AF7860614B1B683B62002324
:1017E00087F827300023FB73002387F826300CE0AE
:1017F00097F8263007F128021344032203F8102C2F
:1018000097F82630013387F8263097F82630022BD8
:10181000EED9002387F827309BE0012000F0A8F8DC
:10182000002303F01F03DAB23B7F62F304033B772C
:101830003B7F43F020033B774A4B186807F11C01BC
:1018400001234FF0FF3203F011FF012303F01F03C8
:10185000DAB23B7F62F304033B77424B186807F12F
:101860001C0101234FF0FF3203F000FF3B7D6FF3BB
:1018700045133B753B7C6FF345133B74384B18683D
:1018800007F1140100234FF0FF3204F047F9344B05
:10189000186807F110010023002204F03FF93B7D96
:1018A000C3F34013DBB2DAB23B7CC3F34013DBB2C9
:1018B0005B00DBB21343DBB2DBB2FB73FB7B07F1F4
:1018C0002802134413F8103C002B42D0FB7B07F195
:1018D00028021A4412F8102C013AD2B207F128015A
:1018E0000B4403F8102C022303F01F03DAB23B7FF2
:1018F00062F304033B773B7F43F020033B77194BB4
:10190000186807F11C0101234FF0FF3203F0AEFE0F
:10191000134B186800234FF0FF32002104F0FEF84B
:10192000002000F025F8104B186807F10F01012383
:101930004FF0FF3203F09AFE0C4B186800234FF073
:10194000FF32002104F0EAF897F82730013387F8D6
:10195000273097F82730092B7FF45FAF44E700BFAB
:10196000B02E0120A82E0120A02E0120BC2E012087
:1019700080B584B000AF0346FB71002303F01F0362
:10198000DAB23B7B62F304033B73FB7903F00103A0
:10199000DAB23B7B62F345133B73064B186807F1E1
:1019A0000C0101234FF0FF3203F060FE00BF10373F
:1019B000BD4680BDAC2E012080B584B004AF0020B0
:1019C00005F0AAFA012005F0A7FA0021002005F091
:1019D00001FBFFF7A7F900217220FFF7B9FB0346CF
:1019E000002B09D0804B01221A70002005F0C2FAAA
:1019F000012005F0D7FA08E07B4B00221A70002086
:101A000005F0D0FA012005F0B5FA784B00221A80D3
:101A1000774B00221A8003F0F7F903F0FBF9052356
:101A200000220821184603F0F7FC0246714B1A60A9
:101A3000704B1B68002B01D10123D1E0052300224C
:101A40000121184603F0E8FC02466B4B1A606A4B12
:101A50001B68002B01D10123C2E0002201210120DB
:101A600003F0DAFC0246654B1A60644B1B68002BDE
:101A700001D10123B4E000220121012003F0CCFCBC
:101A800002465F4B1A605E4B1B68002B01D101239D
:101A9000A6E000220121012003F0BEFC0246594BC2
:101AA0001A60584B1B68002B01D1012398E00022DB
:101AB0000121022003F0B0FC0246534B1A60524B46
:101AC0001B68002B01D101238AE0002201210120A3
:101AD00003F0A2FC02464D4B1A604C4B1B68002BD6
:101AE00001D101237CE000220121012003F094FCBC
:101AF0000246474B1A60464B1B68002B01D101235D
:101B00006EE000220121012003F086FC0246414BD9
:101B10001A60404B1B68002B01D1012360E00120BB
:101B200003F00EFD02463C4B1A603B4B1B68002B3A
:101B300001D1012354E028231A46002303930023F4
:101B400002930023019300920023802233493448FA
:101B500001F0A0FB32231A460023039300230293D3
:101B6000002301930092002380222E492E4801F089
:101B700091FB1E231A4600230393002302930023A4
:101B800001930092002380222849294801F082FB1A
:101B90000A231A4600230393002302930023019390
:101BA0000092002380222349234801F073FB142371
:101BB0001A4600230393002302930023019300920B
:101BC000002380221D491E4801F064FB1D4803F0DC
:101BD00095F903461A461C4B1A8001F007FDFEE7F3
:101BE0001846BD4680BD00BF5400002052000020B2
:101BF0004E000020A82E0120AC2E0120B42E012082
:101C0000A42E0120B82E0120B02E0120A02E0120EC
:101C1000BC2E01209C2E0120982E01200C7B000858
:101C2000E11500081C7B0008B5310008307B000876
:101C3000F5650008447B0008D1170008587B0008B0
:101C400005490008647B0008C02E012080B500AF64
:101C50007D4B1A687D4B1B6813447D4A13607D4B96
:101C60007D4A1A607B4B1B68002B03D17B4800F038
:101C7000D9FBE8E0774B1B68002B03D1784800F0D4
:101C8000D1FBE0E0734B1B6844F2C06200211846B0
:101C900005F086FA6F4B1B6800221A706D4B1B68AB
:101CA00001225A706B4B1B6802229A70694B1B68A9
:101CB0000322DA70674B1B6870221A71654B1B6830
:101CC00071225A71634B1B6872229A71614B1B68B7
:101CD0007322DA715F4B1B68F0221A725D4B1B682E
:101CE000F1225A725B4B1B68F2229A72594B1B68A5
:101CF000F322DA72574B1B6841F6A1229A81554BA9
:101D00001B6804229A73534B1B680022DA73514BF1
:101D10001B6844F2C0621A614E4B1B684FF47A6232
:101D20009A614C4B1B684FF0F0325A65494B1B6867
:101D300000229A6504F072FA464B1B684FF0F132AC
:101D4000C3F82424434B1B684FF44872C3F828247B
:101D5000404B1B680122C3F82C243E4B1B6803F543
:101D6000FA634FF07E521A603A4B1B684FF0F23222
:101D7000C3F8D827374B1B6803F2DC73502239496C
:101D8000184605F0ABFA334B1B684FF0F332C3F83B
:101D90002C28304B1B6803F58D4334330A221A700C
:101DA0002C4B1B6803F58D4335330B221A70294BDE
:101DB0001B6803F58D4336330C221A70254B1B68C4
:101DC00003F58D4337330D221A70224B1B6803F540
:101DD0008D43383371221A701E4B1B6803F58D43F7
:101DE000393372221A701B4B1B6803F58D433A334B
:101DF00073221A70174B1B6803F58D433B33742213
:101E00001A70144B1B6803F58D433C33F1221A7092
:101E1000104B1B6803F58D433D33F2221A700D4BB6
:101E20001B6803F58D433E33F3221A70094B1B6880
:101E300003F58D433F33F4221A7004F093FA00F057
:101E400013F804F0FFFE80BD041000E07C020020C7
:101E500084750120F4000020C42E0120687B000856
:101E6000A87B0008D07B000880B582B000AF114B82
:101E70001B683B603B681B78002B13D100237B6001
:101E80000CE03A687B68134439687A680A4412782F
:101E90000132D2B21A707B6801337B607B680B2BF6
:101EA000EFD902E0044800F0BDFA00BF0837BD4694
:101EB00080BD00BFF4000020E47B000880B500AFC7
:101EC0000E4B1B681B6B002B01D1002313E00B4B47
:101ED0001B68DB69B3F57A6F04D3094800F0A2FAF6
:101EE000002308E0054B1A68044B1B68DB699B0064
:101EF00003F503631344184680BD00BFF4000020BF
:101F0000107C000880B582B000AF03460A46FB7122
:101F10001346BB71BB79062B04D9224800F082FA24
:101F200000233AE0FB79002B08D01F4B1A68BB79DD
:101F3000134493F86430FA799A4204D91B4800F0AC
:101F400071FA002329E0BB79062B22D8FB79002BFC
:101F50001FD0154B1A68BB79134493F86430FA7993
:101F60009A4216D8104B1A68BB793C335B00134475
:101F70009A880D4B1968BB790B4493F8743099B269
:101F8000FB79013B9BB211FB03F39BB213449BB261
:101F900003E0074800F046FA002318460837BD461C
:101FA00080BD00BF387C0008F4000020787C000869
:101FB000B87C000880B584B000AF0346FB71FB79A4
:101FC000062B04D9934800F02DFA00231EE1FB797B
:101FD000914A32F813301A46904B1A608F4B1B68A7
:101FE0008D4A134493F83830002B14D18B4B1A6868
:101FF0008A4B1B68D9B2FB79874804335B000344E2
:10200000DB88DBB2CB1ADBB20133D9B2824B13448B
:102010000A4683F83820814B1B687F4A134493F8A3
:102020003830FB73FB797C4A32F81320FB797A490C
:102030000C335B000B449B889A420AD9FB79184603
:1020400004F0E0F90346184600F0ECF90023FB73B6
:10205000DBE0FB79704A32F81320013291B26E4A0C
:1020600022F81310FB796C4A32F813301946FB79C9
:10207000694A04335B001344DB88CB1ABB60FB79ED
:10208000654A14335B0013445B881A46BB689A4266
:1020900009DAFB79BA68D2B291B25F4A14335B00B5
:1020A00013440A465A80FB79062B00F2AE8001A247
:1020B00052F823F0D1200008072100083B21000836
:1020C0006F2100080B220008A3210008D721000877
:1020D000FB7BDB08DBB21946FB7BDB08DBB21A4675
:1020E0004F4B9B5CD8B2FB7B03F00703012202FA43
:1020F00003F3DBB2DB43DBB202461340DBB2DAB2FE
:10210000474B5A5480E0FB7B0B33DB10FA7B0B32DE
:10211000D21043498A5CD0B2FA7B0B3202F007023C
:10212000012101FA02F2D2B2D243D2B201460A40F0
:10213000D2B2D1B23A4AD15466E0FB7B1633DB10FF
:10214000FA7B1632D21036498A5CD0B2FA7B16324C
:1021500002F00702012101FA02F2D2B2D243D2B256
:1021600001460A40D2B2D1B22D4AD1544CE0FB7B99
:102170002133DB10FA7B2132D21029498A5CD0B29C
:10218000FA7B213202F00702012101FA02F2D2B2F7
:10219000D243D2B201460A40D2B2D1B2204AD1547F
:1021A00032E0FB7B3133DB10FA7B3132D2101C4939
:1021B0008A5CD0B2FA7B313202F00702012101FAC7
:1021C00002F2D2B2D243D2B201460A40D2B2D1B266
:1021D000134AD15418E0FB7B3433DB10FA7B3432E2
:1021E000D2100F498A5CD0B2FA7B343202F0070277
:1021F000012101FA02F2D2B2D243D2B201460A4020
:10220000D2B2D1B2064AD15400BFFB7B1846103778
:10221000BD4680BDF87C000884000020000100203D
:102220005800002080B584B000AF03460A46FB7119
:102230001346BB71FB79062B03D91E4800F0F2F858
:1022400034E0BB79002B08D01B4B1A68FB79134490
:1022500093F86430BA799A4203D9184800F0E2F84A
:1022600024E0FB79164A32F813305A1EFB791449E0
:1022700004335B000B44DB889A4203DA114800F018
:10228000D1F813E0FB790E4A32F81320013A91B2EB
:102290000B4A22F81310FB79094A32F81330FB601D
:1022A000074AFB6813443833BA791A701037BD46B1
:1022B00080BD00BF3C7D0008F4000020807D000848
:1022C00084000020C07D000880B582B000AF0346C6
:1022D0003A60FB710B46BB713B68002B03D123486E
:1022E00000F0A0F83EE0FB79062B03D9204800F06F
:1022F00099F837E0BB79002B03D11E4800F092F823
:1023000030E01D4B1A68FB79134493F86430BA79B6
:102310009A4208D9FB79184604F074F80346184627
:1023200000F080F81EE0FA79BB7911461846FFF7F5
:10233000E9FD03461A46114B1A80114B1B68002B0E
:1023400010D10D4B1A680D4B1B8888331344181D90
:10235000094B1A68FB79134493F86C301A463968B4
:1023600004F0BCFF0837BD4680BD00BFF07D00080B
:10237000207E00084C7E0008F400002004010020AC
:10238000FC00002080B588B000AF78600B467B80F1
:102390000023FB720023BB727B68002B04D11F4813
:1023A00000F040F8002334E007F10B0207F10A03C4
:1023B0001946786800F07CFAEFF310833B613B69C3
:1023C0007B610123FB60FB6883F31088144B1B685F
:1023D0000133134A1360B97AFA7A7B88786800F07F
:1023E0002DF90346FB83FB8B002B07D1B97AFA7AD0
:1023F0007B88786800F09EF90346FB83084B1B68D6
:10240000013B074A13607B69BB61BB6983F310889A
:10241000FB8B18462037BD4680BD00BF787E000884
:10242000F800002080B582B000AF78607B68002B98
:1024300003D11448FFF7F6FF21E0134B1B68002B74
:1024400003D11248FFF7EEFF19E00F4B1B68002283
:102450001A630F4B1B68002B11D10D4A7B68136068
:10246000094B1B6803F2DC70094B1B6850221946AC
:1024700004F034FF044B1B680122C3F8D42708374B
:10248000BD4680BDA87E0008F4000020D07E000874
:10249000FC00002080B500AF0C4B1B681B6B002BB1
:1024A00012D00A4B1B685A6901325A61074B1B68EC
:1024B000DA690132DA61054B1B68DB69B3F57A6FC3
:1024C00003D302F007FD00E000BF80BDF400002050
:1024D00090B587B000AF0346FB8000237B610023EB
:1024E0003B610023FB60FB88FF2B09D0FB884FF684
:1024F000FF72934204D04D48FFF794FF002390E011
:1025000007F10C03184604F0DBFBFA68484B1B6824
:10251000D31A3B61FB68464A1360464B1B685B6AF3
:10252000002B43D0434B1B685A6A3B699A421DD229
:10253000404B1B683F4A1268D16A3E4A1268526A91
:102540003869B0FBF2F20A44DA623A4B1968394B47
:102550001B68986A374B1B685A6A3B69B3FBF2F4F5
:1025600002FB04F29B1A03448B6207E0314B1B68A9
:10257000304A1268916A3A690A449A622D4B1B6884
:102580009A6A2C4B1B685B6A9A4213D3294B1B68CF
:10259000DA6A0132DA62274B1B68264A1268916AAE
:1025A000244A1268526A8A1A9A6203E0214B1B6815
:1025B000FA689A62FA883B699A422CD2FFF77EFC4D
:1025C00078617B69002B26D0FB884FF6FF7293421F
:1025D0000BD17B69A9221A703B691B0C9AB27B69EB
:1025E0005A807B6900225A7013E0FB88FF2B0DD1C3
:1025F0007B69A8221A703B691B0A9AB27B695A80D0
:102600003B691B0EDAB27B695A7002E00A48FFF799
:1026100009FFFFF73FFF3B699AB2FB8813409BB26B
:102620009BB218461C37BD4690BD00BF5C7F0008BA
:1026300008010020F40000209C7F000880B584B0D1
:1026400000AF7860084611461A460346FB700B46F9
:10265000BB7013463B80344B1B68FA7802F56A72F4
:1026600033F81230FB817B68002B04D12F48FFF731
:10267000D9FE002353E0BB78002B4AD12C48FFF74A
:10268000D1FE00234BE0284B1A68FB890233134428
:1026900093F830341A463B88DBB29A4226D1224B5B
:1026A0001A68FB890333134493F830349AB23B8899
:1026B0001B0A9BB29A4219D11B4B1A68FB89191D40
:1026C000BB780B44134493F83034002B0ED1164BD7
:1026D0001A68FB89043303F586631344BA78796872
:1026E000184604F0ABFD0346002B16D00E4B1A68BB
:1026F000FB89134493F830349AB20B4B1968FB8969
:1027000001330B4493F830349BB21B029BB2134449
:10271000FB81FB89002BB6D100E000BFFB89184686
:102720001037BD4680BD00BFF4000020C07F000808
:10273000FC7F000880B584B000AF78600846114681
:102740001A460346FB700B46BB7013463B800023C2
:10275000FB817B68002B04D15148FFF763FE002307
:1027600099E0BB78002B04D14E48FFF75BFE0023B5
:1027700091E04D4B1B68D3F82C24BB7813440433F1
:10278000B3F5487F05D34948FFF74CFE0023FB8192
:1027900080E0454B1A68444B1B68D3F82C344249FF
:1027A0000968F87800F56A7031F81010C9B213445E
:1027B0000A4683F830243C4B1A683B4B1B68D3F81D
:1027C0002C34013338490968F87800F56A7031F81B
:1027D0001010090A89B2C9B213440A4683F830249A
:1027E000314B1A68304B1B68D3F82C3402333988CC
:1027F000C9B213440A4683F830242B4B1A682A4B7B
:102800001B68D3F82C3403333988090A89B2C9B25A
:1028100013440A4683F83024234B1A68224B1B6862
:10282000D3F82C34043303F586631344BA787968FB
:10283000184604F053FD1C4B1A681B4B1B68D3F859
:102840002C14BB780B4404331344002283F8302447
:10285000154B1B68FA7814490968D1F82C1489B211
:1028600002F56A7223F812100F4B1B680E4A1268A9
:10287000D2F82C14BA780A440532C3F82C240A4B37
:102880001B68D3F82C349AB2BB789BB2D31A9BB294
:10289000053BFB81FB8918461037BD4680BD00BF54
:1028A0003480000870800008F4000020A880000830
:1028B00080B588B000AFF860B9607A600123FB6131
:1028C0000023BB61FB68002B03D11948FFF7AAFD69
:1028D0002BE0BB68002B03D11648FFF7A3FD24E0D3
:1028E0007B68002B03D11448FFF79CFD1DE0FB68BB
:1028F000002B0FD006E0FB7DBA691344BB61FB6976
:102900000133FB61FB685A1CFA601B78FB75FB7D89
:10291000002BF0D1BB69DBB203F03F03DAB2BB6836
:102920001A70FB69DAB27B681A702037BD4680BD29
:10293000E88000081C8100084C81000880B489B040
:1029400000AF78600023BB6100237B610023FB6143
:1029500002233B610023FB600223BB60484B9B6862
:1029600003F00C03BB61BB69042B07D0082B09D013
:10297000002B3FD17B68434A1A603FE07B68424AA4
:102980001A603BE03E4B5B6803F480039B0DFB60E9
:102990003B4B5B6803F03F03BB60FB68002B0DD033
:1029A000394ABB68B2FBF3F2354B596847F6C0733E
:1029B0000B409B0903FB02F3FB610CE0314ABB684F
:1029C000B2FBF3F22E4B596847F6C0730B409B09DC
:1029D00003FB02F3FB612A4B5B6803F440331B0CDF
:1029E00001335B003B61FA693B69B2FBF3F27B6840
:1029F0001A6003E07B68234A1A6000BF204B9B6883
:102A000003F0F003BB61BB691B09BB611F4ABB69D3
:102A100013441B78DBB27B617B681A687B69DA4000
:102A20007B685A60164B9B6803F4E053BB61BB693B
:102A30009B0ABB61154ABB6913441B78DBB27B61FF
:102A40007B685A687B69DA407B689A600C4B9B68AC
:102A500003F46043BB61BB695B0BBB610B4ABB69A1
:102A600013441B78DBB27B617B685A687B69DA4070
:102A70007B68DA6000BF2437BD465DF8047B704791
:102A8000003802400024F40000127A000800002000
:102A900080B483B000AF78600B46FB70FB78002BEE
:102AA00006D00A49094B1A6B7B6813430B6306E097
:102AB0000649064B1A6B7B68DB4313400B6300BF70
:102AC0000C37BD465DF8047B704700BF00380240FC
:102AD00080B483B000AF78600B46FB70FB78002BAE
:102AE00006D00A49094B1A6C7B6813430B6406E055
:102AF0000649064B1A6C7B68DB4313400B6400BF2E
:102B00000C37BD465DF8047B704700BF00380240BB
:102B100080B483B000AF78600B46FB70FB78002B6D
:102B200006D00A49094B5A6C7B6813434B6406E094
:102B30000649064B5A6C7B68DB4313404B6400BF6D
:102B40000C37BD465DF8047B704700BF003802407B
:102B500080B483B000AF78600B46FB70FB78002B2D
:102B600006D00A49094B1A6A7B6813430B6206E0D8
:102B70000649064B1A6A7B68DB4313400B6200BFB1
:102B80000C37BD465DF8047B704700BF003802403B
:102B900080B586B004AF00237B6000F0C3FA134B0E
:102BA0001B68002B0FD00023039300230293104BCC
:102BB00001930223009300234FF482720D490E48C3
:102BC00000F068FB78607B68002B09D14FF0500360
:102BD00083F31188BFF36F8FBFF34F8F3B60FEE726
:102BE0007B6818460837BD4680BD00BF3C01002009
:102BF0004001002080810008912D000880B588B038
:102C000000AFF860B9607A603B600023FB613F4B26
:102C10001B68002B74D0BB683B617B687B61FB68E1
:102C2000BB61BB68052B18DC01F096FA0346022B4A
:102C300009D1364B186807F110010023BA6A02F077
:102C400015FDF86112E0314B186807F110010023FF
:102C5000002202F00BFDF86108E02C4B186807F128
:102C6000100100233A6802F081FEF861BB68002B76
:102C700046DDBB68042B0DD1FB69012B01D1B420CB
:102C800000E0BD20FB689B6ADAB27B680521FDF796
:102C900079FC35E0BB68052B20D1FB69012B1DD1E8
:102CA000FB689B6ADBB21A460521B520FDF7CAFB1B
:102CB000FB689B6ADBB205211846FDF75DFEFB68E9
:102CC0009B6ADBB205211846FDF7A8FEFB689B6AEC
:102CD000DBB219460520FFF7A5FA11E0BB6803F146
:102CE000B002FB69012B01D1002300E0092313444A
:102CF0001846FB689B6ADBB21A460521FDF7A2FB6A
:102D0000FB6918462037BD4680BD00BF3C0100204E
:102D100080B588B002AF786039601C4B1B68DB68F7
:102D2000DB687B617B690433184601F0F5FC7B6945
:102D3000DB69012B21D17B699A697B68D1187B689B
:102D40003A68786900F0BAF80346012B15D10023E0
:102D5000009300237A6800217869FFF74FFF3861FC
:102D60003B69002B09D14FF0500383F31188BFF367
:102D70006F8FBFF34F8FFB60FEE77B695B6A7869FB
:102D8000984700BF1837BD4680BD00BF3401002002
:102D900080B584B000AF786007F10803184600F0F2
:102DA00049F8F860BB681946F86800F003F800F0CD
:102DB000C7F8F1E780B584B000AF7860396000F003
:102DC00061FC07F10803184600F058F8F860BB688A
:102DD000002B24D13B68002B0AD17A68FB689A4209
:102DE00006D800F05DFCF9687868FFF791FF18E0FD
:102DF0000E4B18687A68FB68D31A3A68194603F0D4
:102E0000AFF900F04DFC0346002B0AD1084B4FF000
:102E100080521A60BFF34F8FBFF36F8F01E000F055
:102E20003FFC00BF1037BD4680BD00BF3C01002005
:102E300004ED00E080B485B000AF78600E4B1B68F5
:102E40001B68002B0CBF01230023DBB21A467B68F2
:102E50001A607B681B68002B05D1074B1B68DB6879
:102E60001B68FB6001E00023FB60FB681846143719
:102E7000BD465DF8047B70473401002080B584B006
:102E800000AF786000F0A6FCF8600B4B1B68FA6896
:102E90009A4205D200F0E6F87B6801221A6002E04F
:102EA0007B6800221A60044AFB681360FB681846BE
:102EB0001037BD4680BD00BF4401002080B586B0FC
:102EC00000AFF860B9607A603B6000237B61FB680B
:102ED000BA685A60FB68FA681A61BA687B689A42F5
:102EE00012D87A683B68D21AFB689B699A4202D36F
:102EF00001237B611BE0104B1A68FB680433194601
:102F0000104601F0CFFB12E07A683B689A4206D285
:102F1000BA683B689A4202D301237B6107E0074B02
:102F20001A68FB6804331946104601F0BBFB7B6945
:102F300018461837BD4680BD3801002034010020F6
:102F400080B58CB002AF7AE0BB68002B77DB3B69C1
:102F50007B627B6A5B69002B04D07B6A0433184672
:102F600001F0DAFB3B1D1846FFF788FF3862BB68AB
:102F7000092B63D801A252F823F000BFA52F000847
:102F8000A52F0008A52F00083F300008FF2F0008DC
:102F900035300008A52F0008A52F00083F30000895
:102FA000FF2F0008FA687B6A9B69D118FB683A6AB0
:102FB000786AFFF783FF0346012B40D17B6A5B6A87
:102FC000786A98477B6ADB69012B38D1FA687B6A9B
:102FD0009B691A440023009300230021786AFFF7BD
:102FE0000DFEF861FB69002B29D14FF0500383F3EC
:102FF0001188BFF36F8FBFF34F8F7B61FEE7FA68D5
:103000007B6A9A617B6A9B69002B09D14FF0500360
:1030100083F31188BFF36F8FBFF34F8FBB61FEE760
:103020007B6A9A693B6AD1183B6A3A6A786AFFF709
:1030300045FF04E0786A03F057FF00E000BF084B4B
:10304000186807F108010023002202F067FD03461B
:10305000002B7FF479AF00BF2837BD4680BD00BF8D
:103060003C01002080B588B002AF44E02B4B1B68C8
:10307000DB681B687B61294B1B68DB68DB683B6195
:103080003B690433184601F047FB3B695B6A3869CA
:1030900098473B69DB69012B2DD13B699A697B69B4
:1030A0001344FB60FA687B699A420ED93B69FA685F
:1030B0005A603B693A691A61184B1A683B690433D4
:1030C0001946104601F0EEFA15E0002300930023A4
:1030D0007A6900213869FFF791FDB860BB68002B61
:1030E00009D14FF0500383F31188BFF36F8FBFF303
:1030F0004F8F3B60FEE7094B1B681B68002BB5D167
:10310000064B1B687B60064B1B68044A1360044A2D
:103110007B68136000BF1837BD4680BD34010020B6
:103120003801002080B582B000AF01F0FDFF1B4BDD
:103130001B68002B2BD11A4801F062FA194801F0E4
:103140005FFA194B164A1A60184B164A1A60002289
:103150000C210A2002F060F90246104B1A600F4B56
:103160001B68002B09D14FF0500383F31188BFF384
:103170006F8FBFF34F8F7B60FEE7084B1B68002B00
:1031800005D0064B1B680A49184602F0B1FF01F052
:10319000F9FF00BF0837BD4680BD00BF3C010020DD
:1031A0000C01002020010020340100203801002003
:1031B0008881000880B586B000AF786000F00AFB17
:1031C00003463B610023FB810023FB8221E03B7B24
:1031D00003F02003DBB2002B0CD03B7BC3F30403D2
:1031E000DBB21A46012393409AB2FB8913439BB288
:1031F000FB810EE03B7BC3F30403DBB21A460123E1
:1032000093409BB283F0FF039AB2FB8913409BB2B9
:10321000FB81144B186807F10C010023002202F017
:103220007DFC0346002BD2D10F4B186800234FF0D2
:10323000FF32002102F072FC07F10E03184600F085
:1032400015F8094B186800230022002102F00EFA3D
:1032500064231A4607F110031146184600F020F9BE
:10326000B4E700BFAC2E0120982E012080B582B0BB
:1032700000AF78607B681B88DBB219467420FDF7CD
:1032800067FF00217620FDF763FF00BF0837BD46CA
:1032900080BD00BF80B58CB002AFF860B9603B6004
:1032A0001346FB80FB68002B09D14FF0500383F3DA
:1032B0001188BFF36F8FBFF34F8F3B61FEE73B6B0E
:1032C000042B09D94FF0500383F31188BFF36F8F9C
:1032D000BFF34F8F7B61FEE7FB88B96B184600F0A8
:1032E000BFFE38623B6A002B00F0AA803B6A1A6B73
:1032F000FB8803F18043013B9B001344FB61FB69A6
:1033000023F00703FB61FB6903F00703002B09D0DF
:103310004FF0500383F31188BFF36F8FBFF34F8FCC
:10332000BB61FEE7FB880093FB6B3A6BB968386AB8
:1033300000F090FD3A68F968F86901F0F7FD02467F
:103340003B6A1A607B6B002B02D07B6B3A6A1A6077
:1033500001F0EAFE4B4B1B6801334A4A13604A4BAB
:103360001B68002B09D1484A3B6A1360454B1B6818
:10337000012B0FD100F0C2FD0CE0444B1B68002B69
:1033800008D1414B1B68DA6A3B6B9A4202D83E4A2D
:103390003B6A13603E4B1B6801333D4A13603C4B54
:1033A0001A683B6A1A643B6A002B26D00320FEF79A
:1033B00001FE03461A463B6A5A64386A02F018FF57
:1033C000034619463B6A34331A460320FEF77CFF56
:1033D000386A02F00DFF034619463B6ADB6ADBB22E
:1033E0001A460320FDF782FB386A02F001FF03460C
:1033F0001A4603211B20FDF725F8386A02F0F8FE73
:1034000003461846FCF714FF3B6ADB6A01229A4028
:10341000204B1B6813431F4A13603B6ADA6A13464A
:103420009B0013449B001C4A1A443B6A0433194610
:10343000104601F013F901237B6201F0A3FE07E0BF
:103440004FF0FF337B62002203214320FCF7FAFF99
:103450007B6A012B11D10D4B1B68002B0DD00A4B41
:103460001B68DA6A3B6B9A4207D20C4B4FF08052D2
:103470001A60BFF34F8FBFF36F8F7B6A18462837F0
:10348000BD4680BD20020020480100202C02002003
:103490003C020020280200204C01002004ED00E046
:1034A00080B58AB000AF7860396000237B627B68AA
:1034B000002B09D14FF0500383F31188BFF36F8FB6
:1034C000BFF34F8FFB60FEE73B68002B09D14FF045
:1034D000500383F31188BFF36F8FBFF34F8F3B61AE
:1034E000FEE73D4B1B68002B09D04FF0500383F3E0
:1034F0001188BFF36F8FBFF34F8F7B61FEE700F042
:10350000C1F8364B1B683B627B681A683B68134402
:10351000FB617B681A683B6A9A420BD97B681A6820
:10352000FB699A4211D9FA693B6A9A420DD9012383
:103530007B620AE07B681A68FB699A4203D8FA69E1
:103540003B6A9A4201D901237B627B68FA691A605F
:103550007B6A002B2ED0F9698820FDF7F7F8204B05
:103560001B68184602F044FE03461846FDF7B0FB00
:1035700002F04CFE0346184602F03AFE0346184697
:10358000FDF7A6FB164B1B680433184601F0C4F880
:103590000346002B0BD1124B1B68DB6A012202FA97
:1035A00003F3DA430F4B1B6813400E4A1360F869AC
:1035B00000F020FD00F074F8B861BB69002B07D162
:1035C000094B4FF080521A60BFF34F8FBFF36F8FDC
:1035D00000BF2837BD4680BD4402002024020020E1
:1035E000480100202802002004ED00E080B588B0EA
:1035F00004AF0023039300230293002301930023CD
:103600000093002382221A491A48FFF743FEF8600C
:10361000FB68012B02D1FFF7BBFAF860FB68012BB6
:1036200015D14FF0500383F31188BFF36F8FBFF3B1
:103630004F8F7B60104B4FF0FF321A600F4B01220F
:103640001A600F4B00221A6001F0E2FC0CE0FB68EC
:10365000002B09D14FF0500383F31188BFF36F8F14
:10366000BFF34F8FBB60FEE700BF1037BD4680BD84
:1036700090810008253E0008400200202C02002016
:103680002402002080B400AF044B1B680133034ABE
:10369000136000BFBD465DF8047B70474402002004
:1036A00080B584B000AF0023FB60414B1B68002B4A
:1036B00009D14FF0500383F31188BFF36F8FBFF32D
:1036C0004F8F7B60FEE701F02FFD394B1B68013BFC
:1036D000374A1360364B1B68002B62D1354B1B6891
:1036E000002B5ED035E0344BDB68DB68BB60BB6829
:1036F0001833184601F010F8BB680433184601F07F
:103700000BF8B86802F074FD03461846FCF790FD0C
:10371000BB68DB6A01229A40284B1B681343274A87
:103720001360BB68DA6A13469B0013449B00244A6B
:103730001A44BB6804331946104600F08FFFBB687B
:10374000DA6A204B1B68DB6A9A4202D31E4B0122C5
:103750001A60194B1B68002BC5D11C4B1B68002B32
:1037600011D00CE000F046F80346002B02D0164BB7
:1037700001221A60154B1B68013B144A1360134B5E
:103780001B68002BEED1104B1B68012B09D10123C4
:10379000FB600F4B4FF080521A60BFF34F8FBFF3A7
:1037A0006F8F01F0EFFCFB6818461037BD4680BDF7
:1037B0004402002020020020E00100202802002016
:1037C0004C0100204801002034020020300200207B
:1037D00004ED00E080B483B000AF054B1B687B6054
:1037E0007B6818460C37BD465DF8047B704700BF08
:1037F0002402002080B586B000AF00237B615D4BC2
:103800001B68012B03D05C4B1B68002B07D15B4B63
:103810001B680133594A1360002003F051FA554BDD
:103820001B68544B1B68002B40F09480544B1B6862
:103830000133534A1360524B1B683B613B69002BB9
:103840001FD1504B1B681B68002B09D04FF0500351
:1038500083F31188BFF36F8FBFF34F8F3B60FEE799
:10386000484B1B68FB60484B1B68464A1360464A3E
:10387000FB681360454B1B680133444A136000F03A
:1038800035FC434B1B683A699A4254D33D4B1B6845
:103890001B68002B01D1012300E00023002B04D082
:1038A0003B4B4FF0FF321A6045E0364B1B68DB683C
:1038B000DB68BB60BB685B687B603A697B689A4287
:1038C00003D2334A7B68136035E0BB680433184683
:1038D00000F022FFBB689B6A002B04D0BB68183342
:1038E000184600F019FFB86802F082FC034618463B
:1038F000FCF79EFCBB68DB6A01229A40254B1B68E3
:103900001343244A1360BB68DA6A13469B001344CE
:103910009B00214A1A44BB6804331946104600F044
:103920009DFEBB68DA6A1D4B1B68DB6A9A42ADD309
:1039300001237B61AAE7194B1B68DA6A1649134613
:103940009B0013449B000B441B68012B07D90123E8
:103950007B6104E0084B1B680133074A1360104B7E
:103960001B68002B01D001237B617B691846183747
:10397000BD4680BD440200203002002078020020B5
:1039800024020020D8010020DC01002038020020A1
:1039900040020020280200204C01002048010020A5
:1039A0003402002080B586B000AF2A4B1B68002B84
:1039B00003D0294B01221A6048E0274B00221A60ED
:1039C000264B1B68BB60BB68B3FA83F3FB71FB79C2
:1039D000C3F11F033B6122493A6913469B0013441C
:1039E0009B000B441B68002B09D14FF0500383F35D
:1039F0001188BFF36F8FBFF34F8F7B61FEE73A698A
:103A000013469B0013449B00154A1344FB60FB685C
:103A10005B685A68FB685A60FB685A68FB68083341
:103A20009A4204D1FB685B685A68FB685A60FB687D
:103A30005B68DB680B4A136002F0E8FB034618463C
:103A400002F0D6FB03461846FCF700FF00BF18370C
:103A5000BD4680BD44020020340200202802002020
:103A60004C0100204801002080B584B000AF786090
:103A700039607B68002B09D14FF0500383F3118824
:103A8000BFF36F8FBFF34F8FBB60FEE7194B1B680F
:103A900018331946786800F005FE164B1B6804338E
:103AA000184600F039FE0346002B0BD1114B1B6862
:103AB000DB6A012202FA03F3DA430F4B1B6813405F
:103AC0000D4A13603B68B3F1FF3F07D1094B1B68F8
:103AD00004331946094800F0C1FD07E0084B1A6895
:103AE0003B681344FB60F86800F084FA00BF1037AD
:103AF000BD4680BD48010020280200200C020020A5
:103B00002402002080B586B000AFF860B9607A600A
:103B1000FB68002B09D14FF0500383F31188BFF3EA
:103B20006F8FBFF34F8F3B61FEE7344B1B68183339
:103B30001946F86800F092FD304B1B6804331846B4
:103B400000F0EAFD0346002B0BD12C4B1B68DB6A0F
:103B5000012202FA03F3DA43294B1B681340284A77
:103B600013607B68012B25D1244B1B68184602F09B
:103B70003FFB03461A4603218A20FCF763FC1F4BD8
:103B80001B68184602F034FB03461846FDF7A0F800
:103B900002F03CFB0346184602F02AFB0346184697
:103BA000FDF796F8154B1B6804331946154800F0CD
:103BB00055FD1EE0144B1A68BB6813447B6179699C
:103BC0008820FCF7C3FD0D4B1B68184602F010FB64
:103BD00003461846FDF77CF802F018FB034618462A
:103BE00002F006FB03461846FDF772F8786900F00C
:103BF00001FA00BF1837BD4680BD00BF4801002054
:103C0000280200200C0200202402002080B586B08B
:103C100000AF78607B68DB68DB683B613B69002B49
:103C200009D14FF0500383F31188BFF36F8FBFF3B7
:103C30004F8FFB60FEE73B691833184600F06CFDC0
:103C4000204B1B68002B23D13B690433184600F03E
:103C500063FD386902F0CCFA03461846FCF7E8FA2F
:103C60003B69DB6A01229A40174B1B681343164AD3
:103C700013603B69DA6A13469B0013449B00134AA6
:103C80001A443B6904331946104600F0E7FC05E08E
:103C90003B69183319460E4800F0E0FC3B69DA6ACC
:103CA0000C4B1B68DB6A9A4205D901237B610A4BE6
:103CB00001221A6001E000237B617B6918461837F6
:103CC000BD4680BD44020020280200204C01002097
:103CD000E0010020480100203402002080B485B0BB
:103CE00000AF78607B68002B09D14FF0500383F35D
:103CF0001188BFF36F8FBFF34F8FFB60FEE7074B59
:103D00001A687B681A60064B1A687B685A6000BFA5
:103D10001437BD465DF8047B704700BF38020020B1
:103D20002402002080B586B000AF786039607B68DF
:103D3000002B09D14FF0500383F31188BFF36F8F2D
:103D4000BFF34F8FBB60FEE73B68002B09D14FF0FC
:103D5000500383F31188BFF36F8FBFF34F8FFB6066
:103D6000FEE701F0E1F91C4B1B683B613B681B68F7
:103D7000B3F1FF3F02D100237B6126E07B681A6824
:103D8000164B1B689A4207D07B685A683B699A4277
:103D900002D801237B6118E07B685B683A69D21A1C
:103DA0003B681B689A420ED23B681A687B68596868
:103DB0003B69CB1A1A443B681A607868FFF78EFF9C
:103DC00000237B6101E001237B6101F0DBF97B696A
:103DD00018461837BD4680BD240200203802002056
:103DE00080B400AF034B01221A6000BFBD465DF8EE
:103DF000047B70473402002080B485B000AF786047
:103E00007B68002B05D07B68BB60BB685B6CFB608C
:103E100001E00023FB60FB6818461437BD465DF8DF
:103E2000047B704780B582B000AF786000F0A6F8E0
:103E3000064B1B68012BF9D9054B4FF080521A60D5
:103E4000BFF34F8FBFF36F8FF0E700BF4C0100202F
:103E500004ED00E080B586B000AFF860B9607A602C
:103E60003B6000237B6112E0BA687B6913441978D8
:103E7000FA687B69134434330A461A70BA687B695E
:103E800013441B78002B06D07B6901337B617B696F
:103E9000092BE9D900E000BFFB68002283F83D2030
:103EA0007B68042B01D904237B60FB687A68DA62A3
:103EB000FB687A689A64FB680022DA64FB68043362
:103EC000184600F0BDFBFB681833184600F0B8FB3D
:103ED000FB68FA681A617B68C3F10502FB689A61A6
:103EE000FB68FA685A62FB6800221A65FB680022C8
:103EF00083F8542000BF1837BD4680BD80B582B01E
:103F000000AF00237B600CE07A6813469B001344EB
:103F10009B00124A1344184600F072FB7B68013381
:103F20007B607B68042BEFD90D4800F069FB0D48DE
:103F300000F066FB0C4800F063FB0C4800F060FBEF
:103F40000B4800F05DFB0B4B054A1A600A4B054A13
:103F50001A6000BF0837BD4680BD00BF4C0100207D
:103F6000B0010020C4010020E0010020F401002085
:103F70000C020020D8010020DC01002080B582B0B6
:103F800000AF28E0FFF77EFB174B1B68002B0CBF30
:103F900001230023DBB27B60FFF782FB7B68002BF1
:103FA00019D101F0C1F8104BDB68DB683B603B685E
:103FB0000433184600F0B0FB0C4B1B68013B0B4A66
:103FC00013600B4B1B68013B094A136001F0DAF8E0
:103FD000386800F07BF8064B1B68002BD2D100BF7D
:103FE0000837BD4680BD00BFF4010020200200203C
:103FF0000802002080B582B000AF7860134B1B68C8
:104000007A685A60124B1B687A689A4209D2114B3F
:104010001A680E4B1B6804331946104600F042FB29
:1040200010E00D4B1A68094B1B6804331946104603
:1040300000F038FB094B1B687A689A4202D2074AA3
:104040007B68136000BF0837BD4680BD4801002073
:1040500024020020DC010020D801002040020020C2
:1040600080B584B000AF03463960FB803B68002B0D
:1040700006D1FB889B00184602F0E6FE034600E0EE
:104080003B68BB60BB68002B0ED0582002F0DCFE02
:10409000F860FB68002B03D0FB68BA681A6305E080
:1040A000B86802F021FF01E00023FB60FB68002BF1
:1040B00007D0FB68186BFB889B001A46A52103F00C
:1040C0006FF8FB6818461037BD4680BD80B582B0DA
:1040D00000AF78607B681B6B184602F005FF7868BC
:1040E00002F002FF00BF0837BD4680BD80B483B038
:1040F00000AF0F4B1B681B68002B01D1012300E0B0
:104100000023002B04D00B4B4FF0FF321A6008E065
:10411000074B1B68DB68DB687B607B685B68054A74
:10412000136000BF0C37BD465DF8047B704700BFCD
:10413000D80100204002002080B483B000AF054BBE
:104140001B687B607B6818460C37BD465DF8047BB6
:10415000704700BF4801002080B483B000AF0B4B14
:104160001B68002B02D101237B6008E0084B1B6811
:10417000002B02D102237B6001E000237B607B687F
:1041800018460C37BD465DF8047B70472C020020B2
:104190004402002090B585B000AF78607B68FB607A
:1041A0007B68002B00F08B80FB68DA6A464B1B684B
:1041B000DB6A9A4280F08380FB689B69002B06DBF8
:1041C000414B1B68DB6AC3F10502FB689A61FB681F
:1041D0005969FB68DA6A13469B0013449B003B4A0B
:1041E0001344994201D1012300E00023002B41D068
:1041F000FB680433184600F08FFA0346002B15D1F4
:10420000FB68DA6A314913469B0013449B000B4458
:104210001B68002B0AD1FB68DB6A012202FA03F358
:10422000DA432B4B1B681340294A1360264B1B684B
:10423000DA6AFB68DA62F86801F0DAFF03461846CA
:10424000FBF7F6FFFB68DB6A01229A40204B1B68F4
:1042500013431F4A1360FB68DA6A13469B0013443A
:104260009B001A4A1A44FB6804331946104600F0B2
:10427000F5F904E0144B1B68DA6AFB68DA62F86847
:1042800001F0B6FF03461C46F86801F0B1FF034693
:1042900019460320FCF766FC0346224603218E20C4
:1042A000FCF770F9F86801F0A3FF03461946064BC6
:1042B0001B68DB6ADBB21A460320FCF717FC00BF61
:1042C0001437BD4690BD00BF480100204C010020BE
:1042D0002802002090B587B000AF78607B683B6112
:1042E00000237B617B68002B00F093804B4B1B68A5
:1042F0003A699A4209D04FF0500383F31188BFF313
:104300006F8FBFF34F8FBB60FEE73B69DB6C002B09
:1043100009D14FF0500383F31188BFF36F8FBFF3C0
:104320004F8FFB60FEE73B69DB6C5A1E3B69DA642A
:104330003B69DA6A3B699B6C9A426AD03B69DB6CE9
:10434000002B66D13B690433184600F0E5F90346BB
:10435000002B15D13B69DA6A314913469B0013449F
:104360009B000B441B68002B0AD13B69DB6A0122CE
:1043700002FA03F3DA432B4B1B681340294A1360FC
:10438000386901F035FF03461C46386901F030FFFB
:10439000034619460320FCF7E5FB034622460321AA
:1043A0008F20FCF7EFF8386901F022FF0346194629
:1043B0003B699B6CDBB21A460320FCF797FB3B6919
:1043C0009A6C3B69DA623B69DB6AC3F105023B69BF
:1043D0009A61386901F00CFF03461846FBF728FF85
:1043E0003B69DB6A01229A400E4B1B6813430D4A5E
:1043F00013603B69DA6A13469B0013449B00084A2A
:104400001A443B6904331946104600F027F901238A
:104410007B617B6918461C37BD4690BD4801002072
:104420004C0100202802002080B400AF074B1B681D
:10443000002B04D0054B1B68DA6C0132DA64034BA5
:104440001B681846BD465DF8047B70474801002094
:1044500080B487B000AF7860396000237B610023AF
:104460003B610023FB6000237B6176E001227B69D6
:1044700002FA03F33B613B681A683B691340FB6037
:10448000FA683B699A4265D17B681A687B695B0070
:10449000032101FA03F3DB431A407B681A607B684F
:1044A0001A683B681B7919467B695B0001FA03F3C4
:1044B0001A437B681A603B681B79012B03D03B6869
:1044C0001B79022B2ED17B689A687B695B000321E4
:1044D00001FA03F3DB431A407B689A607B689A68B1
:1044E0003B685B7919467B695B0001FA03F31A4369
:1044F0007B689A607B685A687B699BB2012101FAEC
:1045000003F3DB431A407B685A607B685A683B6858
:104510009B7919467B699BB201FA03F39BB21A435C
:104520007B685A607B68DA687B699BB25B00032119
:1045300001FA03F3DB431A407B68DA607B68DA68D0
:104540003B68DB7919467B695B0001FA03F31A4388
:104550007B68DA607B6901337B617B690F2B85D9CE
:1045600000BF1C37BD465DF8047B704780B485B042
:1045700000AF78600B467B8013467B700023FB60A6
:104580000023BB607A787B8803F007039B0002FA64
:1045900003F3FB607B88DB089BB218467B88DB0853
:1045A0009BB21A467B68083253F822207B8803F0BE
:1045B00007039B000F2101FA03F3DB4302EA030127
:1045C0007B6800F1080243F822107B88DB089BB26D
:1045D0001A467B68083253F82220FB681343BB60FD
:1045E0007B88DB089BB21A467B680832B96843F8BF
:1045F000221000BF1437BD465DF8047B704700BF32
:1046000080B483B000AF78607B6803F108027B68F8
:104610005A607B684FF0FF329A607B6803F10802B2
:104620007B68DA607B6803F108027B681A617B684B
:1046300000221A6000BF0C37BD465DF8047B70474E
:1046400080B483B000AF78607B6800221A6100BF3D
:104650000C37BD465DF8047B704700BF80B485B061
:1046600000AF786039607B685B68FB603B68FA6824
:104670005A60FB689A683B689A60FB689B683A6876
:104680005A60FB683A689A603B687A681A617B688E
:104690001B685A1C7B681A6000BF1437BD465DF862
:1046A000047B704780B485B000AF786039603B68A8
:1046B0001B68BB60BB68B3F1FF3F03D17B681B691C
:1046C000FB600CE07B680833FB6002E0FB685B6822
:1046D000FB60FB685B681A68BB689A42F6D9FB68A6
:1046E0005A683B685A603B685B683A689A603B6806
:1046F000FA689A60FB683A685A603B687A681A619F
:104700007B681B685A1C7B681A6000BF1437BD4663
:104710005DF8047B704700BF80B485B000AF78605F
:104720007B681B69FB607B685B687A6892689A604B
:104730007B689B687A6852685A60FB685A687B6835
:104740009A4203D17B689A68FB685A607B680022B2
:104750001A61FB681B685A1EFB681A60FB681B68BD
:1047600018461437BD465DF8047B704780B500AF2E
:10477000164A164BD3F8883043F47003C2F88830D9
:10478000134A134B1B6843F001031360104B0022C4
:104790009A600F4A0E4B1B6823F0847323F4803316
:1047A00013600B4B0B4A5A60094A094B1B6823F4F0
:1047B00080231360064B0022DA6000F00DF8034BF3
:1047C0004FF000629A6000BF80BD00BF00ED00E0C6
:1047D000003802401030002480B483B000AF0023C2
:1047E0007B6000233B60434A424B1B6843F48033A9
:1047F0001360404B1B6803F400333B607B6801335C
:104800007B603B68002B03D17B68B3F5A04FF0D1F0
:10481000384B1B6803F40033002B02D001233B60AC
:1048200001E000233B603B68012B02D1314B324A4F
:104830005A60304A2F4B1B6C43F0805313642F4A4D
:104840002E4B1B6843F4404313602A4A294B9B6854
:104850009360284A274B9B6843F400439360254AA2
:10486000244B9B6843F4A0539360224A214B1B685E
:1048700043F08073136000BF1E4B1B6803F000738E
:10488000002BF9D01D4A1D4B1B6843F48033136085
:1048900000BF1A4B5B6803F48033002BF9D0174A32
:1048A000164B1B6843F40033136000BF134B5B6867
:1048B00003F40033002BF9D0114B40F205721A605B
:1048C0000C4A0C4B9B6823F003039360094A094B85
:1048D0009B6843F00203936000BF064B9B6803F0A4
:1048E0000C03082BF9D100BF0C37BD465DF8047BE3
:1048F000704700BF00380240085A4007007000406F
:10490000003C024080B588B000AF7860334B1B6834
:10491000BB61334A07F110031188927819809A70AD
:104920000023BB770123FB730123BB7300F03CF929
:104930000021002000F05CF82A4B18687B7F1946A4
:1049400000234FF0FF3201F0E9F8012000F0BAF93E
:10495000254B186807F10E0101234FF0FF3200F0DC
:1049600085FE7B7F07F12002134413F8103C7A7F09
:104970001146184600F03CF87B7F07F120021A44EC
:1049800012F8102C013AD2B207F120010B4403F8BF
:10499000102C002000F096F93B7C1A467B7C1344D7
:1049A000BA7C1344002BC3D10023FB7709E0FB7FC3
:1049B00007F120021344032203F8102CFB7F01337C
:1049C000FB77FB7F022BF2D9084B186807F10F0128
:1049D00001234FF0FF3200F049FEA9E7B02E01207D
:1049E000B8810008A02E0120BC2E0120B82E012085
:1049F00080B588B000AF03460A46FB711346BB7111
:104A0000052303F01F03DAB23B7D62F304033B7519
:104A10003B7D6FF345133B755E4B1B78FA799A42E9
:104A200005D15D4B1B78BA799A4200F0AE80002325
:104A3000FB77584B1B78FA799A420DD2554B1A786E
:104A4000FB79D31AFB77032303F01F03DAB23B7C15
:104A500062F304033B740CE04E4B1B78FA79D31AD3
:104A6000FB77022303F01F03DAB23B7C62F30403FB
:104A70003B740023BB77484B1B78BA799A420DD21E
:104A8000454B1A78BB79D31ABB77042303F01F0375
:104A9000DAB23B7B62F304033B730CE03E4B1B78C2
:104AA000BA79D31ABB77052303F01F03DAB23B7B35
:104AB00062F304033B730023BB612DE03B7C43F0B6
:104AC00020033B74354B186807F1100101234FF0A8
:104AD000FF3200F0CBFD324B186807F114010123BF
:104AE0004FF0FF3200F0C2FD2E4B186800234FF04C
:104AF000FF32002101F012F83B7C6FF345133B7449
:104B0000264B186807F1100101234FF0FF3200F027
:104B1000ADFDBB690133BB61FA7FBB699A42CDDC55
:104B20000023BB612DE03B7B43F020033B731B4B19
:104B3000186807F10C0101234FF0FF3200F096FDD9
:104B4000174B186807F1140101234FF0FF3200F0F2
:104B50008DFD144B186800234FF0FF32002100F048
:104B6000DDFF3B7B6FF345133B730C4B186807F17C
:104B70000C0101234FF0FF3200F078FDBB690133D7
:104B8000BB61BA7FBB699A42CDDC00BF2037BD460E
:104B900080BD00BF4802002049020020AC2E012049
:104BA000A82E01209C2E012080B584B000AF0323E5
:104BB00003F01F03DAB23B7A62F304033B7204236F
:104BC00003F01F03DAB23B7962F304033B71052360
:104BD00003F01F03DAB23B7862F304033B703B78C7
:104BE0006FF345133B700023FB602CE03B7A43F0EE
:104BF00020033B72304B186807F1080101234FF086
:104C0000FF3200F033FD2D4B1868394601234FF079
:104C1000FF3200F02BFD2A4B186800234FF0FF32C3
:104C2000002100F07BFF3B7A6FF345133B72224B70
:104C3000186807F1080101234FF0FF3200F016FD5C
:104C4000FB680133FB60FB68032BCFDD0023FB60B7
:104C50002AE03B7943F020033B71174B1868391D5C
:104C600001234FF0FF3200F001FD144B1868394664
:104C700001234FF0FF3200F0F9FC114B18680023BC
:104C80004FF0FF32002100F049FF3B796FF34513ED
:104C90003B71094B1868391D01234FF0FF3200F0BA
:104CA000E5FCFB680133FB60FB68022BD1DD00BF34
:104CB0001037BD4680BD00BFAC2E0120A82E0120BC
:104CC0009C2E012080B586B000AF0346FB71062301
:104CD00003F01F03DAB23B7D62F304033B753B7DB7
:104CE00043F020033B75072303F01F03DAB23B7C3C
:104CF00062F304033B74FB7903F00103DAB23B7CFB
:104D000062F345133B74072303F01F03DAB23B7BC6
:104D100062F304033B733B7B43F020033B730823A4
:104D200003F01F03DAB23B7A62F304033B72FB79B0
:104D3000002B04D03B7A43F020033B7203E03B7A24
:104D40006FF345133B722D4B186807F114010123D3
:104D50004FF0FF3200F08AFC294B186807F10C0174
:104D600001234FF0FF3200F081FC264B186800232E
:104D70004FF0FF32002100F0D1FE204B186807F100
:104D8000100101234FF0FF3200F070FC1C4B18683B
:104D900007F1080101234FF0FF3200F067FC194BC7
:104DA000186800234FF0FF32002100F0B7FE3B7D72
:104DB0006FF345133B753B7B6FF345133B730F4B11
:104DC000186807F1140101234FF0FF3200F04EFC88
:104DD0000B4B186807F10C0101234FF0FF3200F074
:104DE00045FC084B186800234FF0FF32002100F00B
:104DF00095FE00BF1837BD4680BD00BFAC2E012018
:104E0000A82E01209C2E012080B500AFFCF71EFFCC
:104E100000BF80BD80B586B000AF0023FB75284B76
:104E20001B68002B04D12748FDF7FCFA002343E060
:104E3000254B1B68002B3CD1EFF31083BB60BB6894
:104E4000FB6001237B607B6883F310881F4B1B682A
:104E500001331E4A13601A4B1B6801221A6301F0CA
:104E6000D5F90346184601F0C3F90346FB75FB7DEF
:104E7000002B10D10320FDF79DF80346FB75FB7D49
:104E8000134A19460320FDF71FFAFB7D002219463D
:104E90000320FBF72BFEFB7D1846FBF7D7FC0B4BE3
:104EA0001B68013B094A1360FB683B613B6983F364
:104EB0001088034B1B681B6B18461837BD4680BD16
:104EC000F4000020BC810008FC000020F800002055
:104ED0000882000880B500AF064B1B6800221A63E9
:104EE000054B1B68002B02D0034B1B68984700BF83
:104EF00080BD00BFF40000204C02002080B582B0CD
:104F000000AF78607B68002B04D10748FDF78AFA70
:104F1000002304E000217868FDF734FA03461846C0
:104F20000837BD4680BD00BF4085000880B485B00D
:104F300000AFF860B9607A60FB68043BFB60FB6817
:104F40004FF080721A60FB68043BFB60BA68FB6834
:104F50001A60FB68043BFB600C4AFB681A60FB6844
:104F6000143BFB607A68FB681A60FB68043BFB60DB
:104F7000FB686FF002021A60FB68203BFB60FB6875
:104F800018461437BD465DF8047B7047914F000802
:104F900080B483B000AF0C4B1B68B3F1FF3F09D066
:104FA0004FF0500383F31188BFF36F8FBFF34F8F20
:104FB0003B60FEE74FF0500383F31188BFF36F8F20
:104FC000BFF34F8F7B60FEE72C000020064B196873
:104FD0000868B0E8F04F80F30988BFF36F8F4FF097
:104FE000000080F3118870474801002000BF00BF17
:104FF00006480068006880F3088862B661B6BFF3AF
:105000004F8FBFF36F8F00DF00BF00BF08ED00E0E0
:1050100080B586B000AF3B4B1B683B4A934209D139
:105020004FF0500383F31188BFF36F8FBFF34F8F9F
:10503000FB60FEE7334B1B68344A934209D14FF0C3
:10504000500383F31188BFF36F8FBFF34F8F3B6122
:10505000FEE72F4B7B617B691B78DBB2BB607B6912
:10506000FF221A707B691B78DBB2FB71FB79DBB224
:1050700003F05003DAB2274B1A70274B07221A604D
:1050800009E0254B1B68013B234A1360FB79DBB227
:105090005B00DBB2FB71FB79DBB2DBB25BB2002BF6
:1050A000EFDB1D4B1B681B021B4A13601A4B1B686E
:1050B00003F4E063184A1360BB68DAB27B691A70C4
:1050C000164A164B1B6843F470031360134A134BC4
:1050D0001B6843F07043136000F0D2F8104B0022BD
:1050E0001A6000F0E9F80F4A0E4B1B6843F040438A
:1050F0001360FFF77DFFFFF74BFF002318461837BB
:10510000BD4680BD00ED00E071C20F4170C20F418D
:1051100000E400E0680200206C02002020ED00E0C6
:105120002C00002034EF00E080B483B000AF4FF0DB
:10513000500383F31188BFF36F8FBFF34F8F3B6032
:105140000E4B1B6801330D4A13600C4B1B68012B7F
:105150000ED10B4B1B68DBB2002B09D04FF0500374
:1051600083F31188BFF36F8FBFF34F8F7B60FEE730
:1051700000BF0C37BD465DF8047B70472C00002053
:1051800004ED00E080B483B000AF114B1B68002B2E
:1051900009D14FF0500383F31188BFF36F8FBFF332
:1051A0004F8F3B60FEE70A4B1B68013B084A1360C8
:1051B000074B1B68002B04D100237B607B6883F3C3
:1051C000118800BF0C37BD465DF8047B704700BFF7
:1051D0002C000020EFF30980BFF36F8F144B1A6887
:1051E0001EF0100F08BF20ED108A20E9F04F10606C
:1051F0004DF8043D4FF0500080F31188BFF34F8FFE
:10520000BFF36F8FFEF7CEFB4FF0000080F31188E5
:1052100008BC19680868B0E8F04F1EF0100F08BF0E
:10522000B0EC108A80F30988BFF36F8F704700BF1E
:105230004801002000BF00BF80B584B000AFEFF38D
:1052400011824FF0500383F31188BFF36F8FBFF3C8
:105250004F8FBA607B60FEF7CDFA0346002B03D078
:10526000064B4FF080521A600023FB60FB6883F30B
:10527000118800BF1037BD4680BD00BF04ED00E0BF
:1052800080B400AF084A094B1B680949A1FB03130E
:105290009B09013B1360074B07221A6000BFBD4604
:1052A0005DF8047B704700BF14E000E018000020A8
:1052B000D34D621010E000E0DFF80C00016841F40B
:1052C00070010160704700BF88ED00E080B485B0D8
:1052D00000AFEFF30583FB60FB680F2B13D9164A71
:1052E000FB6813441B78FB72144B1B78FA7A9A42C2
:1052F00009D24FF0500383F31188BFF36F8FBFF3D0
:105300004F8F3B60FEE70E4B1B6803F4E0620D4BD2
:105310001B689A4209D94FF0500383F31188BFF3F9
:105320006F8FBFF34F8F7B60FEE700BF1437BD4622
:105330005DF8047B704700BFF0E300E068020020E6
:105340000CED00E06C02002080B584B000AF786006
:1053500039607B68FB60FB68002B09D14FF050037C
:1053600083F31188BFF36F8FBFF34F8FBB60FEE7EE
:10537000FFF7DAFEFB681A68FB68DB6BF968096CFB
:1053800001FB03F31A44FB685A60FB6800229A632E
:10539000FB681A68FB689A60FB681A68FB68DB6B3D
:1053A000013BF968096C01FB03F31A44FB68DA60FE
:1053B000FB684FF0FF325A64FB684FF0FF329A648B
:1053C0003B68002B14D1FB681B69002B1AD0FB68CB
:1053D00010331846FEF71AFC0346012B12D10D4B71
:1053E0004FF080521A60BFF34F8FBFF36F8F09E009
:1053F000FB6810331846FFF703F9FB68243318469F
:10540000FFF7FEF8FFF7BEFE012318461037BD4632
:1054100080BD00BF04ED00E0B0B58AB000AFF86019
:10542000B9601346FB7100233B62FB68002B09D176
:105430004FF0500383F31188BFF36F8FBFF34F8F8B
:105440007B61FEE7BB68002B02D100237B6205E095
:10545000FB68BA6802FB03F301337B627B6A543357
:10546000184601F0F1FCF861FB69002B53D0BB68D2
:10547000002B03D1FB69FA691A6004E0FB6903F1B0
:105480005402FB691A60FB69FA68DA63FB69BA685F
:105490001A640121F869FFF757FFFB69FA7983F86D
:1054A0005020F86900F098FE03461A46234B9B5C97
:1054B0001846FCF77FFD03461A46FB69DA64F86973
:1054C00000F08AFE03461A461C4B9B5C1833DBB285
:1054D0001D46F86900F080FE03461A46174B9C5C97
:1054E000F86900F06BFE03461A4621462846FAF793
:1054F000A9FFF86900F070FE03461A460F4B9C5C4A
:10550000F86900F05BFE0346002219462046FBF7CF
:1055100067FBFB693B623B6A002B09D14FF05003EC
:1055200083F31188BFF36F8FBFF34F8FBB61FEE72B
:105530003B6A18462837BD46B0BD00BF300000208A
:10554000B0B584B000AF0346FB71542001F07CFC81
:10555000F860FB68002B69D0FB6800225A60FB688A
:1055600000221A60FB6800229A60FB680022DA6061
:10557000FB6800229A63FB680122DA63FB68002261
:105580001A64FB684FF0FF325A64FB684FF0FF3239
:105590009A64FB68FA7983F85020FB681033184648
:1055A000FFF72EF8FB6824331846FFF729F8F86850
:1055B00000F012FE03461A462B4B9B5C1846FCF784
:1055C000F9FC03461A46FB68DA64F86800F004FE4A
:1055D00003461A46244B9B5C1833DBB21D46F86821
:1055E00000F0FAFD03461A461F4B9C5CF86800F079
:1055F000E5FD03461A4621462846FAF723FFF868D8
:1056000000F0EAFD03461A46174B9C5CF86800F070
:10561000D5FD0346002219462046FBF7E1FA002398
:1056200000220021F86800F021F80AE00E4B5B78B8
:105630004033DBB218460C4B5B7800221946FAF770
:1056400001FFFB68002B09D14FF0500383F3118851
:10565000BFF36F8FBFF34F8FBB60FEE7FB68184649
:105660001037BD46B0BD00BF30000020B0B58EB0D1
:1056700000AFF860B9607A603B6000237B63FB6831
:105680003B633B6B002B09D14FF0500383F3118830
:10569000BFF36F8FBFF34F8FFB61FEE7BB68002B3B
:1056A00003D13B6B1B6C002B01D1012300E00023D5
:1056B000002B09D14FF0500383F31188BFF36F8F94
:1056C000BFF34F8F3B62FEE73B68022B03D13B6B7E
:1056D000DB6B012B01D1012300E00023002B09D15A
:1056E0004FF0500383F31188BFF36F8FBFF34F8FD9
:1056F0007B62FEE7FEF730FD0346002B02D17B689C
:10570000002B01D1012300E00023002B09D14FF031
:10571000500383F31188BFF36F8FBFF34F8FBB62CA
:10572000FEE7FFF701FD3B6B9A6B3B6BDB6B9A422D
:1057300002D33B68022B64D1386B00F04DFD034669
:105740001A46884B9B5C2033DBB21D46386B00F059
:1057500043FD03461A46834B9C5C386B00F02EFDDC
:1057600003461A4621462846FAF76CFE386B00F0CD
:1057700033FD03461A467B4B9C5C386B00F01EFDE4
:1057800003461D46386B00F027FD03461A46754B4D
:105790009B5C022B05D03B6B9B6BDBB20133DBB216
:1057A00000E000231A4629462046FBF719FA3A681A
:1057B000B968386B00F090FBF8623B6B5B6A002BBA
:1057C00010D03B6B24331846FEF720FA0346012B1A
:1057D00013D1654B4FF080521A60BFF34F8FBFF368
:1057E0006F8F0AE0FB6A002B07D05F4B4FF08052AF
:1057F0001A60BFF34F8FBFF36F8FFFF7C3FC012316
:10580000ABE07B68002B1DD1FFF7BCFC386B00F0D0
:10581000E3FC03461A46534B9B5C4833DBB21D4600
:10582000386B00F0D9FC03461A464E4B9C5C386B33
:1058300000F0C4FC03461A4621462846FAF702FE49
:1058400000238AE07B6B002B06D107F11403184676
:10585000FEF744FA01237B63FFF794FCFDF712FF88
:10586000FFF762FC3B6B5B6CB3F1FF3F02D13B6B1C
:1058700000225A643B6B9B6CB3F1FF3F02D13B6B40
:1058800000229A64FFF77EFC3A1D07F114031146CB
:105890001846FEF747FA0346002B3ED1386B00F05E
:1058A0000FFC0346002B32D0386B00F095FC03460A
:1058B0001A462C4B9B5C7033DBB21D46386B00F0F4
:1058C0008BFC03461A46274B9C5C386B00F076FC39
:1058D00003461A4621462846FAF7B4FD3B6B1033BF
:1058E0007A6811461846FEF7BFF8386B00F086FB61
:1058F000FDF7D6FE0346002B7FF413AF1A4B4FF093
:1059000080521A60BFF34F8FBFF36F8F09E7386B78
:1059100000F074FBFDF7C4FE03E7386B00F06EFB8C
:10592000FDF7BEFE386B00F057FC03461A460D4BE0
:105930009B5C4833DBB21D46386B00F04DFC0346E0
:105940001A46084B9C5C386B00F038FC03461A463C
:1059500021462846FAF776FD002318463837BD461B
:10596000B0BD00BF3000002004ED00E0B0B58EB047
:1059700000AFF860B9607A603B60FB683B633B6BEB
:10598000002B09D14FF0500383F31188BFF36F8FC1
:10599000BFF34F8FBB61FEE7BB68002B03D13B6BAE
:1059A0001B6C002B01D1012300E00023002B09D147
:1059B0004FF0500383F31188BFF36F8FBFF34F8F06
:1059C000FB61FEE73B68022B03D13B6BDB6B012BDA
:1059D00001D1012300E00023002B09D14FF0500337
:1059E00083F31188BFF36F8FBFF34F8F3B62FEE7E6
:1059F000FFF76CFCEFF311824FF0500383F3118833
:105A0000BFF36F8FBFF34F8F7A627B617B6ABB629C
:105A10003B6B9A6B3B6BDB6B9A4202D33B68022B6E
:105A200053D1386B00F0D8FB03461A463A4B9B5CC7
:105A30003033DBB21D46386B00F0CEFB03461A460E
:105A4000354B9C5C386B00F0B9FB03461A46214687
:105A50002846FAF7F7FC386B00F0BEFB03461A46FF
:105A60002D4B9C5C386B00F0A9FB034619463B6B41
:105A70009B6BDBB20133DBB21A462046FBF7B0F872
:105A80003A68B968386B00F027FA3B6B9B6CB3F14E
:105A9000FF3F12D13B6B5B6A002B13D03B6B24336F
:105AA0001846FEF7B3F80346002B0BD07B68002B9B
:105AB00008D07B6801221A6004E03B6B9B6C5A1C87
:105AC0003B6B9A6401237B631BE0386B00F084FB23
:105AD00003461A46104B9B5C5833DBB21D46386BAD
