:020000040800F2
:10000000000003201D5F0008615F0008615F0008B9
:10001000615F0008615F0008615F00080000000088
:10002000000000000000000000000000354A000849
:10003000615F000800000000354C0008954C000886
:10004000615F0008615F0008615F0008615F000890
:10005000615F0008615F0008615F0008615F000880
:10006000615F0008615F0008615F0008615F000870
:10007000615F0008615F0008615F0008615F000860
:10008000615F0008615F0008615F0008615F000850
:10009000615F0008615F0008615F0008615F000840
:1000A000615F0008615F0008615F0008615F000830
:1000B000615F0008615F0008615F0008615F000820
:1000C000615F0008615F0008615F0008615F000810
:1000D000615F0008615F0008615F0008615F000800
:1000E000615F0008615F0008615F0008615F0008F0
:1000F000615F0008615F0008615F0008615F0008E0
:10010000615F0008615F0008615F0008615F0008CF
:10011000615F0008615F0008615F0008615F0008BF
:10012000615F0008615F0008615F0008615F0008AF
:10013000615F0008615F0008615F0008615F00089F
:10014000615F0008615F0008615F0008615F00088F
:10015000615F0008615F0008615F0008615F00087F
:10016000615F0008615F0008615F0008615F00086F
:10017000615F0008615F0008615F0008615F00085F
:10018000615F0008615F0008615F0008615F00084F
:10019000615F0008615F0008615F0008615F00083F
:1001A000615F0008615F0008615F000890B484B07F
:1001B00000AF03460A46FB711346BB710023FB6088
:1001C000BB7903F003039B000F2202FA03F3FB60E9
:1001D0001649BB799B08DBB21846144ABB799B08C9
:1001E000DBB2023352F82320FB68DB431A40831C46
:1001F00041F823200D48BB799B08DBB21C460B4A13
:10020000BB799B08DBB2023352F82320F979BB7922
:1002100003F003039B0001FA03F31A43A31C40F805
:1002200023201037BD4690BC704700BF0038014006
:1002300080B588B000AF0346FB71FB79002B00D17D
:100240005AE02F4B1B68002B00D155E0FB790F2B98
:1002500003D92C4801F0F4FD4EE02B4B1B68002B1A
:1002600003D02A4801F0ECFD46E0EFF310833B6138
:100270003B69FB610123FB60FB6883F31088224B21
:100280001B680133204A1360214B1B681B6B002B3A
:1002900028D0FB792133DB101E4AD35C1A46FB7948
:1002A000213303F0070342FA03F303F00103002BA9
:1002B00018D14FF6FF7001F01BFE03467B83FB79DC
:1002C0007B7601F009FB78617B69002B0AD07B69A2
:1002D00002221A707B697A8B5A807B697A7E5A7007
:1002E00001F0E8FD084B1B68013B074A1360FB69FE
:1002F000BB60BB6883F310882037BD4680BD00BF5C
:1003000000000020F06B0008F8000020306C0008AE
:10031000F40000205800002080B58EB000AFF860D7
:10032000B9607A60414B1B68002B00D17BE07B6891
:10033000002B03DA7B685B427B6301E07B687B63B5
:10034000EFF31083FB61FB693B630123BB61BB6976
:1003500083F31088364B1B680133354A1360354BE5
:100360001A687B681344334A1360304B1B681B6B5D
:10037000002B4ED0304B1B78002B03D12F4B1B781A
:10038000002B46D1FF2001F0B3FD034687F82F3044
:100390004FF6FF70796B00F0A3F90346BB8501F0BF
:1003A0009BFAB862BB6A002B33D0BB6A97F82F2048
:1003B0005A70BB6A00221A70BB6ABA8D5A8001F06B
:1003C00079FD4FF6FF70B96800F08AF90346FB84A7
:1003D000002387F8253001F07FFA38623B6A002B52
:1003E00017D03B6AFA8C5A803B6A97F825205A70DE
:1003F000FB68DBB20133DAB23B6A1A70FB68DAB22F
:10040000BB6A1A7001F056FD084B1B68094A126856
:100410001A65074B1B68013B054A13603B6B7B6108
:100420007B6983F310883837BD4680BDF400002017
:10043000F800002048000020440000204600002072
:1004400080B58AB000AFF8600B467A60FB72FB683B
:10045000FE2B03D9414801F0F3FC7BE0FB7A062B2D
:1004600003D93F4801F0ECFC74E03E4B1A68FB7A7C
:10047000134493F864301A467B689A4203D23A4890
:1004800001F0DEFC66E0394B1B68002B03D03848D6
:1004900001F0D6FC5EE0374B1B78002B00D159E011
:1004A000EFF31083BB61BB697B6201237B617B69D6
:1004B00083F310882D4B1B6801332C4A1360294BA2
:1004C0001B681B6B002B3BD02B4B1B78002B03D1E5
:1004D0002A4B1B78002B33D17B68DBB2FA7A1046AB
:1004E000194605F063FC0346002B29D1FB68DB08A5
:1004F000234AD35C1A46FB6803F0070342FA03F36E
:1005000003F00103002B1BD14FF6FF7001F0F0FC4C
:1005100003467B847B6887F8213001F0DDF9F861C0
:10052000FB69002B0CD0FB697A8C5A80FB68DAB22D
:10053000FB691A70FB6997F821205A7001F0BAFC28
:100540000A4B1B68013B094A13607B6A3B613B69AC
:1005500083F310882837BD4680BD00BFA06C00081B
:10056000D46C0008F4000020186D0008F80000208A
:100570005C6D00084500002044000020460000207B
:100580006000002080B58AB000AFF8607A603B6000
:100590000B46FB72FB68FE2B03D9474801F050FC69
:1005A00086E0FB7A062B03D9444801F049FC7FE042
:1005B000434B1A68FB7A134493F864301A467B68FD
:1005C0009A4203D23F4801F03BFC71E03E4B1B686E
:1005D000002B03D03D4801F033FC69E0EFF31083BA
:1005E000BB61BB697B6201237B617B6983F31088FC
:1005F000354B1B680133344A1360314B1B681B6B4E
:10060000002B4BD0324B1B78002B47D0314B1B7843
:10061000002B03D0304B1B78002B3FD07B68DBB224
:10062000FA7A1046194605F0C1FB0346002B35D176
:10063000FB68DB08294AD35C1A46FB6803F0070312
:1006400042FA03F303F00103002B27D1FF2001F04E
:100650004FFC034687F82330FF20396800F040F84C
:10066000034687F822307B6887F8213001F034F99F
:10067000F861FB69002B11D0FB6997F82320DA7031
:10068000FB68DAB2FB691A70FB6997F821205A708F
:10069000FB6997F822209A7001F00CFC0A4B1B684A
:1006A000013B094A13607B6A3B613B6983F3108815
:1006B0002837BD4680BD00BF946D0008CC6D000892
:1006C000F4000020186E0008F8000020686E000892
:1006D000450000204600002044000020600000206B
:1006E00080B584B000AF786039607B68FF2B09D09B
:1006F0007B684FF6FF72934204D0174801F0A0FBCD
:100700003B6825E03A687B689A4201D83B681FE065
:1007100001F0E2F8F860FB68002B16D0FB680122BC
:100720001A707B68DA433B68134003F47F431B0A6B
:10073000DAB2FB685A707B68DA433B6813401B0CE3
:100740009AB2FB685A8001F0B5FB3A687B681340A7
:1007500018461037BD4680BDA06E000880B58AB02F
:1007600000AF786039600023FB847B68FE2B03D9DF
:10077000324801F065FB5DE0314B1B68002B03D074
:10078000304801F05DFB55E0EFF310837B617B693E
:100790003B6201233B613B6983F31088284B1B6854
:1007A0000133274A1360284B1B681B6B002B37D083
:1007B000264B1B78002B33D0254B1B78002B03D006
:1007C000244B1B78002B2BD07B68DB08224AD35CA0
:1007D0001A467B6803F0070342FA03F303F00103B0
:1007E000002B1DD1FF2001F083FB0346FB774FF662
:1007F000FF703968FFF774FF0346FB8401F06CF863
:10080000B861BB69002B0BD0BB69FA7F5A707B685B
:10081000DAB2BB691A70BB69FA8C5A8001F04AFBE4
:10082000074B1B68013B064A13603B6AFB60FB6891
:1008300083F310882837BD4680BD00BFDC6E0008FA
:10084000F8000020306F0008F40000204500002070
:1008500046000020440000206000002080B58AB0DF
:1008600000AF0346FB71002387F82730FB790F2B7D
:1008700003D93F4801F0E4FA77E0FB792133DB103C
:100880003C4AD35C1A46FB79213303F0070342FA52
:1008900003F303F00103002B06D0012387F8273070
:1008A000354B01221A7002E0334B00221A70EFF32D
:1008B00010837B617B693B6201233B613B6983F36E
:1008C00010882E4B1B6801332C4A13602C4B1B786D
:1008D000FA799A4202D1012387F82730294B1B6805
:1008E0001B6B002B02D1012387F8273097F92730A3
:1008F000002B30D14FF6FF7001F0FAFA0346FB836C
:100900001F4AFB7913701E4B1B787B7700F0E4FFC6
:10091000B861BB69002B1ED0194B1B780320194608
:1009200000F0A2F90346012B03D1BB6907221A701C
:1009300002E0BB6906221A70BB69FA8B5A80BB6958
:100940007A7F5A700E4B1B7803201946012200F063
:100950004FF901F0AFFA094B1B68013B074A1360DE
:100960003B6AFB60FB6883F310882837BD4680BD77
:10097000686F00085800002046000020F8000020A2
:1009800045000020F400002090B587B000AF03467A
:100990000A46FB711346BB71BB79062B03D920486D
:1009A00001F04EFA39E01F4B1A68BB79134493F8F3
:1009B0006430FA799A4203D91B4801F041FA2CE0DD
:1009C000184B1B681B6B002B27D0FB79FB75154B55
:1009D0001C68FA79BB791046194600F0A1FF03465E
:1009E0008833234404333B613869002101F0D8F98E
:1009F0000346FB8100F070FFB860BB68002B0CD091
:100A0000BB790833DAB2BB681A70BB68FA7D5A70DA
:100A1000BB68FA895A8001F04DFA1C37BD4690BD7B
:100A2000AC6F0008F4000020FC6F000890B585B0A2
:100A300000AF03460A46FB711346BB71BB79062B18
:100A400003D92B4801F0FCF94FE02A4B1A68BB7917
:100A5000134493F86430FA799A4203D9264801F096
:100A6000EFF942E0234B1B681B6B002B3DD000F0DD
:100A700033FFF860FB68002B37D0BB79032B17D10D
:100A80001C4B1C68FA79BB791046194600F048FFE8
:100A900003461946174B1A68BB79134493F86C3018
:100AA0000B440133234493F88C20FB685A7015E003
:100AB000104B1C68FA79BB791046194600F030FFDC
:100AC000034619460B4B1A68BB79134493F86C30F4
:100AD0000B44234493F88C20FB685A70BB79103385
:100AE000DAB2FB681A7001F0E5F91437BD4690BD23
:100AF00048700008F4000020A070000890B583B092
:100B000000AF0346FB710B46BB7113467B71FB794B
:100B1000062B03D9144801F093F922E0134B1A680D
:100B2000FB79134493F86430BA799A4203D9104898
:100B300001F086F915E00D4B1C68BA79FB79104677
:100B4000194600F0EDFE03461946084B1A68FB797A
:100B5000134493F86C300B44013323447A7983F8BF
:100B60008C200C37BD4690BDF0700008F4000020CA
:100B70003871000890B583B000AF03460A46FB7198
:100B80001346BB71FB79062B04D9164801F058F9BE
:100B9000002322E0144B1A68FB79134493F8643065
:100BA000BA799A4204D9114801F04AF9002314E0B5
:100BB0000D4B1C68BA79FB791046194600F0B0FE5F
:100BC00003461946084B1A68FB79134493F86C30B6
:100BD0000B440133234493F88C3018460C37BD4640
:100BE00090BD00BF78710008F4000020D4710008A7
:100BF00090B583B000AF0346FB710B46BB71134643
:100C00007B71FB79062B03D9144801F019F921E017
:100C1000134B1A68FB79134493F86430BA799A42FB
:100C200003D9104801F00CF914E00D4B1C68BA7997
:100C3000FB791046194600F073FE03461946084B2F
:100C40001A68FB79134493F86C300B4423447A7987
:100C500083F88C200C37BD4690BD00BF5072000851
:100C6000F40000209472000890B583B000AF0346F2
:100C70000A46FB711346BB71FB79062B04D9154854
:100C800001F0DEF8002321E0134B1A68FB791344CE
:100C900093F86430BA799A4204D9104801F0D0F838
:100CA000002313E00C4B1C68BA79FB7910461946F7
:100CB00000F036FE03461946074B1A68FB791344C9
:100CC00093F86C300B44234493F88C3018460C375F
:100CD000BD4690BDD0720008F400002014730008D7
:100CE00090B583B000AF0346FB71104B1B6893F8BF
:100CF0006730FA799A4203D90D4801F0A1F811E062
:100D00000A4B1C68FB791846032100F009FE0346D4
:100D10001A46064B1B6893F86F3013442344002295
:100D200083F88C200C37BD4690BD00BFF400002036
:100D30005073000880B500AF00F0F2F800F036F90B
:100D400000F010F80346002B01D0042308E000F067
:100D500023F80120012100F049F800F06FF800238A
:100D6000184680BD80B500AF00F026F803461A464D
:100D700040F611039A4209D0064B1B68002B03D1A1
:100D800000F06EFB034602E0012300E0002318465A
:100D900080BD00BF0400002080B500AF0320022109
:100DA00000F02EF9022000F091FB0320002100F05A
:100DB00027F90023184680BD80B582B000AF00231C
:100DC000FB80002000F05EFA0346FB80FB881B02DC
:100DD000FB80012000F056FA03469AB2FB881343C9
:100DE000FB80FB8818460837BD4680BD80B584B0BF
:100DF00000AF03460A46FB711346BB710023FB7329
:100E0000042000F03FFA0346FB73BB79002B07D0A8
:100E1000FB79DB43DAB2FB7B1340DBB2FB7303E00D
:100E2000FA7BFB791343FB73FB7B0420194600F02C
:100E3000E7F8002318461037BD4680BD80B500AFE7
:100E400002200121FFF7D2FF2020492100F0D8F82D
:100E5000022000F03BFB2120012100F0D1F81E20F0
:100E6000002100F035F841209A2100F0C9F84A200D
:100E7000012100F0C5F84B20012100F0C1F84B2002
:100E8000002100F0BDF85620012100F0B9F85820EB
:100E9000012100F0B5F84020032100F0B1F80B204B
:100EA000FF2100F0ADF8094B0022DA80074BDA8809
:100EB000064B9A80054B9A88044B5A80034B5A88FC
:100EC000024B1A800023184680BD00BF8C2E0120E3
:100ED00080B584B000AF03460A46FB711346BB7170
:100EE0000023FB73172000F0CDF90346FB73BB7999
:100EF000002B04D0FA7BFB791343FB7306E0FB79EC
:100F0000DB43DAB2FB7B1340DBB2FB73FB7B1720C6
:100F1000194600F075F8002318461037BD4680BD0D
:100F200080B582B000AF4FF40000012101F0DCFA7F
:100F300040F20510012101F0B9FA4FF4804001217F
:100F400001F0F0FA4FF40000012101F009FB4FF429
:100F50000000002101F004FB12480821042202F0E5
:100F60006DFF11480921042202F068FF4FF48073DD
:100F70003B6002233B7102237B710123BB71002381
:100F8000FB713B460748194602F0CAFE4FF4007356
:100F90003B603B460448194602F0C2FE0837BD4696
:100FA00080BD00BF000002400008024080B584B050
:100FB00000AF114B1B889BB203F00103002B17D12C
:100FC0000023BB804BF6FF73FB8000233B814FF473
:100FD00080637B814FF48043BB81084B3B603B4681
:100FE0000548194604F0F8FF0348012105F0B6F85A
:100FF0001037BD4680BD00BF005C0040A0860100E8
:1010000080B584B000AF03460A46FB711346BB713E
:101010000023FB604C48012105F0C0F84B4B4FF416
:1010200040521A600AE0494B1B685A1E47490A6041
:10103000002B03D100F014FA034680E042484449F3
:1010400005F06AF90346002BEDD03F4882210022CB
:1010500005F0E4F83D4B4FF440521A600AE03B4B78
:101060001B685A1E39490A60002B03D100F0F8F9B9
:10107000034664E03448374905F04EF90346002B37
:10108000EDD0314B1B8B314B4FF440521A600AE0CC
:101090002E4B1B685A1E2D490A60002B03D100F00D
:1010A000DFF903464BE028482B4905F035F90346A4
:1010B000002BEDD0FB792448194605F00FF9234B9E
:1010C0004FF440521A600AE0204B1B685A1E1F4919
:1010D0000A60002B03D100F0C3F903462FE01A4841
:1010E0001D4905F019F90346002BEDD0BB791648D0
:1010F000194605F0F3F8154B4FF440521A600AE018
:10110000124B1B685A1E11490A60002B03D100F0D4
:10111000A7F9034613E00C480F4905F0FDF8034614
:10112000002BEDD008480D4905F0F6F80346002BDA
:10113000E6D00548012105F051F8FB68DBB21846FE
:101140001037BD4680BD00BF005C00400400002099
:1011500001000010020000108000001004000010C8
:1011600080B582B000AF03460A46FB711346BB71DF
:101170003E48012105F012F83D4B4FF440521A60F1
:101180000AE03B4B1B685A1E39490A60002B03D109
:1011900000F066F9034664E03448364905F0BCF8CF
:1011A0000346002BEDD0FB7930481946002205F0AC
:1011B00035F82F4B4FF440521A600AE02C4B1B6855
:1011C0005A1E2B490A60002B03D100F049F903464F
:1011D00047E02648284905F09FF80346002BEDD04C
:1011E000224B1B8B224B4FF440521A600AE0204BDB
:1011F0001B685A1E1E490A60002B03D100F030F90B
:1012000003462EE019481D4905F086F80346002BD9
:10121000EDD0BB791548194605F060F8144B4FF432
:1012200040521A600AE0124B1B685A1E10490A60AD
:10123000002B03D100F014F9034612E00B480F49CC
:1012400005F06AF80346002BEDD008480C4905F07C
:1012500063F80346002BE6D00448012104F0BEFFEA
:10126000012318460837BD4680BD00BF005C004022
:101270000400002001000010020000108000001097
:101280000400001080B584B000AF0346FB7100235A
:10129000FB736C48012104F081FF6B4B4FF440520B
:1012A0001A600AE0684B1B685A1E67490A60002BE7
:1012B00003D100F0D5F80346C0E06248634905F069
:1012C0002BF80346002BEDD05E48002104F0C4FF4C
:1012D0005C488221002204F0A1FF5B4B4FF4405296
:1012E0001A600AE0584B1B685A1E57490A60002BC7
:1012F00003D100F0B5F80346A0E05248544905F088
:101300000BF80346002BEDD04E4B1B8B4E4B4FF48E
:1013100040521A600AE04C4B1B685A1E4A490A6048
:10132000002B03D100F09CF8034687E0454849496B
:1013300004F0F2FF0346002BEDD0FB79414819463B
:1013400004F0CCFF404B4FF440521A600AE03E4B91
:101350001B685A1E3C490A60002B03D100F080F83C
:1013600003466BE037483B4904F0D6FF0346002BA9
:10137000EDD03448384904F0CFFF0346002BE6D0C7
:101380003048012104F00AFF2F4B4FF440521A60FD
:101390000AE02D4B1B685A1E2B490A60002B03D113
:1013A00000F05EF8034649E02648284904F0B4FFFF
:1013B0000346002BEDD023488221012204F02EFFAA
:1013C000214B4FF440521A600AE01F4B1B685A1E13
:1013D0001D490A60002B03D100F042F803462DE0BE
:1013E00018481B4904F098FF0346002BEDD0154B1D
:1013F0001B8B154B4FF440521A600AE0124B1B68CE
:101400005A1E11490A60002B03D100F029F8034647
:1014100014E00C48114904F07FFF0346002BEDD087
:101420000848012104F0DAFE064804F067FF03468D
:10143000FB730448012104F00FFFFB7B18461037B3
:10144000BD4680BD005C004004000020010000108B
:101450000200001080000010040000104000001086
:1014600080B584B000AF1748012104F0B7FE1548DD
:10147000012104F011FF1348002104F00DFFFFF7D4
:101480004FFD104804F06EFD0023BB804BF6FF7348
:10149000FB8000233B814FF480637B814FF48043CA
:1014A000BB81094B3B600748012104F057FE3B46D6
:1014B0000448194604F090FD002318461037BD4635
:1014C00080BD00BF005C0040A086010080B485B0F4
:1014D00000AF78600023FB607B68084A02FB03F3DF
:1014E000FB6002E0FB68013BFB60FB68002BF9D16D
:1014F0001437BD465DF8047B704700BFA08601002D
:1015000080B584B004AF002005F012F9012005F089
:101510000FF90020002105F069F9FFF70BFC72209C
:101520000021FFF71DFE0346002B09D0214B0122AD
:101530001A70002005F02AF9012005F03FF908E0B3
:101540001C4B00221A70002005F038F9012005F02C
:101550001DF9194B00221A80184B00221A8002F044
:101560002FFE02F033FE012300930023019300239A
:10157000029300230393124812498022002301F0B2
:1015800029FB0223009300230193002302930023ED
:1015900003930D480D498022002301F01BFB0C48EA
:1015A00003F0E0F903461A460A4B1A8001F084FC66
:1015B000FEE700BF54000020520000204E00002033
:1015C000D91500089873000829160008A0730008B0
:1015D000A8730008942E012080B582B000AF786017
:1015E0000D4B1B8883F001039AB20B4B1A800B4BF7
:1015F0001A880B4B1B8810460A491A4603F0E6F876
:10160000074B1B8801339AB2054B1A804FF4487080
:1016100001F0EAFBE4E700BF52000020942E012015
:1016200056000020AC73000880B582B000AF78602F
:101630000C4B1B8803F00103002B07D00A4B1B88BF
:1016400043F002039AB2084B1A8006E0064B1B884F
:1016500023F002039AB2044B1A80642001F0C4FB09
:10166000E6E700BF500000205200002080B500AF28
:101670007D4B1A687D4B1B6813447D4A13607D4B7C
:101680007D4A1A607B4B1B68002B03D17B4800F01E
:10169000D7FBE8E0774B1B68002B03D1784800F0BC
:1016A000CFFBE0E0734B1B681846002144F2C06298
:1016B00005F0D0F96F4B1B6800221A706D4B1B6848
:1016C00001225A706B4B1B6802229A70694B1B688F
:1016D0000322DA70674B1B6870221A71654B1B6816
:1016E00071225A71634B1B6872229A71614B1B689D
:1016F0007322DA715F4B1B68F0221A725D4B1B6814
:10170000F1225A725B4B1B68F2229A72594B1B688A
:10171000F322DA72574B1B6841F6A1229A81554B8E
:101720001B6804229A73534B1B680022DA73514BD7
:101730001B6844F2C0621A614E4B1B684FF47A6218
:101740009A614C4B1B684FF0F0325A65494B1B684D
:1017500000229A6504F0FAF9464B1B684FF0F1320B
:10176000C3F82424434B1B684FF44872C3F8282461
:10177000404B1B680122C3F82C243E4B1B6803F529
:10178000FA634FF07E521A603A4B1B684FF0F23208
:10179000C3F8D827374B1B6803F2DC731846394966
:1017A000502205F0F1F9334B1B684FF0F332C3F8C8
:1017B0002C28304B1B6803F58D4334330A221A70F2
:1017C0002C4B1B6803F58D4335330B221A70294BC4
:1017D0001B6803F58D4336330C221A70254B1B68AA
:1017E00003F58D4337330D221A70224B1B6803F526
:1017F0008D43383371221A701E4B1B6803F58D43DD
:10180000393372221A701B4B1B6803F58D433A3330
:1018100073221A70174B1B6803F58D433B337422F8
:101820001A70144B1B6803F58D433C33F1221A7078
:10183000104B1B6803F58D433D33F2221A700D4B9C
:101840001B6803F58D433E33F3221A70094B1B6866
:1018500003F58D433F33F4221A7004F019FA00F0B7
:1018600013F804F0FFFD80BD041000E078020020B2
:1018700058750120F4000020982E0120C473000840
:10188000047400082C74000880B582B000AF104BBF
:101890001B683B603B681B78002B13D100237B60E7
:1018A0000CE03A687B68134439687A680A44127815
:1018B0000132D2B21A707B6801337B607B680B2BDC
:1018C000EFD902E0034800F0BBFA0837BD4680BDFF
:1018D000F40000204074000880B500AF0E4B1B6878
:1018E0001B6B002B01D1002313E00B4B1B68DB6942
:1018F000B3F57A6F04D3094800F0A2FA002308E098
:10190000054B1A68044B1B68DB699B0003F50363F6
:101910001344184680BD00BFF40000206C7400081A
:1019200080B582B000AF03460A46FB711346BB7117
:10193000BB79062B04D9224800F082FA00233AE052
:10194000FB79002B08D01F4B1A68BB79134493F81E
:101950006430FA799A4204D91B4800F071FA0023E6
:1019600029E0BB79062B22D8FB79002B1FD0154B21
:101970001A68BB79134493F86430FA799A4216D8FE
:10198000104B1A68BB793C335B0013449A880D4BAB
:101990001968BB790B4493F8743099B2FB79013B19
:1019A0009BB211FB03F39BB213449BB203E00748C5
:1019B00000F046FA002318460837BD4680BD00BF38
:1019C00094740008F4000020D47400081475000812
:1019D00080B584B000AF0346FB71FB79062B04D9B8
:1019E000934800F02DFA00231EE1FB79914A32F86A
:1019F00013301A46904B1A608F4B1B688D4A134464
:101A000093F83830002B14D18B4B1A688A4B1B6823
:101A1000D9B2FB79874804335B000344DB88DBB22F
:101A2000CB1ADBB20133D9B2824B13440A4683F896
:101A30003820814B1B687F4A134493F83830FB737E
:101A4000FB797C4A32F81320FB797A490C335B002E
:101A50000B449B889A420AD9FB79184604F066F930
:101A60000346184600F0ECF90023FB73DBE0FB793A
:101A7000704A32F81320013291B26E4A22F81310E4
:101A8000FB796C4A32F813301946FB79694A043302
:101A90005B001344DB88CB1ABB60FB79654A1433C7
:101AA0005B0013445B881A46BB689A4209DAFB79EB
:101AB000BA68D2B291B25F4A14335B0013440A464B
:101AC0005A80FB79062B00F2AE8001A252F823F077
:101AD000ED1A0008231B0008571B00088B1B000889
:101AE000271C0008BF1B0008F31B0008FB7BDB085A
:101AF000DBB21946FB7BDB08DBB21A464F4B9B5C23
:101B0000D8B2FB7B03F00703012202FA03F3DBB236
:101B1000DB43DBB202461340DBB2DAB2474B5A5426
:101B200080E0FB7B0B33DB10FA7B0B32D210434996
:101B30008A5CD0B2FA7B0B3202F00702012101FA73
:101B400002F2D2B2D243D2B201460A40D2B2D1B2EC
:101B50003A4AD15466E0FB7B1633DB10FA7B16322F
:101B6000D21036498A5CD0B2FA7B163202F00702F4
:101B7000012101FA02F2D2B2D243D2B201460A40A6
:101B8000D2B2D1B22D4AD1544CE0FB7B2133DB10D1
:101B9000FA7B2132D21029498A5CD0B2FA7B2132F9
:101BA00002F00702012101FA02F2D2B2D243D2B20C
:101BB00001460A40D2B2D1B2204AD15432E0FB7B76
:101BC0003133DB10FA7B3132D2101C498A5CD0B23F
:101BD000FA7B313202F00702012101FA02F2D2B29D
:101BE000D243D2B201460A40D2B2D1B2134AD15442
:101BF00018E0FB7B3433DB10FA7B3432D2100F4910
:101C00008A5CD0B2FA7B343202F00702012101FA79
:101C100002F2D2B2D243D2B201460A40D2B2D1B21B
:101C2000064AD15400BFFB7B18461037BD4680BD25
:101C30005475000884000020000100205800002096
:101C400080B584B000AF03460A46FB711346BB71F2
:101C5000FB79062B03D91E4800F0F2F834E0BB797B
:101C6000002B08D01B4B1A68FB79134493F864309F
:101C7000BA799A4203D9184800F0E2F824E0FB79D7
:101C8000164A32F813305A1EFB79144904335B00AC
:101C90000B44DB889A4203DA114800F0D1F813E0D4
:101CA000FB790E4A32F81320013A91B20B4A22F81E
:101CB0001310FB79094A32F81330FB60074AFB68BE
:101CC00013443833BA791A701037BD4680BD00BF4F
:101CD00098750008F4000020DC75000884000020DE
:101CE0001C76000880B582B000AF03463A60FB71F5
:101CF0000B46BB713B68002B03D1234800F0A0F8D2
:101D00003FE0FB79062B03D9204800F099F838E032
:101D1000BB79002B03D11E4800F092F831E01D4B37
:101D20001A68FB79134493F86430BA799A4208D957
:101D3000FB79184603F0FAFF0346184600F080F8D6
:101D40001FE0BA79FB7910461946FFF7E9FD034613
:101D50001A46114B1A80114B1B68002B11D10D4BE9
:101D60001A680D4B1B8888331344191D094B1A68D8
:101D7000FB79134493F86C30084639681A4604F02E
:101D800003FF0837BD4680BD4C7600087C7600080E
:101D9000A8760008F400002004010020FC000020C8
:101DA00080B588B000AF78600B467B800023FB7263
:101DB0000023BB727B68002B04D11F4800F040F861
:101DC000002335E007F10A0207F10B03786811469A
:101DD0001A4600F07BFAEFF310837B617B69BB61ED
:101DE00001233B613B6983F31088144B1B6801336B
:101DF000124A1360B97AFA7A7B88786800F02CF975
:101E00000346FB83FB8B002B07D1B97AFA7A7B88D8
:101E1000786800F09DF90346FB83084B1B68013B83
:101E2000064A1360BB69FB60FB6883F31088FB8B79
:101E300018462037BD4680BDD4760008F800002043
:101E400080B582B000AF78607B68002B03D1154865
:101E5000FFF7F6FF22E0144B1B68002B03D1134859
:101E6000FFF7EEFF1AE0104B1B6800221A63104BBD
:101E70001B68002B12D10E4A7B6813600A4B1B684B
:101E800003F2DC720A4B1B6810461946502204F01C
:101E90007BFE054B1B680122C3F8D4270837BD46DB
:101EA00080BD00BF04770008F40000202C770008F4
:101EB000FC00002080B500AF0C4B1B681B6B002B97
:101EC00000D111E0094B1B685A6901325A61074B76
:101ED0001B68DA690132DA61044B1B68DB69B3F510
:101EE0007A6F01D302F0D2F980BD00BFF400002068
:101EF00090B587B000AF0346FB8000237B610023D1
:101F00003B610023FB60FB88FF2B09D0FB884FF669
:101F1000FF72934204D04C48FFF792FF00238FE0FA
:101F200007F10C03184604F0DBFAFA68474B1B680C
:101F3000D31A3B61FB68454A1360454B1B685B6ADB
:101F4000002B43D0424B1B685A6A3B699A421DD210
:101F50003F4B1B683E4A1268D16A3D4A1268526A7A
:101F60003869B0FBF2F20A44DA62394B1968384B2F
:101F70001B68986A364B1B685A6A3B69B3FBF2F4DC
:101F800002FB04F29B1A03448B6207E0304B1B6890
:101F90002F4A1268916A3A690A449A622C4B1B686C
:101FA0009A6A2B4B1B685B6A9A4213D3284B1B68B7
:101FB000DA6A0132DA62264B1B68254A1268916A96
:101FC000234A1268526A8A1A9A6203E0204B1B68FD
:101FD000FA689A62FA883B699A422CD2FFF77CFC35
:101FE00078617B69002B26D0FB884FF6FF72934205
:101FF0000BD17B69A9221A703B691B0C9AB27B69D1
:102000005A807B6900225A7013E0FB88FF2B0DD1A8
:102010007B69A8221A703B691B0A9AB27B695A80B5
:102020003B691B0EDAB27B695A7002E00948FFF780
:1020300007FFFFF73FFF3B699AB2FB8813409BB253
:1020400018461C37BD4690BDB8770008080100202F
:10205000F4000020F877000880B584B000AF786005
:10206000084611461A460346FB700B46BB701346E2
:102070003B80344B1B68FA7802F56A7233F81230F1
:10208000FB817B68002B04D12F48FFF7D9FE00238A
:1020900054E0BB78002B04D12C48FFF7D1FE00237D
:1020A0004CE047E0274B1A68FB890233134493F84E
:1020B00030341A463B88DBB29A4228D1214B1A6849
:1020C000FB890333134493F830349AB23B881B0ADC
:1020D0009BB29A421BD11B4B1A68FB89191DBB7816
:1020E0000B44134493F83034002B10D1154B1A686D
:1020F000FB89043303F586631A44BB78104679687C
:102100001A4604F0F5FC0346002B00D115E00D4BF8
:102110001A68FB89134493F830349AB2094B196852
:10212000FB8901330B4493F830349BB21B029BB202
:102130001344FB81FB89002BB4D1FB89184610376F
:10214000BD4680BDF40000201C78000858780008C7
:1021500080B584B000AF7860084611461A46034641
:10216000FB700B46BB7013463B800023FB817B68F2
:10217000002B04D15148FFF763FE00239AE0BB789F
:10218000002B04D14E48FFF75BFE002392E04D4B3D
:102190001B68D3F82C24BB7813440433B3F5487F71
:1021A00005D34948FFF74CFE0023FB8181E0454BF6
:1021B0001A68444B1B68D3F82C3442490968F878F4
:1021C00000F56A7031F81010C9B213440A4683F85A
:1021D00030243C4B1A683B4B1B68D3F82C3401333A
:1021E00038490968F87800F56A7031F81010090A62
:1021F00089B2C9B213440A4683F83024314B1A68B5
:10220000304B1B68D3F82C3402333988C9B21344DD
:102210000A4683F830242B4B1A682A4B1B68D3F8E4
:102220002C3403333988090A89B2C9B213440A46E7
:1022300083F83024234B1A68224B1B68D3F82C34C4
:10224000043303F586631A44BB78104679681A464E
:1022500004F09AFC1B4B1A681A4B1B68D3F82C1419
:10226000BB780B4404331344002283F83024154B0D
:102270001B68FA7813490968D1F82C1489B202F561
:102280006A7223F812100F4B1B680E4A1268D2F8BC
:102290002C14BA780A440532C3F82C24094B1B6865
:1022A000D3F82C349AB2BB789BB2D31A9BB2053BBD
:1022B000FB81FB8918461037BD4680BD9078000829
:1022C000CC780008F40000200479000880B588B0BC
:1022D00000AFF860B9607A600123FB610023BB6145
:1022E000FB68002B03D11948FFF7AAFD2BE0BB6860
:1022F000002B03D11648FFF7A3FD24E07B68002BD9
:1023000003D11448FFF79CFD1DE0FB68002B0FD0A4
:1023100006E0FB7DBA691344BB61FB690133FB61D5
:10232000FB685A1CFA601B78FB75FB7D002BF0D113
:10233000BB69DBB203F03F03DAB2BB681A70FB691A
:10234000DAB27B681A702037BD4680BD4479000838
:1023500078790008A879000880B489B000AF786067
:102360000023BB6100237B610023FB6102233B61EF
:102370000023FB600223BB60484B9B6803F00C0307
:10238000BB61BB69042B07D0082B09D0002B3FD1C0
:102390007B68434A1A603FE07B68424A1A603BE030
:1023A0003E4B5B6803F480039B0DFB603B4B5B681B
:1023B00003F03F03BB60FB68002B0DD0394ABB68BC
:1023C000B2FBF3F2354B596847F6C0730B409B09DB
:1023D00003FB02F3FB610CE0314ABB68B2FBF3F292
:1023E0002E4B596847F6C0730B409B0903FB02F361
:1023F000FB612A4B5B6803F440331B0C01335B0029
:102400003B61FA693B69B2FBF3F27B681A6003E057
:102410007B68234A1A6000BF204B9B6803F0F003DF
:10242000BB61BB691B09BB611F4ABB6913441B78B5
:10243000DBB27B617B681A687B69DA407B685A6033
:10244000164B9B6803F4E053BB61BB699B0ABB61FD
:10245000154ABB6913441B78DBB27B617B685A6801
:102460007B69DA407B689A600C4B9B6803F460439D
:10247000BB61BB695B0BBB610B4ABB6913441B7837
:10248000DBB27B617B685A687B69DA407B68DA6023
:102490002437BD465DF8047B704700BF003802401A
:1024A0000024F40000127A000800002080B483B0F9
:1024B00000AF78600B46FB70FB78002B06D0094913
:1024C000084B1A6B7B6813430B6306E00549054B09
:1024D0001A6B7B68DB4313400B630C37BD465DF81A
:1024E000047B70470038024080B483B000AF78604E
:1024F0000B46FB70FB78002B06D00949084B1A6C81
:102500007B6813430B6406E00549054B1A6C7B6836
:10251000DB4313400B640C37BD465DF8047B70470A
:102520000038024080B483B000AF78600B46FB7087
:10253000FB78002B06D00949084B5A6C7B68134383
:102540004B6406E00549054B5A6C7B68DB4313403E
:102550004B640C37BD465DF8047B70470038024081
:1025600080B483B000AF78600B46FB70FB78002B23
:1025700006D00949084B1A6A7B6813430B6206E0D0
:102580000549054B1A6A7B68DB4313400B620C3725
:10259000BD465DF8047B70470038024080B586B0C8
:1025A00004AF00237B6000F0CFFA134B1B68002BB5
:1025B0000FD002230093114B0193002302930023B9
:1025C00003930F480F494FF48272002300F002FB7F
:1025D00078607B68002B09D14FF0500383F311889A
:1025E000BFF36F8FBFF34F8F3B60FEE77B681846EA
:1025F0000837BD4680BD00BF3C01002040010020DF
:10260000AD270008DC79000880B588B000AFF8601D
:10261000B9607A603B600023FB61434B1B68002B71
:102620007DD0BB683B617B687B61FB68BB61BB683D
:10263000052B1CDC01F0F2F90346022B0BD13A4BBF
:102640001A6807F1100310461946BA6A002302F00F
:102650009FFCF86116E0344B1A6807F1100310462E
:1026600019460022002302F093FCF8610AE02E4B89
:102670001A6807F11003104619463A68002302F061
:1026800009FEF861BB68002B49DDBB68042B0FD144
:10269000FB69012B01D1B42200E0BD22FB689B6ADB
:1026A000DBB2104605211A467B68FDF76BFF36E06A
:1026B000BB68052B20D1FB69012B1DD1FB689B6AF0
:1026C000DBB2B52005211A46FDF7BAFEFB689B6A0E
:1026D000DBB218460521FEF757F9FB689B6ADBB2AF
:1026E00018460521FEF7A2F9FB689B6ADBB20520BC
:1026F0001946FFF7A5FA12E0BB6803F1B002FB69C7
:10270000012B01D1002300E0092313441A46FB6882
:102710009B6ADBB2104605211A46FDF791FEFB6964
:1027200018462037BD4680BD3C01002080B588B0EA
:1027300002AF786039601C4B1B68DB68DB687B612B
:102740007B690433184601F049FC7B69DB69012B86
:1027500022D17B699A697B681344786919463A6883
:102760007B6800F0B9F80346012B15D100230093D4
:10277000786900217A680023FFF746FF38613B69DA
:10278000002B09D14FF0500383F31188BFF36F8FF3
:10279000BFF34F8FFB60FEE77B695B6A7869984700
:1027A0001837BD4680BD00BF3401002080B584B01D
:1027B00000AF786007F10803184600F049F8F860A8
:1027C000BB68F868194600F003F800F0C7F8F1E7B5
:1027D00080B584B000AF7860396000F0B9FB07F1D4
:1027E0000803184600F058F8F860BB68002B25D1A4
:1027F0003B68002B0AD17A68FB689A4206D800F041
:10280000B5FB7868F968FFF791FF19E00E4B19687E
:102810007A68FB68D31A084619463A6803F038F913
:1028200000F0A4FB0346002B0AD1084B4FF0805266
:102830001A60BFF34F8FBFF36F8F01E000F096FB7C
:102840001037BD4680BD00BF3C01002004ED00E014
:1028500080B485B000AF78600E4B1B681B68002BFE
:102860000CBF01230023DBB21A467B681A607B6829
:102870001B68002B05D1074B1B68DB681B68FB60DE
:1028800001E00023FB60FB6818461437BD465DF885
:10289000047B70473401002080B584B000AF7860BD
:1028A00000F000FCF8600B4B1B68FA689A4205D2F6
:1028B00000F0EAF87B6801221A6002E07B680022DF
:1028C0001A60044AFB681360FB6818461037BD465F
:1028D00080BD00BF4401002080B586B000AFF86025
:1028E000B9607A603B6000237B61FB68BA685A601C
:1028F000FB68FA681A61BA687B689A4212D87A68EB
:102900003B68D21AFB689B699A4202D301237B6120
:102910001BE0104B1A68FB6804331046194601F09F
:1029200025FB12E07A683B689A4206D2BA683B6897
:102930009A4202D301237B6107E0074B1A68FB68C8
:1029400004331046194601F011FB7B69184618370D
:10295000BD4680BD380100203401002080B58CB018
:1029600002AF7DE0BB68002B7ADB3B697B627B6A50
:102970005B69002B04D07B6A0433184601F02EFB00
:102980003B1D1846FFF788FF3862BB68092B66D8E5
:1029900001A252F823F000BFC1290008C129000894
:1029A000C1290008612A00081F2A0008572A0008C8
:1029B000C1290008C1290008612A00081F2A00084F
:1029C000FA687B6A9B691A44FB68786A11463A6A1E
:1029D000FFF782FF0346012B20D17B6A5B6A786A8E
:1029E00098477B6ADB69012B18D1FA687B6A9B697F
:1029F0001A4400230093786A00210023FFF704FEA5
:102A0000F861FB69002B09D14FF0500383F3118863
:102A1000BFF36F8FBFF34F8FBB61FEE720E0FA6813
:102A20007B6A9A617B6A9B69002B09D14FF0500346
:102A300083F31188BFF36F8FBFF34F8F7B61FEE786
:102A40007B6A9A693B6A1344786A19463A6A3B6A18
:102A5000FFF742FF04E0786A03F054FE00E000BF95
:102A6000084B1A6807F10803104619460022002394
:102A700002F0E8FC0346002B7FF474AF2837BD4614
:102A800080BD00BF3C01002080B588B002AF44E0AB
:102A90002B4B1B68DB681B687B61294B1B68DB6861
:102AA000DB683B613B690433184601F097FA3B69E8
:102AB0005B6A386998473B69DB69012B2DD13B691B
:102AC0009A697B691344FB60FA687B699A420ED964
:102AD0003B69FA685A603B693A691A61184B1A688F
:102AE0003B6904331046194601F040FA15E0002313
:102AF0000093386900217A690023FFF785FDB860EB
:102B0000BB68002B09D14FF0500383F31188BFF34A
:102B10006F8FBFF34F8F3B60FEE7094B1B681B684D
:102B2000002BB5D1064B1B687B60064B1B68044A23
:102B30001360044A7B6813601837BD4680BD00BF30
:102B4000340100203801002080B582B000AF02F0CF
:102B50001DF81A4B1B68002B2BD1194801F0B6F950
:102B6000184801F0B3F9184B154A1A60174B154A6B
:102B70001A600A200C21002202F076F902460F4B5F
:102B80001A600E4B1B68002B09D14FF0500383F3E2
:102B90001188BFF36F8FBFF34F8F7B60FEE7074B4A
:102BA0001B68002B05D0054B1B681846084902F02E
:102BB00037FF02F019F80837BD4680BD3C01002000
:102BC0000C010020200100203401002038010020E9
:102BD000E479000880B58CB002AFF860B9603B6062
:102BE0001346FB80FB68002B09D14FF0500383F3A1
:102BF0001188BFF36F8FBFF34F8FBB61FEE73B6B55
:102C0000042B09D94FF0500383F31188BFF36F8F62
:102C1000BFF34F8F7B61FEE7FB881846B96B00F06E
:102C200081FE38623B6A002B00F0AE803B6A1A6B73
:102C3000FB8803F18043013B9B001344FB61FB696C
:102C400023F00703FB61FB6903F00703002B09D0A6
:102C50004FF0500383F31188BFF36F8FBFF34F8F93
:102C60003B61FEE7FB880093386AB9683A6BFB6BFF
:102C700000F058FDF869F9683A6801F08BFE0246E9
:102C80003B6A1A607B6B002B02D07B6B3A6A1A603E
:102C900001F07CFF4D4B1B6801334C4A13604C4BD9
:102CA0001B68002B09D14A4A3B6A1360474B1B68DB
:102CB000012B0FD100F088FD0CE0464B1B68002B68
:102CC00008D1434B1B68DA6A3B6B9A4202D8404AF0
:102CD0003B6A1360404B1B6801333F4A13603E4B15
:102CE0001A683B6A1A643B6A002B28D00320FEF75F
:102CF0006FFE03461A463B6A5A64386A02F010FFB8
:102D000003461A463B6A3433032011461A46FEF73F
:102D1000E9FF386A02F004FF03461A463B6ADB6AA1
:102D2000DBB2032011461A46FDF7E8FE386A02F0CE
:102D3000F7FE03461B2003211A46FDF781FB386A84
:102D400002F0EEFE03461846FDF772FA3B6ADB6AB4
:102D50001A46012303FA02F2204B1B6813431F4A51
:102D600013603B6ADA6A13469B0013449B001C4ABB
:102D70001A443B6A04331046194601F0D3F8012384
:102D80007B6201F031FF07E04FF0FF337B624320AD
:102D900003210022FDF754FB7B6A012B11D10D4B5F
:102DA0001B68002B0DD00A4B1B68DA6A3B6B9A42FA
:102DB00007D20C4B4FF080521A60BFF34F8FBFF316
:102DC0006F8F7B6A18462837BD4680BD20020020E1
:102DD000480100202C0200203C0200202802002094
:102DE0004C01002004ED00E080B586B000AF7860B3
:102DF00000237B617B68002B46D02A4B1B68002B8D
:102E000009D04FF0500383F31188BFF36F8FBFF3E6
:102E10004F8FFB60FEE700F09BF889207968FDF793
:102E20009DFC214B1B68184602F07AFE03461846AB
:102E3000FDF756FF02F082FE0346184602F070FED0
:102E400003461846FDF74CFF184B1A687B6813447D
:102E50003B61154B1B680433184601F0BFF803466D
:102E6000002B0BD1104B1B68DB6A1A4601239340E1
:102E7000DA430F4B1B6813400D4A1360386900F0AA
:102E80001BFD00F073F878617B69002B07D1094BBB
:102E90004FF080521A60BFF34F8FBFF36F8F183718
:102EA000BD4680BD440200204801002024020020CD
:102EB0002802002004ED00E080B588B004AF0023B4
:102EC00000930023019300230293002303931B48E4
:102ED0001B4982220023FFF77DFEF860FB68012B6F
:102EE00002D1FFF75BFBF860FB68012B15D14FF0B7
:102EF000500383F31188BFF36F8FBFF34F8FBB6015
:102F0000104B4FF0FF321A600F4B01221A600F4B2B
:102F100000221A6001F0AEFD0CE0FB68002B09D125
:102F20004FF0500383F31188BFF36F8FBFF34F8FC0
:102F30007B60FEE71037BD4680BD00BFF536000858
:102F4000EC790008400200202C020020240200201E
:102F500080B400AF044B1B680133034A1360BD46C5
:102F60005DF8047B704700BF4402002080B584B048
:102F700000AF0023FB60424B1B68002B09D14FF0D0
:102F8000500383F31188BFF36F8FBFF34F8F7B60C4
:102F9000FEE701F0FBFD3A4B1B68013B384A13602A
:102FA000374B1B68002B64D1364B1B68002B60D05D
:102FB00037E0354BDB68DB68BB60BB68183318460D
:102FC00001F00CF8BB680433184601F007F8B86844
:102FD00002F0A6FD03461846FDF72AF9BB68DB6A36
:102FE0001A46012303FA02F2284B1B681343274AAF
:102FF0001360BB68DA6A13469B0013449B00244AA3
:103000001A44BB6804331046194600F08BFFBB68B6
:10301000DA6A204B1B68DB6A9A4202D31E4B0122FC
:103020001A60194B1B68002BC3D11C4B1B68002B6B
:1030300011D00CE000F046F80346002B02D0164BEE
:1030400001221A60154B1B68013B144A1360134B95
:103050001B68002BEED1104B1B68012B09D10123FB
:10306000FB600F4B4FF080521A60BFF34F8FBFF3DE
:103070006F8F01F0B9FDFB6818461037BD4680BD63
:103080004402002020020020E0010020280200204D
:103090004C010020480100203402002030020020B2
:1030A00004ED00E080B483B000AF054B1B687B608B
:1030B0007B6818460C37BD465DF8047B704700BF3F
:1030C0002402002080B586B000AF00237B615E4BF8
:1030D0001B68012B03D05D4B1B68002B07D15C4B99
:1030E0001B6801335A4A1360002003F0F9F9564B6C
:1030F0001B68554B1B68002B40F09680554B1B6896
:103100000133544A1360534B1B683B613B69002BEE
:103110001FD1514B1B681B68002B09D04FF0500387
:1031200083F31188BFF36F8FBFF34F8F3B60FEE7D0
:10313000494B1B68FB60494B1B68474A1360474A71
:10314000FB681360464B1B680133454A136000F06F
:1031500031FC444B1B683A699A4256D33E4B1B687C
:103160001B68002B01D1012300E00023002B04D0B9
:103170003C4B4FF0FF321A6047E0374B1B68DB686F
:10318000DB68BB60BB685B687B603A697B689A42BE
:1031900003D2344A7B68136037E0BB6804331846B7
:1031A00000F01CFFBB689B6A002B04D0BB6818337F
:1031B000184600F013FFB86802F0B2FC0346184648
:1031C000FDF736F8BB68DB6A1A46012303FA02F200
:1031D000254B1B681343244A1360BB68DA6A134605
:1031E0009B0013449B00214A1A44BB6804331046D9
:1031F000194600F097FEBB68DA6A1D4B1B68DB6A54
:103200009A4201D301237B61A8E7194B1B68DA6A54
:10321000164913469B0013449B000B441B68012B6B
:1032200007D901237B6104E0084B1B680133074A7F
:103230001360104B1B68002B01D001237B617B695D
:1032400018461837BD4680BD4402002030020020D9
:103250007402002024020020D8010020DC0100209C
:103260003802002040020020280200204C010020EB
:10327000480100203402002080B586B000AF2A4B00
:103280001B68002B03D0294B01221A6048E0274B12
:1032900000221A60264B1B68FB60FB68B3FA83F3BD
:1032A000FB72FB7AC3F11F037B6122497A691346E3
:1032B0009B0013449B000B441B68002B09D14FF06B
:1032C000500383F31188BFF36F8FBFF34F8F7B6081
:1032D000FEE77A6913469B0013449B00154A13448A
:1032E0003B613B695B685A683B695A603B695A6855
:1032F0003B6908339A4204D13B695B685A683B6971
:103300005A603B695B68DB680B4A136002F016FC8D
:103310000346184602F004FC03461846FDF79EFAE1
:103320001837BD4680BD00BF440200203402002093
:10333000280200204C0100204801002080B584B004
:1033400000AF786039607B68002B09D14FF05003E3
:1033500083F31188BFF36F8FBFF34F8FBB60FEE71E
:10336000194B1B6818337868194600F0FFFD164B9F
:103370001B680433184600F031FE0346002B0BD1C6
:10338000114B1B68DB6A1A4601239340DA430F4B4B
:103390001B6813400D4A13603B68B3F1FF3F07D130
:1033A000094B1B6804330A48194600F0BBFD07E0CF
:1033B000084B1A683B681344FB60F86800F07CFA1D
:1033C0001037BD4680BD00BF480100202802002004
:1033D0000C0200202402002080B586B000AFF86007
:1033E000B9607A60FB68002B09D14FF0500383F37A
:1033F0001188BFF36F8FBFF34F8F3B61FEE7334BF5
:103400001B681833F868194600F08CFD2F4B1B68B9
:103410000433184600F0E2FD0346002B0BD12B4B82
:103420001B68DB6A1A4601239340DA43284B1B686A
:103430001340274A13607B68012B25D1234B1B685F
:10344000184602F06DFB03468A2003211A46FCF75A
:10345000F7FF1E4B1B68184602F062FB0346184636
:10346000FDF73EFC02F06AFB0346184602F058FBEB
:1034700003461846FDF734FC144B1B68043315480B
:10348000194600F04FFD1EE0134B1A68BB68134449
:103490007B6188207969FDF761F90C4B1B68184640
:1034A00002F03EFB03461846FDF71AFC02F046FB0D
:1034B0000346184602F034FB03461846FDF710FC9D
:1034C000786900F0F9F91837BD4680BD4801002041
:1034D000280200200C0200202402002080B586B0C3
:1034E00000AF78607B68DB68DB683B613B69002B81
:1034F00009D14FF0500383F31188BFF36F8FBFF3EF
:103500004F8FFB60FEE73B691833184600F066FDFD
:10351000214B1B68002B25D13B690433184600F072
:103520005DFD386902F0FCFA03461846FCF780FEA0
:103530003B69DB6A1A46012303FA02F2174B1B6848
:103540001343164A13603B69DA6A13469B0013441F
:103550009B00134A1A443B6904331046194600F095
:10356000E1FC05E03B6918330E48194600F0DAFC2F
:103570003B69DA6A0C4B1B68DB6A9A4205D9012366
:103580007B610A4B01221A6001E000237B617B69A9
:1035900018461837BD4680BD44020020280200208E
:1035A0004C010020E00100204801002034020020EE
:1035B00080B485B000AF78607B68002B09D14FF0F4
:1035C000500383F31188BFF36F8FBFF34F8FFB60FE
:1035D000FEE7064B1A687B681A60054B1A687B6821
:1035E0005A601437BD465DF8047B704738020020EE
:1035F0002402002080B586B000AF786039607B6817
:10360000002B09D14FF0500383F31188BFF36F8F64
:10361000BFF34F8FFB60FEE73B68002B09D14FF0F3
:10362000500383F31188BFF36F8FBFF34F8FBB60DD
:10363000FEE701F0ABFA1C4B1B683B613B681B6863
:10364000B3F1FF3F02D100237B6126E07B681A685B
:10365000164B1B689A4207D07B685A683B699A42AE
:1036600002D801237B6118E07B685B683A69D21A53
:103670003B681B689A420ED23B681A687B6859689F
:103680003B69CB1A1A443B681A607868FFF790FFD1
:1036900000237B6101E001237B6101F0A5FA7B69D6
:1036A00018461837BD4680BD24020020380200208D
:1036B00080B400AF034B01221A60BD465DF8047B65
:1036C000704700BF3402002080B485B000AF78603E
:1036D0007B68002B05D07B68BB60BB685B6CFB60C4
:1036E00001E00023FB60FB6818461437BD465DF817
:1036F000047B704780B582B000AF786000F0A2F81C
:10370000064B1B68012B07D9054B4FF080521A60FE
:10371000BFF34F8FBFF36F8FF0E700BF4C01002066
:1037200004ED00E080B586B000AFF860B9607A6063
:103730003B6000237B6113E0BA687B69134419780E
:10374000FA687B69134430330A461A71BA687B6998
:1037500013441B78002B00D105E07B6901337B61AA
:103760007B69092BE8D9FB68002283F83D207B6840
:10377000042B01D904237B60FB687A68DA62FB685A
:103780007A689A64FB680022DA64FB68043318469E
:1037900000F0BCFBFB681833184600F0B7FBFB6871
:1037A000FA681A617B68C3F10502FB689A61FB68DD
:1037B000FA685A62FB6800221A65FB68002283F8E7
:1037C00054201837BD4680BD80B582B000AF0023BD
:1037D0007B600CE07A6813469B0013449B00114AFF
:1037E0001344184600F072FB7B6801337B607B68F2
:1037F000042BEFD90C4800F069FB0C4800F066FB85
:103800000B4800F063FB0B4800F060FB0A4800F037
:103810005DFB0A4B044A1A60094B044A1A600837D8
:10382000BD4680BD4C010020B0010020C401002035
:10383000E0010020F40100200C020020D80100204B
:10384000DC01002080B582B000AF28E0FFF780FBEC
:10385000164B1B68002B0CBF01230023DBB27B60DF
:10386000FFF784FB7B68002B19D101F08FF90F4B18
:10387000DB68DB683B603B680433184600F0AEFB56
:103880000B4B1B68013B0A4A13600A4B1B68013B48
:10389000084A136001F0A8F9386800F07BF8054B7E
:1038A0001B68002BD2D10837BD4680BDF401002033
:1038B000200200200802002080B582B000AF7860AE
:1038C000134B1B687A685A60124B1B687A689A42DD
:1038D00009D2114B1A680E4B1B6804331046194667
:1038E00000F044FB10E00D4B1A68094B1B680433D1
:1038F0001046194600F03AFB094B1B687A689A4259
:1039000002D2074A7B6813600837BD4680BD00BFFE
:103910004801002024020020DC010020D801002002
:103920004002002080B584B000AF03463960FB80C0
:103930003B68002B06D1FB889B00184602F092FEE4
:10394000034600E03B68BB60BB68002B0ED05820EC
:1039500002F088FEF860FB68002B03D0FB68BA68B1
:103960001A6305E0B86802F0CDFE01E00023FB60B9
:10397000FB68002B08D0FB681A6BFB889B00104685
:10398000A5211A4603F066F8FB6818461037BD46B5
:1039900080BD00BF80B582B000AF78607B681B6BD4
:1039A000184602F0AFFE786802F0ACFE0837BD465C
:1039B00080BD00BF80B483B000AF0E4B1B681B6896
:1039C000002B01D1012300E00023002B04D00A4B7F
:1039D0004FF0FF321A6008E0064B1B68DB68DB68BB
:1039E0007B607B685B68044A13600C37BD465DF8FA
:1039F000047B7047D80100204002002080B483B0CF
:103A000000AF054B1B687B607B6818460C37BD46D2
:103A10005DF8047B704700BF4801002080B483B08C
:103A200000AF0B4B1B68002B02D101237B6008E029
:103A3000084B1B68002B02D102237B6001E00023AE
:103A40007B607B6818460C37BD465DF8047B704789
:103A50002C0200204402002090B585B000AF7860B1
:103A60007B68FB607B68002B00F08E80FB68DA6A65
:103A7000474B1B68DB6A9A4280F08680FB689B6933
:103A8000002B06DB424B1B68DB6AC3F10502FB68B7
:103A90009A61FB685969FB68DA6A13469B00134414
:103AA0009B003C4A1344994201D1012300E00023CA
:103AB000002B43D0FB680433184600F08FFA03460E
:103AC000002B15D1FB68DA6A324913469B00134478
:103AD0009B000B441B68002B0AD1FB68DB6A1A466B
:103AE00001239340DA432C4B1B6813402A4A13608E
:103AF000274B1B68DA6AFB68DA62F86802F010F894
:103B000003461846FCF794FBFB68DB6A1A46012360
:103B100003FA02F2204B1B6813431F4A1360FB6831
:103B2000DA6A13469B0013449B001A4A1A44FB6846
:103B300004331046194600F0F5F904E0144B1B68F5
:103B4000DA6AFB68DA62F86801F0EAFF03461C46AD
:103B5000F86801F0E5FF034603201946FDF70AF86F
:103B600003468E2003212246FCF70CFDF86801F085
:103B7000D7FF03461A46064B1B68DB6ADBB20320FD
:103B800011461A46FCF7BAFF1437BD4690BD00BF78
:103B9000480100204C0100202802002090B587B089
:103BA00000AF78607B683B6100237B617B68002B02
:103BB00000F096804D4B1B683A699A4209D04FF04D
:103BC000500383F31188BFF36F8FBFF34F8FFB60F8
:103BD000FEE73B69DB6C002B09D14FF0500383F308
:103BE0001188BFF36F8FBFF34F8FBB60FEE73B6958
:103BF000DB6C5A1E3B69DA643B69DA6A3B699B6C91
:103C00009A426DD03B69DB6C002B69D13B69043370
:103C1000184600F0E3F90346002B15D13B69DA6A38
:103C2000334913469B0013449B000B441B68002B35
:103C30000AD13B69DB6A1A4601239340DA432D4BD4
:103C40001B6813402B4A1360386901F069FF034673
:103C50001C46386901F064FF034603201946FCF74F
:103C600089FF03468F2003212246FCF78BFC38692D
:103C700001F056FF03461A463B699B6CDBB20320FA
:103C800011461A46FCF73AFF3B699A6C3B69DA62C7
:103C90003B69DB6AC3F105023B699A61386901F04F
:103CA0003FFF03461846FCF7C3FA3B69DB6A1A4636
:103CB000012303FA02F20F4B1B6813430D4A1360F2
:103CC0003B69DA6A13469B0013449B00084A1A4476
:103CD0003B6904331046194600F024F901237B6147
:103CE0007B6918461C37BD4690BD00BF48010020C7
:103CF0004C0100202802002080B400AF074B1B6855
:103D0000002B04D0054B1B68DA6C0132DA64034BDC
:103D10001B681846BD465DF8047B704748010020CB
:103D200080B487B000AF7860396000237B610023E6
:103D30003B610023FB6000237B6176E07B6901220D
:103D400002FA03F33B613B681A683B691340FB606E
:103D5000FA683B699A4265D17B681A687B695B00A7
:103D6000194603238B40DB431A407B681A607B684B
:103D70001A683B681B7919467B695B0001FA03F3FB
:103D80001A437B681A603B681B79012B03D03B68A0
:103D90001B79022B2ED17B689A687B695B001946E0
:103DA00003238B40DB431A407B689A607B689A68E8
:103DB0003B685B7919467B695B0001FA03F31A43A0
:103DC0007B689A607B685A687B699BB219460123BD
:103DD0008B40DB431A407B685A607B685B683A68BB
:103DE000927911467A6992B201FA02F292B21A43BA
:103DF0007B685A607B68DA687B699BB25B00032151
:103E000001FA03F3DB431A407B68DA607B68DA6807
:103E10003B68DB7919467B695B0001FA03F31A43BF
:103E20007B68DA607B6901337B617B690F2B85D905
:103E30001C37BD465DF8047B704700BF80B485B079
:103E400000AF78600B467B8013467B700023FB60DD
:103E50000023BB607B787A8802F0070292009340CF
:103E6000FB607B88DB089BB218467B88DB089BB233
:103E70001A467B68083253F822207B8803F0070338
:103E80009B0019460F238B40DB4302EA03017B684A
:103E900000F1080243F822107B88DB089BB21A4627
:103EA0007B68083253F82220FB681343BB607B8891
:103EB000DB089BB21A467B680832B96843F82210C7
:103EC0001437BD465DF8047B704700BF80B483B0F3
:103ED00000AF78607B6803F108027B685A607B68FA
:103EE0004FF0FF329A607B6803F108027B68DA606A
:103EF0007B6803F108027B681A617B6800221A6004
:103F00000C37BD465DF8047B704700BF80B483B0BA
:103F100000AF78607B6800221A610C37BD465DF8FF
:103F2000047B704780B485B000AF786039607B68EF
:103F30005B68FB603B68FA685A60FB689A683B689C
:103F40009A60FB689B683A685A60FB683A689A60B6
:103F50003B687A681A617B681B685A1C7B681A6028
:103F60001437BD465DF8047B704700BF80B485B050
:103F700000AF786039603B681B68BB60BB68B3F119
:103F8000FF3F03D17B681B69FB600CE07B68083353
:103F9000FB6002E0FB685B68FB60FB685B681A68BB
:103FA000BB689A42F6D9FB685A683B685A603B681E
:103FB0005B683A689A603B68FA689A60FB683A689E
:103FC0005A603B687A681A617B681B685A1C7B6878
:103FD0001A601437BD465DF8047B704780B485B025
:103FE00000AF78607B681B69FB607B685B687A6800
:103FF00092689A607B689B687A6852685A60FB682E
:104000005A687B689A4203D17B689A68FB685A6059
:104010007B6800221A61FB681B685A1EFB681A60E5
:10402000FB681B6818461437BD465DF8047B704773
:1040300080B500AF154A154BD3F8883043F47003B0
:10404000C2F88830124A124B1B6843F00103136018
:104050000F4B00229A600E4A0D4B1B6823F08473AD
:1040600023F4803313600A4B0A4A5A60084A084B0B
:104070001B6823F480231360054B0022DA6000F0F4
:104080000BF8024B4FF000629A6080BD00ED00E03B
:10409000003802401030002480B483B000AF002309
:1040A0007B6000233B60424A414B1B6843F48033F2
:1040B00013603F4B1B6803F400333B607B680133A4
:1040C0007B603B68002B03D17B68B3F5A04FF0D138
:1040D000374B1B6803F40033002B02D001233B60F5
:1040E00001E000233B603B68012B02D1304B314A99
:1040F0005A602F4A2E4B1B6C43F0805313642E4A98
:104100002D4B1B6843F440431360294A284B9B689E
:104110009360274A264B9B6843F400439360244AEC
:10412000234B9B6843F4A0539360214A204B1B68A8
:1041300043F08073136000BF1D4B1B6803F00073D6
:10414000002BF9D01C4A1C4B1B6843F480331360CE
:1041500000BF194B5B6803F48033002BF9D0164A7B
:10416000154B1B6843F40033136000BF124B5B68B0
:1041700003F40033002BF9D0104B40F205721A60A3
:104180000B4A0B4B9B6823F003039360084A084BD0
:104190009B6843F00203936000BF054B9B6803F0EC
:1041A0000C03082BF9D10C37BD465DF8047B704732
:1041B00000380240085A400700700040003C0240AE
:1041C00080B500AFFDF752FA80BD00BF80B586B064
:1041D00000AF0023FB75284B1B68002B04D1274838
:1041E000FDF72EFE002343E0254B1B68002B3CD13E
:1041F000EFF31083FB60FB683B610123BB60BB688E
:1042000083F310881F4B1B6801331E4A13601A4B3F
:104210001B6801221A6301F091FC0346184601F065
:104220007FFC0346FB75FB7D002B10D10320FDF7BF
:10423000CFFB0346FB75FB7D03201946124AFDF7B1
:1042400051FDFB7D032019460022FCF757FCFB7D46
:104250001846FCF703FB0B4B1B68013B094A136034
:104260003B697B607B6883F31088034B1B681B6B87
:1042700018461837BD4680BDF4000020F4790008C8
:10428000FC000020F8000020407A000880B500AF54
:10429000054B1B6800221A63044B1B68002B02D0DD
:1042A000024B1B68984780BDF400002048020020A4
:1042B00080B582B000AF78600B46FB701346BB70D0
:1042C0007B68002B04D10E48FDF7BAFD002312E0F5
:1042D000FB78232B01D9FF230DE0FB787A68134488
:1042E000BA781A70FB780133242B01DDFF2302E03A
:1042F000FB780133DBB218460837BD4680BD00BFEE
:10430000C47B000880B582B000AF78600B46FB70BC
:1043100013463B807B68002B04D11748FDF790FDC6
:10432000002324E00CE0FB78232B01D9FF231EE0BF
:10433000FB787A68134400221A70FB780133FB7013
:10434000FB7803F00103DBB2002BECD1FB780233E6
:10435000242B01DDFF230AE0FB785B08DBB25B0066
:104360007A6813443A881A80FB780233DBB2184625
:104370000837BD4680BD00BFEC7B000880B584B027
:1043800000AFF8600B467A60FB72FB68002B04D12B
:104390001648FDF755FD002324E00CE0FB7A232BA3
:1043A00001D9FF231EE0FB7AFA68134400221A7039
:1043B000FB7A0133FB72FB7A03F00303DBB2002BC1
:1043C000ECD1FB7A0433242B01DDFF230AE0FB7AD6
:1043D0009B08DBB29B00FA6813447A681A60FB7A88
:1043E0000433DBB218461037BD4680BD187C000888
:1043F00080B584B000AFF8600B4687ED010AFB7210
:10440000FB68002B04D11748FDF71AFD002324E0B8
:104410000CE0FB7A232B01D9FF231EE0FB7AFA681C
:10442000134400221A70FB7A0133FB72FB7A03F00B
:104430000303DBB2002BECD1FB7A0433242B01DD28
:10444000FF230AE0FB7A9B08DBB29B00FA68134467
:104450007A681A60FB7A0433DBB218461037BD461F
:1044600080BD00BF447C000880B586B000AFF86016
:104470000B4687ED000BFB723B467B61FB68002B14
:1044800004D11B48FDF7DCFC00232CE00CE0FB7A98
:10449000232B01D9FF2326E0FB7AFA68134400227C
:1044A0001A70FB7A0133FB72FB7A03F00303DBB271
:1044B000002BECD1FB7A0833242B01DDFF2312E023
:1044C000FB7A9B08DBB29B00FA6813443B617B6973
:1044D0001A683B691A603B6904337A6952681A604A
:1044E000FB7A0833DBB218461837BD4680BD00BFE3
:1044F000707C000880B586B000AFF860B9607A6063
:10450000FB700023FB8200237B75FB783B7547E142
:10451000FB8AFA6813441B78252B40F036817B7D9B
:1045200001337B757B7D0F2B04D9A648FDF788FCF2
:10453000002343E1FB8A0133FB8202E0FB8A013363
:10454000FB82FB8AFA6813441B782F2B05D9FB8A60
:10455000FA6813441B78392BF0D9FB8AFA681344A4
:104560001B78232BEAD0FB8AFA6813441B782E2B86
:10457000E4D0FB8AFA6813441B78002B00F0048116
:10458000FB8AFA6813441B78583B202B00F2FD800D
:1045900001A252F823F000BF374600088B470008FD
:1045A0008B4700088B4700088B4700088B470008A3
:1045B0008B4700088B4700088B4700088B47000893
:1045C000354700088B4700081D4600088B47000848
:1045D000734600088B470008E34600088B47000835
:1045E0008B4700088B470008A34600088B4700084C
:1045F0008B4700088B4700088B4700088B47000853
:104600008B470008514600088B47000837460008D2
:104610008B4700088B47000837460008BB681A1D07
:10462000BA601B683A7D786811461A46FFF7A6FE05
:1046300003463B75A7E0BB681A1DBA601B683A7D4C
:10464000786811461A46FFF799FE03463B759AE0D3
:10465000BB681A1DBA601B68184600F083F9034650
:104660001A463B7D78681946FFF74CFE03463B75BA
:1046700089E0BB68073323F0070303F10802BA603F
:10468000D3E900231046194602F0FAF802463B7DB2
:104690007868194600EE102AFFF7AAFE03463B751C
:1046A00071E0FB8A0133FB82FB8AFA6813441B78B2
:1046B000662B00D067E0BB68073323F0070303F1E4
:1046C0000802BA6093ED007B3B7D78681946B0EE36
:1046D000470AF0EE670AFFF7C7FE03463B7500BFC7
:1046E00051E0FB8A0133FB82FB8AFA6813441B7892
:1046F000642B02D0752B0ED045E0BB681A1DBA6042
:104700001B689BB23A7D786811461A46FFF7FAFD9E
:1047100003463B750DE0BB681A1DBA601B689BB26F
:104720003A7D786811461A46FFF7ECFD03463B7563
:1047300000BF28E0FB8A0133FB82FB8AFA6813443E
:104740001B78642B02D0752B0ED01BE0BB681A1DA2
:10475000BA601B68DBB23A7D786811461A46FFF7EB
:10476000A7FD03463B750DE0BB681A1DBA601B68C8
:10477000DBB23A7D786811461A46FFF799FD034689
:104780003B7500BF00BF00E011E0FB8A0133FB82F4
:104790003B7DFF2B04D10C48FDF752FB00230DE0BD
:1047A000FB8AFA6813441B78002B7FF4B1AE3B7D83
:1047B0000333002B00DA03339B10DBB218461837A3
:1047C000BD4680BD9C7C0008D07C00080EB480B53E
:1047D00085B000AF0346FB8007F12003FB60FB8838
:1047E0001846F969FA6800F007F81437BD46BDE8C5
:1047F000804003B0704700BF80B594B000AF03465F
:10480000B9607A60FB81BB68002B03D14F48FDF78C
:1048100017FB97E0EFF310833B643B6CFB640123D1
:10482000FB63FB6B83F31088494B1B680133484AD9
:104830001360484B1B681B6B002B79D0464B1B78D1
:10484000002B03D0454B1B78002B71D0444B1B78B9
:10485000002B6DD007F11403BB64BB6CAA221A7045
:1048600007F11403B86879681A460423FFF742FE7B
:1048700003467B64FB89B8681946FDF791FA034645
:104880001A46BB6C5A80FF20FDF732FB0346DAB2B2
:10489000BB6C5A702F4B1B681B6B002B48D02D4BE9
:1048A0001B68DA697B6C1A442A4B1B689B699A4225
:1048B00001D9FFF7EBFC274B1B681B6B002B37D094
:1048C000244B1A68234B1B68DB699B0003F50363C9
:1048D000D1187B6C9B0007F11402084611461A465A
:1048E00002F01EF81B4B1A681A4B1B68DB699B0011
:1048F000796CC9B26939C9B213440A4683F83028C1
:10490000144B1B68134A1268D1697A6C0A44DA6145
:10491000104B1B680F4A126851697A6C0A445A613D
:104920000C4B1B68DB69B3F57A6F01D3FFF7AEFC64
:10493000074B1B68013B064A1360FB6CBB63BB6BF8
:1049400083F310885037BD4680BD00BF0C7D000842
:10495000F8000020F4000020460000204400002061
:104960004500002080B582B000AF78607B68002BE6
:1049700004D10748FDF764FA002304E078680021B9
:10498000FDF70EFA034618460837BD4680BD00BF46
:10499000787D000880B485B000AFF860B9607A60B7
:1049A000FB68043BFB60FB684FF080721A60FB6899
:1049B000043BFB60BA68FB681A60FB68043BFB6061
:1049C0000C4AFB681A60FB68143BFB607A68FB6862
:1049D0001A60FB68043BFB60FB686FF002021A6020
:1049E000FB68203BFB60FB6818461437BD465DF84A
:1049F000047B7047F949000880B483B000AF0C4BCA
:104A00001B68B3F1FF3F09D04FF0500383F31188C7
:104A1000BFF36F8FBFF34F8F7B60FEE74FF0500304
:104A200083F31188BFF36F8FBFF34F8F3B60FEE7B7
:104A30002C000020064B19680868B0E8F04F80F39E
:104A40000988BFF36F8F4FF0000080F31188704723
:104A50004801002006480068006880F3088862B6B4
:104A600061B6BFF34F8FBFF36F8F00DF00BF000051
:104A700008ED00E080B586B000AF3B4B1B683B4AB9
:104A8000934209D14FF0500383F31188BFF36F8F26
:104A9000BFF34F8F3B61FEE7334B1B68344A9342B1
:104AA00009D14FF0500383F31188BFF36F8FBFF329
:104AB0004F8FFB60FEE72F4B7B617B691B78DBB27E
:104AC000BB607B69FF221A707B691B78DBB2FB71CC
:104AD000FB79DBB203F05003DAB2274B1A70274B95
:104AE00007221A6009E0254B1B68013B234A13602B
:104AF000FB79DBB25B00DBB2FB71FB79DBB2DBB2D3
:104B00005BB2002BEFDB1D4B1B681B021B4A1360C3
:104B10001A4B1B6803F4E063184A1360BB68DAB2EF
:104B20007B691A70164A164B1B6843F470031360B6
:104B3000134A134B1B6843F07043136000F0CCF82A
:104B4000104B00221A6000F0E1F80F4A0E4B1B6870
:104B500043F040431360FFF77DFFFFF74DFF002355
:104B600018461837BD4680BD00ED00E071C20F4108
:104B700070C20F4100E400E06402002068020020DF
:104B800020ED00E02C00002034EF00E080B483B082
:104B900000AF4FF0500383F31188BFF36F8FBFF363
:104BA0004F8F7B600E4B1B6801330D4A13600C4B1B
:104BB0001B68012B0ED10B4B1B68DBB2002B09D0FD
:104BC0004FF0500383F31188BFF36F8FBFF34F8F04
:104BD0003B60FEE70C37BD465DF8047B704700BFC5
:104BE0002C00002004ED00E080B483B000AF104B37
:104BF0001B68002B09D14FF0500383F31188BFF3DA
:104C00006F8FBFF34F8F7B60FEE7094B1B68013B43
:104C1000074A1360064B1B68002B04D100233B603E
:104C20003B6883F311880C37BD465DF8047B704701
:104C30002C000020EFF30980BFF36F8F144B1A682C
:104C40001EF0100F08BF20ED108A20E9F04F106011
:104C50004DF8043D4FF0500080F31188BFF34F8FA3
:104C6000BFF36F8FFEF708FB4FF0000080F3118851
:104C700008BC19680868B0E8F04F1EF0100F08BFB4
:104C8000B0EC108A80F30988BFF36F8F704700BFC4
:104C90004801002080B584B000AFEFF311824FF0DF
:104CA000500383F31188BFF36F8FBFF34F8FFA6008
:104CB000BB60FEF707FA0346002B03D0054B4FF00D
:104CC00080521A6000237B607B6883F31188103761
:104CD000BD4680BD04ED00E080B400AF074A084B3C
:104CE0001B680849A1FB03139B09013B1360064B9A
:104CF00007221A60BD465DF8047B704714E000E0AF
:104D000018000020D34D621010E000E0DFF80C0026
:104D1000016841F4700101607047000088ED00E017
:104D200080B485B000AFEFF30583FB60FB680F2B09
:104D300013D9154AFB6813441B78FB72134B1B787D
:104D4000FA7A9A4209D24FF0500383F31188BFF3E5
:104D50006F8FBFF34F8F7B60FEE70D4B1B6803F433
:104D6000E0620C4B1B689A4209D94FF0500383F361
:104D70001188BFF36F8FBFF34F8F3B60FEE714378F
:104D8000BD465DF8047B7047F0E300E0640200205C
:104D90000CED00E06802002080B584B000AF7860C0
:104DA00039607B68FB60FB68002B09D14FF0500332
:104DB00083F31188BFF36F8FBFF34F8FBB60FEE7A4
:104DC000FFF7E4FEFB681A68FB68DB6BF968096CA7
:104DD00001FB03F31A44FB685A60FB6800229A63E4
:104DE000FB681A68FB689A60FB681A68FB68DB6BF3
:104DF000013BF968096C01FB03F31A44FB68DA60B4
:104E0000FB684FF0FF325A64FB684FF0FF329A6440
:104E10003B68002B14D1FB681B69002B1AD0FB6880
:104E200010331846FEF75AFB0346012B12D10D4BE7
:104E30004FF080521A60BFF34F8FBFF36F8F09E0BE
:104E4000FB6810331846FFF741F8FB682433184617
:104E5000FFF73CF8FFF7C8FE012318461037BD46A0
:104E600080BD00BF04ED00E0B0B58AB000AFF860CF
:104E7000B9601346FB7100233B62FB68002B09D12C
:104E80004FF0500383F31188BFF36F8FBFF34F8F41
:104E9000BB61FEE7BB68002B02D100237B6205E00B
:104EA000FB68BA6802FB03F301337B627B6A54330D
:104EB000184601F0D7FBF861FB69002B53D0BB68A3
:104EC000002B03D1FB69FA691A6004E0FB6903F166
:104ED0005402FB691A60FB69FA68DA63FB69BA6815
:104EE0001A64F8690121FFF757FFFB69FA7983F823
:104EF0005020F86900F008FE03461A46234B9B5CDD
:104F00001846FCF765FD03461A46FB69DA64F86942
:104F100000F0FAFD03461A461C4B9B5C1833DBB2CB
:104F20001D46F86900F0F0FD03461A46174B9C5CDD
:104F3000F86900F0DBFD0346284621461A46FBF7D8
:104F40007FFAF86900F0E0FD03461A460F4B9C5CBF
:104F5000F86900F0CBFD0346204619460022FBF716
:104F600047FEFB693B623B6A002B09D14FF05003BF
:104F700083F31188BFF36F8FBFF34F8F7B61FEE721
:104F80003B6A18462837BD46B0BD00BF3000002040
:104F9000B0B58EB000AFF860B9607A603B600023B6
:104FA0007B63FB683B633B6B002B09D14FF05003E5
:104FB00083F31188BFF36F8FBFF34F8FBB62FEE7A0
:104FC000BB68002B03D13B6B1B6C002B01D1012371
:104FD00000E00023002B09D14FF0500383F3118828
:104FE000BFF36F8FBFF34F8F7B62FEE73B68022BEF
:104FF00003D13B6BDB6B012B01D1012300E00023CC
:10500000002B09D14FF0500383F31188BFF36F8F4A
:10501000BFF34F8F3B62FEE7FEF700FD0346002B18
:1050200002D17B68002B01D1012300E00023002B7B
:1050300009D14FF0500383F31188BFF36F8FBFF393
:105040004F8FFB61FEE7FFF7A1FD3B6B9A6B3B6B5C
:10505000DB6B9A4202D33B68022B64D1386B00F0C1
:1050600053FD03461A46894B9B5C2033DBB21D4639
:10507000386B00F049FD03461A46844B9C5C386B44
:1050800000F034FD0346284621461A46FBF7D8F9BE
:10509000386B00F039FD03461A467C4B9C5C386B3C
:1050A00000F024FD03461D46386B00F02DFD03463D
:1050B0001A46764B9B5C022B05D03B6B9B6BDBB29D
:1050C0000133DBB200E00023204629461A46FBF7F5
:1050D0008FFD386BB9683A6800F094FBF8623B6B5F
:1050E0005B6A002B10D03B6B24331846FEF7F6F9B1
:1050F0000346012B13D1664B4FF080521A60BFF369
:105100004F8FBFF36F8F0AE0FB6A002B07D0604B15
:105110004FF080521A60BFF34F8FBFF36F8FFFF7CE
:1051200063FD0123ADE07B68002B1DD1FFF75CFD23
:10513000386B00F0E9FC03461A46544B9B5C48333D
:10514000DBB21D46386B00F0DFFC03461A464F4BBE
:105150009C5C386B00F0CAFC0346284621461A4680
:10516000FBF76EF900238CE07B6B002B06D107F177
:1051700014031846FEF71CFA01237B63FFF734FD86
:10518000FDF7E6FEFFF702FD3B6B5B6CB3F1FF3F03
:1051900002D13B6B00225A643B6B9B6CB3F1FF3F27
:1051A00002D13B6B00229A64FFF71EFD07F1140247
:1051B0003B1D10461946FEF71DFA0346002B3ED153
:1051C000386B00F015FC0346002B32D0386B00F032
:1051D0009BFC03461A462D4B9B5C7033DBB21D468D
:1051E000386B00F091FC03461A46284B9C5C386BE8
:1051F00000F07CFC0346284621461A46FBF720F9BE
:105200003B6B03F110027B6810461946FEF796F8D7
:10521000386B00F08BFBFDF7A9FE0346002B2FD166
:105220001B4B4FF080521A60BFF34F8FBFF36F8F4D
:1052300026E0386B00F07AFBFDF798FE03E7386B49
:1052400000F074FBFDF792FE386B00F05DFC034646
:105250001A460E4B9B5C4833DBB21D46386B00F0A0
:1052600053FC03461A46094B9C5C386B00F03EFC2D
:105270000346284621461A46FBF7E2F8002300E0E1
:10528000E1E618463837BD46B0BD00BF300000200B
:1052900004ED00E0B0B58EB000AFF860B9607A60A0
:1052A0003B60FB683B633B6B002B09D14FF0500325
:1052B00083F31188BFF36F8FBFF34F8FBB62FEE79D
:1052C000BB68002B03D13B6B1B6C002B01D101236E
:1052D00000E00023002B09D14FF0500383F3118825
:1052E000BFF36F8FBFF34F8F7B62FEE73B68022BEC
:1052F00003D13B6BDB6B012B01D1012300E00023C9
:10530000002B09D14FF0500383F31188BFF36F8F47
:10531000BFF34F8F3B62FEE7FFF702FDEFF3118211
:105320004FF0500383F31188BFF36F8FBFF34F8F9C
:10533000FA61BB61FB69FB623B6B9A6B3B6BDB6B9E
:105340009A4202D33B68022B54D1386B00F0DCFB4D
:1053500003461A463A4B9B5C3033DBB21D46386B32
:1053600000F0D2FB03461A46354B9C5C386B00F0CC
:10537000BDFB0346284621461A46FBF761F8386B09
:1053800000F0C2FB03461A462D4B9C5C386B00F0C4
:10539000ADFB03461A463B6B9B6BDBB20133DBB2C2
:1053A000204611461A46FBF723FC386BB9683A6869
:1053B00000F028FA3B6B9B6CB3F1FF3F12D13B6BC3
:1053C0005B6A002B13D03B6B24331846FEF786F83C
:1053D0000346002B0BD07B68002B08D07B68012292
:1053E0001A6004E03B6B9B6C5A1C3B6B9A64012374
:1053F0007B631BE0386B00F087FB03461A46104BBB
:105400009B5C5833DBB21D46386B00F07DFB0346D6
:105410001A460B4B9C5C386B00F068FB0346284631
:1054200021461A46FBF70CF800237B63FB6A7B617D
:105430007B6983F311887B6B18463837BD46B0BD56
:1054400030000020B0B58CB000AFF860B9607A6071
:105450003B600023FB62FB68BB62BB6A002B09D187
:105460004FF0500383F31188BFF36F8FBFF34F8F5B
:105470003B62FEE7BB68002B03D1BB6A1B6C002BB1
:1054800001D1012300E00023002B09D14FF050038C
:1054900083F31188BFF36F8FBFF34F8FFB61FEE77C
:1054A000FEF7BCFA0346002B02D17B68002B01D12A
:1054B000012300E00023002B09D14FF0500383F3B8
:1054C0001188BFF36F8FBFF34F8FBB61FEE7FFF70C
:1054D0005DFBBB6A9B6B002B00F0A380BB6ADB68A3
:1054E0007B62B86AB96800F0FBF93B68002B63D1B6
:1054F000B86A00F009FB03461A46B34B9B5C28339D
:10550000DBB21D46B86A00F0FFFA03461A46AE4BFE
:105510009C5CB86A00F0EAFA0346284621461A461F
:10552000FAF78EFFB86A00F0EFFA03461A46A64B68
:105530009C5CB86A00F0DAFA03461D46B86A00F0CF
:10554000E3FA03461A46A04B9B5C022B07D100F0FE
:10555000F5FA0346184600F0E3FA034604E0BB6A96
:105560009B6BDBB2013BDBB2204629461A46FBF7B8
:105570003FFBBB6A9B6B5A1EBB6A9A63BB6A1B6884
:10558000002B04D1FEF7B8FB0246BB6A5A60BB6A27
:105590001B69002B41D0BB6A10331846FDF79EFFF4
:1055A0000346012B39D1894B4FF080521A60BFF36B
:1055B0004F8FBFF36F8F30E0B86A00F0A5FA034653
:1055C0001A46814B9B5C7833DBB21D46B86A00F00B
:1055D0009BFA03461A467C4B9C5CB86A00F086FA3C
:1055E0000346284621461A46FAF72AFFBB6A7A6A1A
:1055F000DA60BB6A5B6A002B0FD0BB6A24331846A3
:10560000FDF76CFF0346002B07D0704B4FF0805224
:105610001A60BFF34F8FBFF36F8FFFF7E5FA0123D7
:10562000CDE07B68002B1DD1FFF7DEFAB86A00F0F1
:105630006BFA03461A46644B9B5C5033DBB21D4643
:10564000B86A00F061FA03461A465F4B9C5CB86A80
:1056500000F04CFA0346284621461A46FAF7F0FEB7
:105660000023ACE0FB6A002B06D107F110031846BB
:10567000FDF79EFF0123FB62FFF7B6FAFDF768FC1A
:10568000FFF784FABB6A5B6CB3F1FF3F02D1BB6AE0
:1056900000225A64BB6A9B6CB3F1FF3F02D1BB6A24
:1056A00000229A64FFF7A0FA07F110023B1D104692
:1056B0001946FDF79FFF0346002B5ED1B86A00F044
:1056C00081F90346002B52D0B86A00F01DFA034658
:1056D0001A463D4B9B5C6833DBB21D46B86A00F04E
:1056E00013FA03461A46384B9C5CB86A00F0FEF980
:1056F0000346284621461A46FAF7A2FEB86A00F089
:1057000003FA03461A46304B9B5C022B09D000F08B
:1057100015FA0346184600F003FA03461846FBF74D
:10572000DFFABB6A1B68002B08D1FFF72FFABB6AB0
:105730005B681846FEF790F9FFF756FABB6A03F16B
:1057400024027B6810461946FDF7F8FDB86A00F0A0
:10575000EDF8FDF70BFC0346002B2FD11B4B4FF050
:1057600080521A60BFF34F8FBFF36F8F26E0B86A85
:1057700000F0DCF8FDF7FAFBA9E6B86A00F0D6F80D
:10578000FDF7F4FBB86A00F0BFF903461A460E4B6A
:105790009B5C5033DBB21D46B86A00F0B5F9034696
:1057A0001A46094B9C5CB86A00F0A0F903462846EB
:1057B00021461A46FAF744FE002300E087E6184621
:1057C0003037BD46B0BD00BF3000002004ED00E022
:1057D00080B483B000AF78607B68DB6C18460C3710
:1057E000BD465DF8047B704780B483B000AF78603D
:1057F0007B6893F8503018460C37BD465DF8047B43
:10580000704700BF80B586B000AFF860B9607A60BD
:1058100000237B61FB681B6C002B0DD1FB681B68B0
:10582000002B52D1FB685B681846FEF7B7F9786128
:10583000FB6800225A6048E07B68002B1AD1FB68A5
:105840009A68FB681B6C1046B9681A4601F068F844
:10585000FB689A68FB681B6C1A44FB689A60FB68DB
:105860009A68FB685B689A422FD3FB681A68FB68EA
:105870009A602AE0FB68DA68FB681B6C1046B9681E
:105880001A4601F04DF8FB68DA68FB681B6C5B4256
:105890001A44FB68DA60FB68DA68FB681B689A42A6
:1058A00007D2FB685A68FB681B6C5B421A44FB68B2
:1058B000DA607B68022B08D1FB689B6B002B04D05D
:1058C000FB689B6B5A1EFB689A63FB689B6B5A1CB8
:1058D000FB689A637B6918461837BD4680BD00BFD8
:1058E00080B582B000AF786039607B681B6C002B9C
:1058F00019D07B68DA687B681B6C1A447B68DA60B5
:105900007B68DA687B685B689A4203D37B681A68B5
:105910007B68DA607B68DA687B681B6C38681146E4
:105920001A4600F0FDFF0837BD4680BD80B582B045
:1059300000AF7860FFF72AF914E07B685B6A002B00
:105940000AD07B6824331846FDF7C8FD0346002BB8
:1059500003D0FDF7ADFE00E008E07B689B6C5A1EAB
:105960007B689A647B689B6C002BE6DC7B684FF05D
:10597000FF329A64FFF738F9FFF708F914E07B6803
:105980001B69002B0FD07B6810331846FDF7A6FD6E
:105990000346002B01D0FDF78BFE7B685B6C5A1E23
:1059A0007B685A6400E003E07B685B6C002BE6DCFC
:1059B0007B684FF0FF325A64FFF716F90837BD468F
:1059C00080BD00BF80B584B000AF7860FFF7DEF81F
:1059D0007B689B6B002B02D10123FB6001E000235D
:1059E000FB60FFF701F9FB6818461037BD4680BD24
:1059F00080B584B000AF7860FFF7C8F87B689A6B19
:105A00007B68DB6B9A4202D10123FB6001E000233B
:105A1000FB60FFF7E9F8FB6818461037BD4680BD0C
:105A200090B585B000AF786039600023FB6024E05A
:105A3000154AFB6852F83330002B1BD11249FB6822
:105A40003A6841F83320104AFB68DB0013447A6857
:105A50005A60786800F058F803461A460B4B9C5C75
:105A6000786800F043F80346204619463A68FCF788
:105A700039F905E0FB680133FB60FB68072BD7D9D8
:105A80001437BD4690BD00BF5C750120300000207A
:105A900080B586B000AFF860B9607A60FB687B6162
:105AA000FFF774F87B695B6CB3F1FF3F02D17B6950
:105AB00000225A647B699B6CB3F1FF3F02D17B6982
:105AC00000229A64FFF790F87B699B6B002B06D14C
:105AD0007B6924331846B9687A68FDF77DFC7869DC
